:1000000045C0000034C4000060C000005EC00000B5
:100010005CC000005AC0000058C0000056C000007C
:1000200054C00000F7C4000050C000004EC00000E3
:100030000C9422124AC0000048C00000E1C1000038
:1000400044C0000042C0000081C300003EC0000068
:100050003CC000003AC0000038C0000036C00000BC
:1000600034C0000032C0000030C000002EC00000CC
:10007000CEC300002AC0000099C3000026C00000C3
:1000800024C0000022C0000020C0000011241FBEB8
:10009000CFEFD0E1DEBFCDBF11E0A0E0B1E0E6EAF6
:1000A000FBE300E00BBF02C007900D92A03FB10739
:1000B000D9F72CE0A0EFB1E001C01D92AE3EB2072F
:1000C000E1F70E94600F0C94D11D9ACFFC01680FDC
:1000D000791F8FEF9FEFE617F70799F0219182279D
:1000E00028E030E0AC014170552796958795452B67
:1000F00021F041E0842740EA94272150310991F70B
:10010000EACF0895CF93DF93DC01EB018C918883D4
:1001100011968C911197898313968C9192E09A8312
:10012000E82FF0E0EE0FFF1FE40FF51F81818B83B6
:1001300080818C8365E070E0CE01C8DF9E838D8373
:10014000DF91CF910895CF93DF93FC01EB01808184
:1001500088838181898382818A8383818B8384815F
:100160008C8385818D8366E070E0CE01AFDF9F8355
:100170008E83DF91CF910895CF93DF93FC01EB0144
:10018000808188838181898382818A8383818B8333
:1001900094819C8395819D8396819E8327812F8363
:1001A00090859887E82FF0E0EE0FFF1FE40FF51F12
:1001B000892F90E0922B9183808369E070E0CE01DB
:1001C00085DF9A878987DF91CF910895CF93DF9359
:1001D000FC01EB01808188838181898382818A830C
:1001E00083818B8384818C8385818D8366E070E03D
:1001F000CE016CDF9F838E83DF91CF910895CF93E3
:10020000DF93EC01688381E889834A8363E070E0CF
:10021000CE015CDF9C838B83DF91CF9108951F9388
:10022000CF93DF93EC01CB01142FFE01EA57FF4F70
:1002300071836083642F74D2882371F0FE01EB57C1
:10024000FF4F108331971082349711821082CE575E
:10025000DF4F1982188204C0CA57DF4F19821882F3
:10026000DF91CF911F9108950C9411100895FC0116
:10027000E058FF4F20812F5F2F7719F411821082F1
:1002800021E030E0FC01EE57FF4F408151812417FF
:10029000350789F0DC01A058BF4FED91FC91119713
:1002A000E80FF91F61832D933C93FC01EC57FF4F3E
:1002B00080818F5F80830895AF92BF92CF92DF924B
:1002C000EF92FF920F931F93CF938C016B017A01F2
:1002D000DC01AB57BF4FFC01EA57FF4F6C918081A7
:1002E00091812BD2892BD1F01E141F04BCF4C0E0E5
:1002F000580185E8A80EB11C0A571F4FF601EC0FF4
:10030000F11D4081F5016081F80180819181C1D1A9
:10031000CF5F2C2F30E02E153F0584F3CF911F9136
:100320000F91FF90EF90DF90CF90BF90AF90089526
:10033000FC01EE57FF4F208131813297408151817E
:1003400042175307E9F02F5F3F4FFC01E20FF31F05
:1003500040812F773327FC01EE57FF4F31832083F5
:100360003296608170E02617370761F43297118268
:10037000108232971182108234961082842F089551
:100380008FEF0895842F0895DC01A058BF4FFC0122
:10039000EE57FF4F8C919081891B8F770895FC0158
:1003A000EE57FF4F118210823297118210823496DD
:1003B000108208958CE083BF8CE781BF87B782608D
:1003C00087BF089587B78D7F87BF089587B78260FD
:1003D00087BF089590E0FC01EE0FFF1FDF01A80F1B
:1003E000B91FAA0FBB1FA051BE4F11967C936E93ED
:1003F00013961C921E921297FD0155834483089513
:100400001F920F920FB60F9211240BB60F92EF921C
:10041000FF920F931F932F933F934F935F936F938D
:100420007F938F939F93AF93BF93CF93DF93EF937C
:10043000FF93C0EFD1E00F2EFEE0EF2EF2E0FF2E93
:10044000F02DEC81FD81309779F08A819B810196B6
:100450009B838A83288139818217930729F41B8221
:100460001A8209951D821C822696CE15DF0549F752
:10047000FF91EF91DF91CF91BF91AF919F918F91BC
:100480007F916F915F914F913F912F911F910F91AC
:10049000FF90EF900F900BBE0F900FBE0F901F902C
:1004A000189580E0089508950895089508956623A5
:1004B00051F080E0EFECF7E03197F1F700C0000079
:1004C0008F5F6813F7CF08950F931F93CF938C011D
:1004D000C62FD898862F807F8BBBD99A61E0C80140
:1004E000E6DFD998C295C07FCBBBD99A61E0C8013D
:1004F000DEDFD998CF911F910F9108950F931F932D
:10050000CF938C01C62FD89A862F807F81608BBBBA
:10051000D99A61E0C801CBDFD99880E1C89FB001CA
:10052000112461606BBBD99A61E0C801C0DFD99822
:10053000CF911F910F9108950F931F93CF93DF9346
:10054000EB016881662339F08C012196C801D6DF62
:1005500069916111FBCFDF91CF911F910F910895A8
:10056000CF93DF93EC0161E0AFDF65E0CE019FDF69
:10057000DF91CF910895CF93DF93EC018FEF8BBB89
:1005800068E2CE01A1DF66E0CE019EDF6CE0CE0125
:100590009BDFCE01E5DFDF91CF9108952BE031E0C5
:1005A000FC01318320832FEF2ABBE5CF0895413032
:1005B00041F028F0423039F0433039F007C040E8CC
:1005C00005C040EC03C044E901C044ED640F7CCF9A
:1005D00008950F931F93CF93DF938C01E901E7DF19
:1005E0006881662331F02196C80188DF6991611125
:1005F000FBCFDF91CF911F910F9108950C941110B3
:10060000089511BA8FEF82BBEAE6F0E08081826044
:10061000808380818E7F808389B7816089BF0895C0
:100620000C941110089528E0DC01E22F1D92EA9548
:10063000E9F7FC013896DF011D922A95E9F79093BE
:100640000F0280930E020895CF93DF9380910E02E4
:1006500090910F02892B51F480E190E00E941110DB
:10066000EC01E1DFD0930F02C0930E0280910E02E5
:1006700090910F02DF91CF91089550E0440F551FE4
:10068000840F951FFC017183608308950C941110F1
:100690000895262F30E0220F331F820F931FDC01B5
:1006A0008D919C91009741F0642FDC01ED91FC91BC
:1006B0000680F781E02D09950895262F30E0220F5E
:1006C000331F820F931FDC018D919C91009741F0A5
:1006D000BA01DC01ED91FC910480F581E02D0995D2
:1006E000089570E0660F771F860F971FDC018D91CC
:1006F0009C91009739F0DC01ED91FC910190F08123
:10070000E02D09950895E62FF0E0EE0FFF1FE80FAA
:10071000F91F80819181892B11F0518740870895BD
:1007200070E0660F771FFC01E60FF71F81E0208164
:100730003181232B09F480E0089570E0660F771F64
:10074000860F971FFC018081918108951F920F925F
:100750000FB60F9211240BB60F922F933F934F9326
:100760005F936F937F938F939F93AF93BF93EF9319
:10077000FF936ADF6CB170E0DC011896ED91FC919B
:10078000199780E00995FF91EF91BF91AF919F91EB
:100790008F917F916F915F914F913F912F910F902A
:1007A0000BBE0F900FBE0F901F9018951F920F92C7
:1007B0000FB60F9211240BB60F922F933F934F93C6
:1007C0005F936F937F938F939F93AF93BF93EF93B9
:1007D000FF933ADF60919C0070E0DC011A96ED9186
:1007E000FC911B9781E00995FF91EF91BF91AF912B
:1007F0009F918F917F916F915F914F913F912F9139
:100800000F900BBE0F900FBE0F901F9018951F9268
:100810000F920FB60F9211240BB60F922F933F93A6
:100820004F935F936F937F938F939F93AF93BF93F8
:10083000EF93FF9309DFDC011C96ED91FC911D976E
:1008400060E070E082E00995FF91EF91BF91AF9178
:100850009F918F917F916F915F914F913F912F91D8
:100860000F900BBE0F900FBE0F901F9018951F9208
:100870000F920FB60F9211240BB60F922F933F9346
:100880004F935F936F937F938F939F93AF93BF9398
:10089000EF93FF93D9DEDC011E96ED91FC911F973B
:1008A00060E070E083E00995FF91EF91BF91AF9117
:1008B0009F918F917F916F915F914F913F912F9178
:1008C0000F900BBE0F900FBE0F901F90189580E4F5
:1008D00080938B0084E080938A0088E09DE390936E
:1008E00087008093860082E080937D0008952BE24C
:1008F00031E0FC013183208308950C941110089598
:10090000CF93DF93EC0110929B0088E980939A00CB
:1009100086E080939D00BE016E5F7F4FCE0119D1AE
:10092000109298009093990081E00E94DA139F83BF
:100930008E8381E00E94DA139D838C83DF91CF91B7
:1009400008952BE331E0FC013183208320E835E278
:10095000338322832091100230911102232B21F442
:10096000909311028093100208950C941110089531
:100970001F93CF93DF93EC01162F20E044E650E065
:1009800060E070E08C819D810E94F213813081F4DF
:10099000EBE9F0E0808185FFFDCF10939C0020E023
:1009A00040E050E060E070E08C819D810E9448133F
:1009B000DF91CF911F910895DBCF08950F931F937F
:1009C000CF93DF938C01EB0120E044E650E060E040
:1009D00070E0FC01868197810E94F213813099F4C6
:1009E0006881662331F02196C801C2DF69916111E7
:1009F000FBCF20E040E050E060E070E0F80186814D
:100A000097810E944813DF91CF911F910F91089514
:100A1000D5CF08951F920F920FB60F9211240BB6E7
:100A20000F928F939F93EF93FF93E3E0F3E0868120
:100A30009781019697838683FF91EF919F918F9184
:100A40000F900BBE0F900FBE0F901F901895CF9375
:100A5000DF93EC0188E98AB986E080939500BE01B6
:100A60006E5F7F4FCE0175D01092900099B981E0F2
:100A70000E94DA139F838E8381E00E94DA139D83A4
:100A80008C83DF91CF9108952BE431E0FC01318319
:100A9000208320E438E333832283209112023091B3
:100AA0001302232B21F490931302809312020895D2
:100AB0000C94111008951F93CF93DF93EC01162F20
:100AC00020E044E650E060E070E08C819D810E946F
:100AD000F213813061F45D9BFECF1CB920E040E051
:100AE00050E060E070E08C819D810E944813DF91AE
:100AF000CF911F910895DFCF08950F931F93CF9348
:100B0000DF938C01EB0120E044E650E060E070E010
:100B1000FC01868197810E94F213813099F46881EB
:100B2000662331F02196C801C6DF69916111FBCFC0
:100B300020E040E050E060E070E0F80186819781BD
:100B40000E944813DF91CF911F910F910895D5CF47
:100B50000895CF92DF92EF92FF92CF93DF93FB0144
:100B600020813181C901A0E0B0E0880F991FAA1F40
:100B7000BB1F880F991FAA1FBB1F9C01AD01220F2D
:100B8000331F441F551F220F331F441F551F60E0A2
:100B900074E284EF90E00E94B21ACA01B901615078
:100BA0007109810991090E94241A20E030E040E097
:100BB0005FE30E9494196B017C010E94F819D62F03
:100BC000F0E0CF2FC701B6010E94F819CE01862BA5
:100BD000DF91CF91FF90EF90DF90CF900895C09874
:100BE000962F6F71862B8FB9779BFECF1FB8779B9F
:100BF000FECF99231CF41FB8779BFECFC09A8FB10C
:100C00000895C0986F71862B8FB9779BFECF4FB92F
:100C1000779BFECFC09A0895FB01C0982AE32FB9B5
:100C2000779BFECF009761F0DF01A80FB91F1FB8B7
:100C3000779BFECF9FB19193AE17BF07C1F701C05D
:100C4000DF011C92C09A0895FB01C0982AE72FB9D2
:100C5000779BFECF009761F09F01280F391F03C0DB
:100C60002E173F0729F091919FB9779BFECFF8CFC0
:100C7000C09A08951F93CF93DF93182F1076C12F3A
:100C8000D0E08091160290E0C817D907A1F043E0A8
:100C90006FE180EAB6DFAE015595479555954795CA
:100CA0005595479555954795559547956FE180E83A
:100CB000A8DF10931602DF91CF911F910895CF9373
:100CC000C82FD8DF6C2F80E08ADFCF910895CF93B3
:100CD000DF93C82FD62FCEDF4D2F6C2F80E491DF0E
:100CE000DF91CF910895CF93DF93D62FC72F682F31
:100CF00084EDEDDF6D2F86EDEADF6C2F87EDE7DF0A
:100D00008AEEDDDF80FF04C085E08A95F1F7F8CF39
:100D1000DF91CF910895682F677085E7D8CF089548
:100D2000CF93DF93EC01B89AC09AA6D24FEF60E060
:100D30008FEF67DF82E390E0A9D210921502109244
:100D4000140260E088E0C3DF60E089E0C0DF60E0BB
:100D50008CE0BDDF60E08DE0BADF6EEF8AE0B7DFE8
:100D600069E18BE0B4DF6FEF84E0B1DF69E185E03A
:100D7000AEDF6FEF86E0ABDF6FE187E0A8DF60EB0F
:100D800088E3A5DF6FE388E2A2DF60E389E29FDF0B
:100D900069EF80E39CDF67EF81E399DF6DE080EC32
:100DA00096DF60E081EC93DF42E362EC80E829DFCC
:100DB00062E186EC8CDF6CE087EC89DF62E184EC39
:100DC00086DF6CED8AEC83DF65E08BEC80DF688189
:100DD00084EE7DDF698185EE7ADF6A8182EE77DFDE
:100DE0006B8183EE74DF6C8180EE71DF6D8181EE4B
:100DF0006EDF60E071E080E176DF8FE13BDF40ECA9
:100E00006BE180E8FEDE44E06FE180E8FADEDF912E
:100E1000CF9108950F931F93CF93DF93EC018B0134
:100E20006FEF82E054DF69E183E051DF6C2F6150A6
:100E300086E04DDFCE018150964E692F87E047DF77
:100E400040E060E08AE7DDDEB801CE01FDDE48E08B
:100E50006FE180E8D6DE8CE132DF81FF04C048E03C
:100E60006FE180EACEDEDF91CF911F910F9108955F
:100E70009F92AF92BF92CF92DF92EF92FF920F9329
:100E80001F93CF93DF935C017B0189E318DF8823F5
:100E900009F445C060911402C091150280E017DF8B
:100EA0006C2F81E014DF60E08AE399DEC82F60E0F8
:100EB0008AE395DED0E0D82BD0931502C0931402BC
:100EC00060E08AE38CDE082F60E08AE388DE982EFB
:100ED00060E08AE384DEC82E60E08AE380DEC7FE3D
:100EE0000FC081E0A81AB10810E0192904501109B7
:100EF000A016B10608F48501B701C8018DDE02C055
:100F000000E010E06C2F8CE0E2DE6D2F8DE0DFDE84
:100F100040E46EE180E875DE802F912F02C080E012
:100F200090E0DF91CF911F910F91FF90EF90DF90B4
:100F3000CF90BF90AF909F900895CF92DF92EF92A5
:100F4000FF92CF93DF93EC01DB01413061F46B0141
:100F500088E0C81AD108E12CF12C81E1C80ED11C1F
:100F6000E11CF11C11C0423061F46B0188E0C81A29
:100F7000D108E12CF12C86E0C80ED11CE11CF11C3B
:100F800003C0C12CD12C7601A230B105F0F09D0137
:100F9000FE01408150E060E070E0762F652F542F15
:100FA00044278181482BC40ED51EE61EF71E3296BB
:100FB000225031092230310560F7CD0102978E7F32
:100FC0000296C80FD91FA170BB27AB2B61F0888197
:100FD00090E0A0E0B0E0BA2FA92F982F8827C80E84
:100FE000D91EEA1EFB1EA70166277727411551056A
:100FF0006105710571F0EE24FF24C40ED51EE61EB6
:10100000F71EA70166277727411551056105710570
:1010100091F7C60180959095DF91CF91FF90EF9069
:10102000DF90CF90089540930001A62FB72FE7E1FE
:10103000F2E04BE152E02D912193E417F507D9F747
:10104000A82FB92FEBE1F2E021E232E08D918193FC
:10105000E217F307D9F7089569327105C8F0FC016A
:1010600024852830B9F425852630B1F436A12091A5
:101070001702321313C0B796A8E1B2E08A963191F5
:101080002D9132130DC0E817F907C9F781E00895D3
:1010900080E0089580E0089580E0089580E008955C
:1010A00080E00895CF93DF93FC016A327105E0F090
:1010B00084858830D9F4858581111AC09685953448
:1010C000C1F4268D90911702291313C0DF015F969A
:1010D000C8E1D2E0B2962D91999129130AC0AE17BA
:1010E000BF07C9F781E005C080E003C080E001C010
:1010F00080E0DF91CF910895FC01ABE1B2E09C016B
:101100002A5F3F4F868181938D918583E217F30794
:10111000C9F70895CF93DF93EC01188E198E80E400
:101120008C8B1D8A8E8B40E064E170E0CE010E96C0
:1011300004DF988F898FDF91CF910895AC01A7E1EB
:10114000B2E0FC017A962BE132E0908194839D918C
:101150009193A217B307C9F7CA01DCCF0895CF93C3
:10116000DF93EC01C9DF1C8A82E08D8BABE1B2E03A
:10117000FE01769621E232E0808182878D91819313
:10118000A217B307C9F7A7E1B2E0FE017C962BE1F5
:1011900032E0808182878D918193A217B307C9F7CE
:1011A000BE018AE290E036DEDF91CF9108950F9381
:1011B0001F93CF93DF93EC018B019EDFCE01BEDF47
:1011C0001AA28CA1883F18F09DA19F5F9DA3885F04
:1011D0008CA3BE01C8011EDEDF91CF911F910F913C
:1011E0000895DF92EF92FF920F931F93CF93DF93B7
:1011F000EC01D62EE72E042F122FF32E7DDF0D3DAE
:1012000008F00CED188A8CE1800F898BCE0196DFF7
:101210008AA18CA38BA18DA3FAA21BA31EA288E096
:10122000800F8FA318A619A6002381F0AD2DBE2D27
:10123000FE01BA962FEF200F30E0255D3F4F2C0FB7
:101240003D1F9D919193E217F307D9F710E0B80184
:10125000605F7F4F41E0CE014A966FDE98A789A775
:10126000BE01C8018A96D6DDDF91CF911F910F9103
:10127000FF90EF90DF90089587B3866087BBBB989F
:10128000C298C19880E58DB9709A0895009741F091
:10129000EFEBF0E03197F1F700C000000197C1F7E4
:1012A0000895E3E0F3E0848595850196958784872A
:1012B000C598C69808958091FE02811103C081E00F
:1012C0008093FE020895CF93DF93CDB7DEB7AD973D
:1012D0000FB6F894DEBF0FBECDBF0F2EFFEFCF2E9F
:1012E000F2E0DF2EF02D0F2EF3E44F2EF3E05F2E11
:1012F000F02D9E01235F3F4F3BA72AA70F2EFAEF49
:101300008F2EF2E09F2EF02D0F2EF5E46F2EF3E0DE
:101310007F2EF02DF60180819181A281B38180938F
:10132000FA029093FB02A093FC02B093FD028FEFB0
:1013300087BB88BB81E091E0F3DC82E0ECDC8AE0F3
:1013400090E00E947B1766E774E084E1CCDC84E1E6
:1013500090E00E947B17809184039091850300D9CF
:101360008091840390918503DC01ED91FC910480D0
:10137000F581E02D67E571E00995F40180811F9208
:101380008F930F2EFCE5EF2EF1E0FF2EF02DFF9254
:10139000EF928E010F5F1F4F1F930F930E94DD1A74
:1013A0008091840390918503DC01ED91FC91048090
:1013B000F581E02DB8010995809184039091850312
:1013C000DC01ED91FC910480F581E02D6FE571E089
:1013D0000995F40181811F928F93FF92EF921F93E1
:1013E0000F930E94DD1A8091840390918503DC01A4
:1013F000ED91FC910480F581E02DB8010995809173
:10140000840390918503DC01ED91FC910480F581CA
:10141000E02D6FE571E00995F40182811F928F93B1
:10142000FF92EF921F930F930E94DD1A8091840325
:1014300090918503DC01ED91FC910480F581E02D14
:10144000B80109958091840390918503DC01ED91A9
:10145000FC910480F581E02D6FE571E00995F401C0
:1014600083811F928F93FF92EF921F930F930E949D
:10147000DD1A8091840390918503DC01ED91FC914C
:101480000480F581E02DB801099521E631E041E0C5
:1014900060E080918403909185039BD80F2EF1E04A
:1014A000AF2EF1E0BF2EF02DF50180811F928F93BA
:1014B0000F2EF6E6EF2EF1E0FF2EF02DFF92EF92C9
:1014C0001F930F930E94DD1A8091840390918503EE
:1014D000DC01ED91FC910480F581E02DB8010995C6
:1014E0008091840390918503DC01ED91FC9104804F
:1014F000F581E02D6AE571E00995F50181811F9282
:101500008F93FF92EF921F930F930E94DD1A8091A9
:101510008403909185030FB6F894DEBF0FBECDBF54
:10152000DC01ED91FC910480F581E02DB801099575
:101530008091840390918503DC01ED91FC910480FE
:10154000F581E02D6AE571E00995F50182811F9230
:101550008F93FF92EF921F930F930E94DD1A809159
:10156000840390918503DC01ED91FC910480F58169
:10157000E02DB80109958091840390918503DC01E9
:10158000ED91FC910480F581E02D6AE571E009950B
:10159000F50183811F928F93FF92EF921F930F9318
:1015A0000E94DD1A8091840390918503DC01ED9106
:1015B000FC910480F581E02DB801099580918403A8
:1015C00090918503DC01ED91FC910480F581E02D83
:1015D0006AE571E00995F50184811F928F93FF926E
:1015E000EF921F930F930E94DD1A809184039091D4
:1015F0008503DC01ED91FC910480F581E02DB801BB
:1016000009958091840390918503DC01ED91FC9113
:101610000480F581E02D6AE571E00995F501858189
:101620001F928F93FF92EF921F930F930E94DD1AE8
:101630008091840390918503DC01ED91FC910480FD
:10164000F581E02DB801099580918403909185037F
:10165000DC01ED91FC910480F581E02D6AE571E0FB
:10166000099529E631E042E060E0809184039091A1
:1016700085030E94E9022AE731E043E060E08091BF
:101680008403909185030E94E90240E5B401C501FD
:10169000CADC0FB6F894DEBF0FBECDBF212C3324B9
:1016A000339407E413E00F2EF9E4EF2EF3E0FF2E5E
:1016B000F02D0F2EF3E0AF2EF3E0BF2EF02DD6016C
:1016C0008C9190E0F2016081718111964C9150E013
:1016D000332DF301A081B1814A175B0709F430E093
:1016E000232D8617970709F420E0F32FF22BD6015C
:1016F00012962C9130E0E32DD8014D915C91241786
:10170000350709F4E0E0EF2B71F4F601238130E0B6
:10171000E32DD7014D915C912417350709F4E0E0E2
:10172000EE2309F446C08617970741F080E090E069
:101730000E94C01DF2018081D6018C93F30160816B
:101740007181D60111968C9190E08617970749F028
:1017500081E090E00E94C01DF3018081D6011196C6
:101760008C936091470370914803F601828190E069
:101770008617970749F082E090E00E94C01D809193
:101780004703D60112968C936091490370914A03E6
:10179000F601838190E08617970709F4BBCD83E0BB
:1017A00090E00E94C01D80914903D60113968C934E
:1017B000A5CD61E372E088EC90E05ADB9DA78CA791
:1017C000009709F473C0BC0181E392E045DC8823F3
:1017D00021F081E392E0C3DC72CF6CA57DA581E3AB
:1017E00092E060DC882309F46ACF8091480281305E
:1017F00051F480915302883031F46CA57DA581E3CA
:1018000092E0D5DC5CCF80915B02813309F04EC061
:101810008DE1EAA5FBA511928A95E9F780915C021A
:10182000805390E00196823091050CF085C025C070
:10183000F901EF5CFD4F63A5ECE0F0E0EC0FFD1F5C
:10184000E20FF31F608340FD12C0E52FF0E0EE0FC2
:10185000FF1FE95EFC4FABE0B0E0AC0FBD1FA20F75
:10186000B31F2C9130E0362B318320835F5F4F5FB5
:10187000242F30E028173907DCF2D501D0968D915E
:101880009C91D19751969C938E935097DD969C9303
:101890008E93DC97D9969C938E93D897D7969C93EA
:1018A0008E93D697DF969C938E93DE97209429F0A3
:1018B00088B3806188BB88BB04C088B38F7E88BB37
:1018C00088BBF50182819381A1E2B2E011969C93DD
:1018D0008E93868197819093240280932302848142
:1018E0009581909326028093250280899189909317
:1018F0002802809327028289938990932A028093F9
:1019000029028485958590932C0280932B028285F1
:10191000938590932E0280932D02808591859093DC
:10192000300280932F022FE037E240E1BD0181E3D6
:1019300092E057DCD5D4C3CE20915D022D8741E0E3
:1019400050E095CFCF93DF93CDB7DEB72F970FB68B
:10195000F894DEBF0FBECDBF6C01FE0131968FE063
:10196000DF011D928A95E9F703E013E05E01B0E123
:10197000AB0EB11C0F2EFAE98F2E912CF02D0F2EED
:10198000FBE46F2EF3E07F2EF02D0F2EF3E04F2EB1
:10199000512CF02DF8018089918926AD37AD28179B
:1019A000390741F095AF84AF91AF80AF97AB86AB6D
:1019B00097AF86AFC6010E94C4018F3058F3CE01A5
:1019C00001967C01C6010E949801D7018D937D018B
:1019D000AA15BB05B9F78981823009F053C0888503
:1019E00090E0982F88272985822B90935403809329
:1019F00053038A8590E0982F88272B85822B90931C
:101A00005203809351032C8530E0322F22274D85DD
:101A1000242B3093500320934F03F8019383828348
:101A2000D3018D919C91892B19F00E94E60109C088
:101A30000E94E2018091530390915403F80197832F
:101A4000868380914F0390915003D80115969C9303
:101A50008E93149750962D913C91519716968D9197
:101A60009C9117972817390709F094CF52968D91BA
:101A70009C915397892B09F08DCF53965C924E928F
:101A8000529788CFC79846E061E08DE593E00E94C9
:101A9000FF0045E050E06DE573E0C6010E945C0187
:101AA000F40180818F778083C6010E94CF01D40129
:101AB0008C9180688C93C79A6DCFCF93DF93CDB70D
:101AC000DEB72A970FB6F894DEBF0FBECDBF7C01FC
:101AD000D12C03E013E06894772471F84E018CE078
:101AE000880E911C6894332434F8662463945E0154
:101AF000A9E0AA0EB11C0F2EF5E04F2EF02D689430
:101B0000552452F80EC0C62CD62C0BC0C62CD62C91
:101B100008C0C52CD62C05C0C42CD62C02C0C32CA2
:101B2000D62C80B38E3F29F48091FE02813009F4D7
:101B300015C180B38F3F29F48091FE02823009F4F1
:101B400019C1F80184859585CC9794F01586148683
:101B50008285938501968C3391051CF49387828747
:101B600007C01386128680859185019691878087AC
:101B7000D1104DC0C7010E94C401823090F2C7014C
:101B80000E9498018983C7010E9498018A839981E4
:101B9000913061F4813009F43FC0843009F453C0BE
:101BA000853009F48BC0803109F4AEC0462D662D16
:101BB0008DE593E00E94FF00C798579860E0809100
:101BC0008603909187030E949D03DC01ED91FC91B7
:101BD0000084F185E02D0995C7010E94CF0160E0E6
:101BE00080918603909187030E949D03DC01ED9113
:101BF000FC910284F385E02D0995579A45E050E069
:101C00006DE573E0C7010E945C01C79A8ACFB1E01D
:101C1000DB1287CFCB1214C0C7010E94C4018630EB
:101C200008F471CF6E01E3E0CE0ED11CC7010E9413
:101C30009801D6018D936D01AA16BB06B9F766CF40
:101C4000B4E0CB1238C0C7010E94C401863008F44A
:101C500060CF6E01E3E0CE0ED11CC7010E94980157
:101C6000D6018D936D01AA16BB06B9F78C8190E061
:101C7000879784F0472D662D8DE593E00E94FF0045
:101C800045E050E06DE573E0C7010E945C01C52CA2
:101C9000D62C47CFA8016DE673E0CE0101960E94D5
:101CA000820047E050E06DE673E0C7010E945C01EE
:101CB000C52CD12C36CFB5E0CB1223C0C7010E9472
:101CC000C401863008F428CF6E01E3E0CE0ED11CAB
:101CD000C7010E949801D6018D936D01AA16BB061B
:101CE000B9F764E773E0CE0101960E94A30048E0D3
:101CF00050E064E773E0C7010E945C01C42CD12C62
:101D000010CFB0E1CB120DCFC7010E94C4018930C2
:101D100008F405CF6E01E3E0CE0ED11CC7010E948E
:101D20009801D6018D936D018A169B06B9F7A8011B
:101D300062E673E0CE0101960E94BC0065E573E0A7
:101D4000CE0101960E94E60048E050E065E573E0B0
:101D5000C7010E945C01C32CD12CE3CEF80186811F
:101D600097810196978386837092FE0280B38F3F9E
:101D700009F0E7CE84E190E00E947B171092FE020A
:101D8000E0CE80917C0390917D030E943701C59A3B
:101D9000089580917E0390917F030E943701C69A37
:101DA00008954BE559E064E170E080E00C94EA01AD
:101DB0000895CF93DF9380E190E00E944603EC0109
:101DC0000E941303D0938703C093860382E090E0C0
:101DD0000E94FE02EC010E94CE02D0938503C093C4
:101DE000840388E090E00E945805EC010E944405BD
:101DF00040E0BE0180918603909187030E943D03DD
:101E000088E090E00E94B504EC010E94A10441E04A
:101E1000BE0180918603909187030E943D0382E07A
:101E200090E00E947D04EC010E94770442E0BE0134
:101E300080918603909187030E943D0382E090E0A9
:101E40000E9410032BE131E0FC013183208343E049
:101E5000BC0180918603909187030E943D0360E05E
:101E600080918603909187030E94710361E08091C5
:101E70008603909187030E94710362E0809186033C
:101E8000909187030E94710363E080918603909193
:101E900087030E9471034CE851E060E08091860363
:101EA000909187030E945D0342EB51E061E08091D5
:101EB0008603909187030E945D03DF91CF9108957F
:101EC000CF92DF92EF92FF920F93CF93DF9380E058
:101ED00090E00E94B81DD82E90E090934403809328
:101EE000430381E090E00E94B81DD82F90E09093CA
:101EF00046038093450382E090E00E94B81DC82FFE
:101F000090E0909348038093470383E090E00E9421
:101F1000B81D282F30E030934A0320934903EFEF98
:101F2000F2E0D082D183C2838383F89442DF41EC14
:101F30005EE060E080918603909187030E948303B6
:101F400049EC5EE061E080918603909187030E94F6
:101F5000830341E559E062E0809186039091870315
:101F60000E94830341ED5EE063E0809186039091DF
:101F700087030E94830388E890E00E9434016C018B
:101F8000609186037091870340E00E940F01C114A5
:101F9000D10421F481E090E00E94D11D88E890E016
:101FA0000E943401EC01609186037091870341E047
:101FB0000E940F01209721F481E090E00E94D11D42
:101FC000ECE7F3E0D182C082D383C2830E94DA01BE
:101FD0007894E12CF12C02E096014EE551E069ED98
:101FE00071E08DE59DE02BD59E014EE551E06FED52
:101FF00071E082EA9CE023D520E030E044EF51E03C
:1020000065EE71E083E699E01AD517D680E090E09E
:10201000DF91CF910F91FF90EF90DF90CF900895D7
:102020000895CF93DF93EC0130D68091880390918F
:102030008903892B31F48DE893E090938903809391
:10204000880320918A0330918B03C9018C0F9D1F57
:102050008B3F48E0940770F42817390770F4C0915B
:102060008803D0918903C20FD31F90938B03809371
:102070008A0305C0C0E0D0E002C0C0E0D0E0C2D614
:10208000CE01DF91CF9108950895FC0103969283CC
:1020900081832FEF3FEF348323839683858390875B
:1020A000878310820895FC01118610860895CF93CE
:1020B000DF939C01FB01DC011196CD91DC9112971D
:1020C000D383C2838C819D81958384838C819D8100
:1020D000DC0113967C936E9312977D836C8331871A
:1020E0002087F90180818F5F8083DF91CF910895F0
:1020F000CF93DF93EB01488159814F3F2FEF520778
:1021000021F4FC01A781B0850DC0DC01139601C04C
:10211000DF011296ED91FC911397208131814217D6
:102120005307B0F71296ED91FC911397FB83EA8366
:10213000D583C483BD83AC831396DC93CE9312976F
:1021400099878887FC0120812F5F2083DF91CF91C1
:102150000895CF93DF93FC01A085B185C281D3811F
:10216000848195819D838C83C481D5818281938173
:102170009B838A8311968D919C911297E817F9079A
:1021800031F48481958112969C938E9311971186D8
:1021900010868C9181508C93DF91CF91089531E11D
:1021A000FC013083319722E220833197A3E3A0839F
:1021B000319760833197708331971082319760E84F
:1021C000608331971082319762E06083319763E0DA
:1021D0006083319764E06083319765E06083319775
:1021E00066E06083319767E06083319768E06083E1
:1021F000319769E06083319760E160833197308384
:10220000319732E13083319733E13083319734E1D4
:102210003083319735E13083319736E13083319720
:1022200037E13083319738E13083319739E13083BA
:10223000319730E23083319731E230833197208318
:10224000319723E220833197408331975083319730
:1022500026E22083319727E22083319728E22083EA
:10226000319729E22083319720E32083319721E3BE
:102270002083869708951BBC89EF8ABD8BE08EBDB5
:1022800087B7806187BFA091EC0CB091ED0CCD9128
:10229000CDBFDD91DEBFFF91EF91DF91CF91BF9177
:1022A000AF919F918F917F916F915F914F913F91EE
:1022B0002F911F910F91FF90EF90DF90CF90BF90E3
:1022C000AF909F908F907F906F905F904F903F90D6
:1022D0002F901F900F900FBE0F90089581E00895EA
:1022E0000F920FB6F8940F921F9211242F923F92E3
:1022F0004F925F926F927F928F929F92AF92BF9216
:10230000CF92DF92EF92FF920F931F932F933F9301
:102310004F935F936F937F938F939F93AF93BF93ED
:10232000CF93DF93EF93FF93A091EC0CB091ED0C62
:102330000DB60D920EB60D9225D6A091EC0CB09173
:10234000ED0CCD91CDBFDD91DEBFFF91EF91DF911F
:10235000CF91BF91AF919F918F917F916F915F913D
:102360004F913F912F911F910F91FF90EF90DF9030
:10237000CF90BF90AF909F908F907F906F905F9025
:102380004F903F902F901F900F900FBE0F90089589
:102390000F920FB6F8940F921F9211242F923F9232
:1023A0004F925F926F927F928F929F92AF92BF9265
:1023B000CF92DF92EF92FF920F931F932F933F9351
:1023C0004F935F936F937F938F939F93AF93BF933D
:1023D000CF93DF93EF93FF93A091EC0CB091ED0CB2
:1023E0000DB60D920EB60D9256D48111CBD5A0919B
:1023F000EC0CB091ED0CCD91CDBFDD91DEBFFF9126
:10240000EF91DF91CF91BF91AF919F918F917F918C
:102410006F915F914F913F912F911F910F91FF907D
:10242000EF90DF90CF90BF90AF909F908F907F9074
:102430006F905F904F903F902F901F900F900FBE26
:102440000F900895A5DF18950F931F93CF93DF93F7
:10245000EC01042F1A8D4C8D41110BC0888199819C
:10246000892B09F041C08A819B810BD71B821A827C
:1024700042C0011117C050E08C819D810E94D41A86
:102480002C8D8C819D81820F911D9D838C832A814F
:102490003B818217930750F1888199819D838C83BA
:1024A00080E029C050E08E819F810E94D41A8C8DDB
:1024B00090E09195819591092E813F81280F391FD8
:1024C0003F832E83488159812417350730F42A81B0
:1024D0003B81820F931F9F838E83023049F4112327
:1024E00049F0115080E007C080E005C080E003C0E3
:1024F00080E001C080E01F5F1A8FDF91CF911F91B4
:102500000F910895FC01448D4423A9F050E02681E9
:102510003781240F351F37832683828193812817C3
:10252000390720F08081918197838683CB01668172
:1025300077810C94D41A0895EF92FF920F931F9312
:10254000CF938C010FB6F8940F92FC01C68D1C1628
:102550009CF48189811106C00FC0F8018189811125
:1025600005C00AC07801F1E1EF0EF11CC7019AD550
:10257000811121D6C15089F78FEFF801868F0F9016
:102580000FBE0FB6F8940F92C58D1C169CF4808573
:10259000811106C00FC0F8018085811105C00AC0F5
:1025A0007801F8E0EF0EF11CC7017CD5811103D64C
:1025B000C15089F78FEFF801858F0F900FBECF9133
:1025C0001F910F91FF90EF900895CF93DF93EC014F
:1025D0000FB6F8940F92488159812C8D30E07B8D95
:1025E000729FC001739F900D1124FA01E80FF91F2B
:1025F000FB83EA831A8E5D834C83821B930B840FCB
:10260000951F9F838E838FEF8D8F8E8F61110AC0F0
:102610008885882369F0CE01089644D5882341F047
:102620005FDE06C0CE01089630DDCE0141962DDD7D
:102630000F900FBE81E0DF91CF9108950F931F930C
:10264000CF93DF93082F162F6623B1F0869FC0012A
:1026500011244F96E6DCEC01009739F413C00B8F80
:102660001C8F61E0CE01B1DF0DC04F969983888346
:10267000F6CFD983C883F3CF8FE190E0D2DCEC01B1
:10268000892BB9F7CE01DF91CF911F910F9108955A
:102690009F92AF92BF92CF92DF92EF92FF920F93F1
:1026A0001F93CF93DF9300D000D01F92CDB7DEB73A
:1026B0008C016B015D834C83A22EB12C99249394E1
:1026C0007C0188E0E80EF11C0FB6F8940F92F80137
:1026D000928D838D981718F0F2E0AF1215C04A2D35
:1026E000B601C801B1DEF8019189992339F0C8011A
:1026F0004196D8D4882321F0F3DD02C08111F0DDAA
:102700000F900FBE81E045C08C819D81892B21F403
:102710000F900FBE80E03DC0B11004C0CE01019605
:1027200007D5B92C0F900FBEB0D20FB6F8940F9208
:10273000F801858D8F3F09F4158EF801868D8F3F46
:1027400009F4168E0F900FBEBE016C5F7F4FCE0155
:102750000196F9D4811119C00FB6F8940F92F801BF
:10276000928D0F900FBE838D98130BC06C817D816D
:10277000C70188D4C801E0DE45D38111A5CFB0DD03
:10278000A3CFC801D9DE3ED39FCFC801D5DE3AD34F
:1027900080E00F900F900F900F900F90DF91CF91EE
:1027A0001F910F91FF90EF90DF90CF90BF90AF906F
:1027B0009F900895CF93DF93482F60E081E03EDF44
:1027C000EC01009759F01B821A82198218821E822E
:1027D00020E040E050E060E070E05ADFCE01DF91A1
:1027E000CF9108958F929F92AF92BF92CF92DF9236
:1027F000EF92FF920F931F93CF93DF9300D000D0FF
:102800001F92CDB7DEB78C015B015D834C83822EB6
:10281000E12C992493946C0181E1C80ED11C0FB670
:10282000F8940F92F801F28CFF2061F1C680D780F6
:10283000B501C80167DE811016C0FA94F801F28E66
:1028400080819181892B21F45CD5F8019383828367
:10285000F8018085882391F0C801089623D4882345
:1028600069F03EDD0BC0F801D782C68281898823DA
:1028700029F0C801419616D4811132DD0F900FBEA8
:1028800081E058C08C819D81892B21F40F900FBE6F
:1028900080E050C0E11004C0CE01019649D4E92C7B
:1028A0000F900FBEF2D10FB6F8940F92F801858DFC
:1028B0008F3F09F4158EF801868D8F3F09F4168E2F
:1028C0000F900FBEBE016C5F7F4FCE0101963BD4CF
:1028D000811124C00FB6F8940F92F801828D0F90E9
:1028E0000FBE811117C080819181892B41F40FB6F1
:1028F000F8940F928281938162D40F900FBE6C8105
:102900007D81C601BFD3C80117DE7CD2811187CF7C
:10291000E7DC85CFC80110DE75D281CFC8010CDE9F
:1029200071D20FB6F8940F92F801828D0F900FBEFE
:10293000811175CF0F900F900F900F900F90DF9136
:10294000CF911F910F91FF90EF90DF90CF90BF90AC
:10295000AF909F908F900895E091B40CF091B50CDA
:102960008081811107C08FEF9FEF90938C0C809333
:102970008B0C0895E091B40CF091B50C0580F681B4
:10298000E02D0680F781E02D8281938190938C0C5D
:1029900080938B0C0895FF920F931F93CF93DF9337
:1029A000EC01F62E0091930C1091940C8091EC0C9C
:1029B0009091ED0C0296CDDBCF3F8FEFD80761F4FD
:1029C000FF2051F06091EC0C7091ED0C6E5F7F4F29
:1029D00086E99CE06CDB2DC0C00FD11FE091EC0CB0
:1029E000F091ED0CD383C283C017D10760F46091DE
:1029F000EC0C7091ED0C8091B20C9091B30C6E5F69
:102A00007F4F76DB16C06091EC0C7091ED0C8091DD
:102A1000B40C9091B50C6E5F7F4F6ADB80918B0C8C
:102A200090918C0CC817D90720F4D0938C0CC093CC
:102A30008B0CDF91CF911F910F91FF9008954F92D2
:102A40005F926F927F928F929F92AF92BF92CF923E
:102A5000DF92EF92FF920F93CF93DF934C016B01C4
:102A60005A012901CA01DDDA3C01892B09F4D4C0DD
:102A700088E290E0D6DAEC01892B71F0788E6F8ACB
:102A800081E0A81AB1086A0C7B1CD6018C91898F51
:102A90008C91811104C017C0C301F6DABDC0AE012C
:102AA000465E5F4FF6013196B8E0CB0ED11CCF01E8
:102AB0002191DA012D93AD01DC018C91882319F06D
:102AC000EC15FD05A1F718A2043008F003E00E8B09
:102AD00009A31AA26E01B2E0CB0ED11CC601E3DA43
:102AE000CE010C96E0DAD987C88784E090E0801B9D
:102AF00091099D878C87DB8BCA8B1BA21CA21DA210
:102B00001EA21FA2A201B401C30149DB99838883DD
:102B1000E114F10419F0F701D183C0830FB6F894E2
:102B20000F928091950C8F5F8093950C8091EC0CA7
:102B30009091ED0C892B89F5D093ED0CC093EC0CA2
:102B40008091950C813009F038C088EC9CE09DDACA
:102B500081ED9CE09ADA8AED9CE097DA83EE9CE0C6
:102B600094DA8FEB9CE091DA86EB9CE08EDA89EACE
:102B70009CE08BDA80EA9CE088DA86E99CE085DAE2
:102B80008FEB9CE09093B50C8093B40C86EB9CE0AB
:102B90009093B30C8093B20C10C08091910C811172
:102BA0000CC0E091EC0CF091ED0C96898E898917A0
:102BB00020F0D093ED0CC093EC0C80918D0C8F5FC6
:102BC00080938D0C8E899091920C981710F48093BD
:102BD000920C90E09C01220F331F220F331F220F13
:102BE000331F820F931FB6018853934F60DA0F9003
:102BF0000FBE8091910C882359F0E091EC0CF0917C
:102C0000ED0C96898E89981728F46ADB81E005C05F
:102C100081E003C081E001C08FEFDF91CF910F9180
:102C2000FF90EF90DF90CF90BF90AF909F908F90EC
:102C30007F906F905F904F900895EF92FF920F9367
:102C40000F2EF9E8EF2EFCE0FF2EF02D00E020E043
:102C500030E045E550E06BEE71E08BE897E1EFDEA8
:102C6000813079F4F8948FEF9FEF90938C0C8093E0
:102C70008B0C81E08093910C1092940C1092930C29
:102C8000FADA0F91FF90EF9008958091880C8F5F92
:102C90008093880C0895CF92DF92EF92FF920F936A
:102CA0001F93CF93DF938091880C811195C0E090A2
:102CB000930CF090940C8FEFE81AF80AF092940CB1
:102CC000E092930CE114F104B1F48091B40C909172
:102CD000B50C2091B20C3091B30C3093B50C20930D
:102CE000B40C9093B30C8093B20C80918E0C8F5FD8
:102CF00080938E0C31DE80918B0C90918C0CE816B9
:102D0000F90610F4D12C50C0D12CCC24C394E091FE
:102D1000B40CF091B50C8081811107C08FEF9FEF4B
:102D200090938C0C80938B0C3FC0E091B40CF0918D
:102D3000B50C0580F681E02DC681D7818A819B8103
:102D4000E816F90628F490938C0C80938B0C2CC019
:102D50008E010E5F1F4FC801FCD98C899D89892B7C
:102D600019F0CE010C96F5D98E899091920C981796
:102D700010F48093920C90E09C01220F331F220FDD
:102D8000331F220F331F820F931FB8018853934FB5
:102D90008ED9E091EC0CF091ED0C9E898689981704
:102DA00008F4B5CFDC2CB3CFE091EC0CF091ED0C36
:102DB000868990E0FC01EE0FFF1FEE0FFF1FEE0F64
:102DC000FF1F8E0F9F1FFC01E853F34F808182305D
:102DD00048F0DD24D39406C08091900C8F5F8093DF
:102DE000900CD12C80918F0C882311F0DD24D3948A
:102DF0008D2DDF91CF911F910F91FF90EF90DF907C
:102E0000CF900895DF92EF92FF920F931F93CF938D
:102E1000DF930FB6F8940F928091880C81508093C5
:102E2000880C8091880C811159C08091950C81117A
:102E300030C057C0D7011596ED91FC911697C68109
:102E4000D781CE010C9685D98E010E5F1F4FC80128
:102E500080D98E899091920C981710F48093920CDF
:102E600090E09C01220F331F220F331F220F331FCC
:102E7000820F931FB8018853934F19D9E091EC0C3E
:102E8000F091ED0C9E898689981768F0D0928F0C8E
:102E90000AC0C0E0D0E00F2EF9EAEF2EFCE0FF2ED2
:102EA000F02DDD24D394F70180818111C3CFCD2B88
:102EB00009F052DDC091900CCC2349F0D1E0EBDE5B
:102EC0008111D0938F0CC150D1F71092900C80914A
:102ED0008F0C882329F004DA81E003C080E001C070
:102EE00080E00F900FBEDF91CF911F910F91FF9067
:102EF000EF90DF900895CF93DF93EC01892B39F0A9
:102F0000C4DE60E0CE0147DD7DDF811101C0E8D97C
:102F1000DF91CF91089500EA1CE00F2EF8ECEF2E20
:102F2000FCE0FF2EF02D24C0B0DED801CC916ADF8A
:102F3000CC23F1F00FB6F8940F92D8011596ED91CD
:102F4000FC911697C681D781CE01029602D9809155
:102F5000950C81508093950C80919F0C81508093AB
:102F60009F0C0F900FBE8F89988D8ED8CE018CD874
:102F700080919F0C8111D8CFF70180818230C0F3FE
:102F8000AFD9F6CF8091880C882321F081E080931F
:102F90008F0C089510928F0CA091EC0CB091ED0C59
:102FA000E091EC0CF091ED0C2D913C918789908D86
:102FB0008217930758F06091EC0C7091ED0C8091A2
:102FC000EC0C9091ED0C675E7F4F2AD82091920C0B
:102FD000822F90E0FC01EE0FFF1FEE0FFF1FEE0FA0
:102FE000FF1FE80FF91FE853F34F3081311111C073
:102FF0002150822F90E0FC01EE0FFF1FEE0FFF1F0C
:10300000EE0FFF1FE80FF91FE853F34F3081332312
:1030100079F3AC01440F551F440F551F440F551F42
:10302000480F591FDA01A853B34F1196ED91FC9147
:1030300012970280F381E02D1296FC93EE93119784
:103040004553534FE417F50729F442815381FD019D
:1030500052834183FC01EE0FFF1FEE0FFF1FEE0FA7
:10306000FF1F8E0F9F1FFC01E853F34F0180F28179
:10307000E02D868197819093ED0C8093EC0C20934A
:10308000920C0895CF93DF93EB016091EC0C70915B
:10309000ED0C645F7F4F2CD861E0CE017CDCDF91CA
:1030A000CF9108950F931F93CF93DF93DC01159673
:1030B000ED91FC911697C681D7818E01045F1F4F59
:1030C000C80147D88091880C81111BC00A50110992
:1030D000C8013FD88E899091920C981710F4809374
:1030E000920C90E09C01220F331F220F331F220FFE
:1030F000331F820F931FB8018853934F0E945710BC
:1031000005C0B80189EA9CE00E945710E091EC0CE0
:10311000F091ED0C9E898689891720F481E08093D7
:103120008F0C01C080E0DF91CF911F910F91089526
:1031300020918E0CFC0120832091930C3091940CF3
:103140003283218308950FB6F8940F924091930C27
:103150005091940CDB012D913C912F3FBFEF3B0729
:1031600011F1E0918E0CDC01FC91FE1739F0119603
:10317000ED91FC9112974E175F07B8F4DC011196A0
:10318000ED91FC911297DA01AE1BBF0BA217B307AA
:1031900070F4DB01E41BF50B2E0F3F1F2D933C93C6
:1031A000C7DF80E005C080E003C081E001C081E0AE
:1031B0000F900FBE089581E080938F0C08950F93B8
:1031C0001F93CF93DF93FC01892B09F455C0268907
:1031D000A091EC0CB091ED0C56968C91281708F04C
:1031E0004BC084859585992364F0A091EC0CB09137
:1031F000ED0C56963C9184E090E0831B91099587F5
:10320000848730E0C901880F991F880F991F880FA4
:10321000991F280F391F2853334F828593858217B2
:10322000930719F58F01EF012296CE010E94A91094
:10323000E091EC0CF091ED0C8689F801868B909171
:10324000920C981710F48093920C90E09C01220F3E
:10325000331F220F331F220F331F820F931FBE0114
:103260008853934F0E94571007C0A091EC0CB09167
:10327000ED0C56968C91868BDF91CF911F910F911B
:1032800008950F931F93CF93DF93FC01892B79F15E
:1032900082A1815082A3268991A1291751F1811120
:1032A0002AC0EF018F010E5F1F4FC8010E94A910B5
:1032B00089A18E8B24E030E0281B31093D872C87C3
:1032C0009091920C981710F48093920C90E09C01CE
:1032D000220F331F220F331F220F331F820F931F22
:1032E000B8018853934F0E94571081E005C080E0D9
:1032F00003C080E001C080E0DF91CF911F910F916A
:1033000008958091EC0C9091ED0C892B39F0E091AF
:10331000EC0CF091ED0C82A18F5F82A38091EC0CFC
:103320009091ED0C08955058BB27AA270ED0E0C00D
:10333000D1D030F0D6D020F031F49F3F11F41EF4FC
:10334000C6C00EF4E095E7FBBCC0E92FE2D080F3E5
:10335000BA17620773078407950718F071F49EF592
:10336000FAC00EF4E0950B2EBA2FA02D0B01B90177
:1033700090010C01CA01A0011124FF27591B99F0EB
:10338000593F50F4503E68F11A16F040A22F232FF7
:10339000342F4427585FF3CF469537952795A79547
:1033A000F0405395C9F77EF41F16BA0B620B730BEE
:1033B000840BBAF09150A1F0FF0FBB1F661F771F5F
:1033C000881FC2F70EC0BA0F621F731F841F48F414
:1033D000879577956795B795F7959E3F08F0B3CF9A
:1033E0009395880F08F09927EE0F97958795089584
:1033F00098D088F09F5790F0B92F9927B751A0F037
:10340000D1F0660F771F881F991F1AF0BA95C9F778
:1034100012C0B13081F09FD0B1E008959CC0672FF9
:10342000782F8827B85F39F0B93FCCF38695779528
:103430006795B395D9F73EF4909580957095619511
:103440007F4F8F4F9F4F0895E89409C097FB3EF43C
:1034500090958095709561957F4F8F4F9F4F9923E1
:10346000A9F0F92F96E9BB279395F695879577955F
:103470006795B795F111F8CFFAF4BB0F11F460FF1F
:103480001BC06F5F7F4F8F4F9F4F16C0882311F077
:1034900096E911C0772321F09EE8872F762F05C08B
:1034A000662371F096E8862F70E060E02AF09A9526
:1034B000660F771F881FDAF7880F9695879597F91B
:1034C000089597F99F6780E870E060E008959FEFA6
:1034D00080EC089500240A941616170618060906AB
:1034E000089500240A94121613061406050608957A
:1034F000092E0394000C11F4882352F0BB0F40F402
:10350000BF2B11F460FF04C06F5F7F4F8F4F9F4F41
:10351000089557FD9058440F551F59F05F3F71F0C3
:103520004795880F97FB991F61F09F3F79F087952A
:103530000895121613061406551FF2CF4695F1DFB3
:1035400008C0161617061806991FF1CF8695710543
:10355000610508940895E894BB2766277727CB0177
:1035600097F90895A1E21A2EAA1BBB1BFD010DC0FD
:10357000AA1FBB1FEE1FFF1FA217B307E407F50723
:1035800020F0A21BB30BE40BF50B661F771F881FFF
:10359000991F1A9469F760957095809590959B0195
:1035A000AC01BD01CF010895FB01DC0102C0019017
:1035B0000D9241505040D8F708950F931F93CF9329
:1035C000DF93CDB7DEB72E970FB6F894DEBF0FBEF0
:1035D000CDBF0D891E8986E08C831A8309838FEF06
:1035E0009FE79E838D83AE01475E5F4F6F89788D25
:1035F000CE01019610D0EF81F885E00FF11F108207
:103600002E960FB6F894DEBF0FBECDBFDF91CF91DF
:103610001F910F9108952F923F924F925F926F9258
:103620007F928F929F92AF92BF92CF92DF92EF9252
:10363000FF920F931F93CF93DF93CDB7DEB72B97F6
:103640000FB6F894DEBF0FBECDBF6C017B018A01BF
:10365000FC0117821682838181FFBFC1CE010196D2
:103660003C01F6019381F70193FD859193FF8191D0
:103670007F01882309F4ADC1853239F493FD85912A
:1036800093FF81917F01853221F4B60190E0D6D17C
:10369000E8CF912C212C312CFFE1F315D8F08B329F
:1036A00079F038F4803279F08332A1F4232D20614F
:1036B0001DC08D3261F0803369F4232D216016C066
:1036C000832D8260382EE32DE4603E2E2AC0F32D38
:1036D000F8601DC037FC2DC020ED280F2A3040F0C7
:1036E0008E32B9F436FC75C1232D2064322E19C0F8
:1036F00036FE06C08AE0989E200D1124922E11C03D
:10370000EAE02E9E200D1124222EF32DF0623F2E92
:1037100008C08C3621F4832D8068382E02C088368C
:1037200041F4F70193FD859193FF81917F01811110
:10373000B3CF982F9F7D9554933028F40C5F1F4F83
:103740009FE399830DC0833631F0833771F0833561
:1037500009F055C020C0F801808189830E5F1F4F9A
:1037600088248394912C530112C02801F2E04F0E5B
:10377000511CF801A080B18036FE03C0692D70E0B5
:1037800002C06FEF7FEFC5014ED14C018201F32DD6
:10379000FF773F2E15C0280122E0420E511CF80190
:1037A000A080B18036FE03C0692D70E002C06FEFCB
:1037B0007FEFC5012DD14C01F32DF0683F2E820122
:1037C00033FC19C0822D90E088169906A0F4B6014A
:1037D00080E290E033D12A94F5CFF50137FC859152
:1037E00037FE81915F01B60190E028D121102A9423
:1037F00021E0821A91088114910479F7E1C084369E
:1038000011F0893639F5F80137FE07C06081718102
:10381000828193810C5F1F4F08C060817181072EE8
:10382000000C880B990B0E5F1F4FF32DFF763F2E78
:1038300097FF09C090958095709561957F4F8F4F48
:103840009F4FF0683F2E2AE030E0A30133D1882E4D
:10385000861844C0853731F4232D2F7EB22E2AE0FE
:1038600030E025C0932D997FB92E8F36C1F018F422
:10387000883579F0AEC0803719F0883721F0A9C0BB
:10388000E92FE061BE2EB4FE0DC0FB2DF460BF2E0B
:1038900009C034FE0AC0292F2660B22E06C028E0D7
:1038A00030E005C020E130E002C020E132E0F80164
:1038B000B7FE07C060817181828193810C5F1F4FC9
:1038C00006C06081718180E090E00E5F1F4FA30110
:1038D000F1D0882E8618FB2DFF773F2E36FE0DC0C7
:1038E000232D2E7FA22E891458F434FE0BC032FCF7
:1038F00009C0832D8E7EA82E05C0B82CA32C03C032
:10390000B82C01C0B92CA4FE0FC0FE01E80DF11DBA
:103910008081803321F49A2D997EA92E09C0A2FEC0
:1039200006C0B394B39404C08A2D867809F0B3948A
:10393000A3FC10C0A0FE06C0B21480F4280C922C88
:103940009B180DC0B21458F4B60180E290E076D016
:10395000B394F8CFB21418F42B1802C0982C212C71
:10396000A4FE0FC0B60180E390E068D0A2FE16C0AE
:10397000A1FC03C088E790E002C088E590E0B601B2
:103980000CC08A2D867851F0A1FE02C08BE201C0E6
:1039900080E2A7FC8DE2B60190E050D0891430F4AB
:1039A000B60180E390E04AD09A94F8CF8A94F3016C
:1039B000E80DF11D8081B60190E040D08110F6CF76
:1039C000222009F44ECEB60180E290E037D02A944E
:1039D000F7CFF6018681978102C08FEF9FEF2B967C
:1039E0000FB6F894DEBF0FBECDBFDF91CF911F9110
:1039F0000F91FF90EF90DF90CF90BF90AF909F908E
:103A00008F907F906F905F904F903F902F90089590
:103A1000FC010590615070400110D8F78095909599
:103A20008E0F9F1F0895FC0161507040019001109E
:103A3000D8F7809590958E0F9F1F08950F931F9331
:103A4000CF93DF93FB01238121FD03C08FEF9FEF15
:103A50002CC022FF16C04681578124813581421730
:103A6000530744F4A081B1819D012F5F3F4F318303
:103A700020838C93268137812F5F3F4F37832683A6
:103A800014C08B01EC01FB010084F185E02D099548
:103A9000892BE1F6D80116968D919C911797019686
:103AA00017969C938E931697CE01DF91CF911F911D
:103AB0000F910895FA01AA27283051F1203181F1A0
:103AC000E8946F936E7F6E5F7F4F8F4F9F4FAF4F26
:103AD000B1E03ED0B4E03CD0670F781F891F9A1F39
:103AE000A11D680F791F8A1F911DA11D6A0F711DED
:103AF000811D911DA11D20D009F468943F912AE0F9
:103B0000269F11243019305D3193DEF6CF010895E0
:103B1000462F4770405D4193B3E00FD0C9F7F6CF11
:103B2000462F4F70405D4A3318F0495D31FD4052D9
:103B3000419302D0A9F7EACFB4E0A695979587956F
:103B400077956795BA95C9F700976105710508954E
:103B50009B01AC010A2E06945795479537952795FA
:103B6000BA95C9F7620F731F841F951FA01D089592
:103B7000E199FECF9FBB8EBBE09A99278DB3089544
:103B8000262FE199FECF9FBB8EBBE09A01970DB225
:103B9000021631F02DBB0FB6F894E29AE19A0FBEEF
:063BA0000895F894FFCF28
:103BA6005054555810002400000000BB0251029CDE
:103BB600025402550256020000000001035102534E
:103BC60002540255025602000000006704510253D7
:103BD60002540255025602000000008004510208F9
:103BE60005DC04550256020000000027055102A715
:103BF600057B05550256024950203A002564002EE1
:103C0600004D41433A00257800202053656E736FBE
:103C1600722047617465776179002020424C5545D2
:103C26002D42495A2E434F2E4C544400556172740E
:103C360020496E6974205355434345535320626FA0
:103C46006164726174652039363030627073200D9C
:103C56000A00525334383520496E6974205355434F
:103C66004345535320626F6164726174652039362F
:103C76003030627073200D0A005461736B3100544A
:103C860061736B32005461736B330049444C4500D9
:00000001FF
