:1000000047C000006FC000006DC000006BC0000062
:1000100069C0000067C0000065C0000063C0000048
:1000200061C000005FC000005DC000005BC0000058
:100030000C941B0D57C0000055C0000053C00000B9
:1000400051C000004FC000005AC200004BC0000069
:1000500049C0000047C0000045C0000043C0000088
:1000600041C000003FC000003DC000003BC0000098
:10007000A7C2000037C0000072C2000033C00000F9
:1000800031C000002FC000002DC000002B032F0343
:1000900011241FBECFEFD0E1DEBFCDBF11E0A0E045
:1000A000B1E0EEE4F9E200E00BBF02C007900D9270
:1000B000A439B107D9F72DE0A4E9B1E001C01D9240
:1000C000A13AB207E1F710E0C7E4D0E004C02197FD
:1000D000FE010E948914C634D107C9F70E94920A12
:1000E0000C949B148DCFFC01680F791F8FEF9FEF4D
:1000F000E617F70799F02191822728E030E0AC015C
:100100004170552796958795452B21F041E084272E
:1001100040EA94272150310991F7EACF0895CF930F
:10012000DF93DC01EB018C91888311968C91119700
:10013000898313968C9192E09A83E82FF0E0EE0F7A
:10014000FF1FE40FF51F81818B8380818C8365E025
:1001500070E0CE01C8DF9E838D83DF91CF9108953B
:10016000CF93DF93FC01EB018081888381818983B8
:1001700082818A8383818B8384818C8385818D8333
:1001800066E070E0CE01AFDF9F838E83DF91CF9179
:100190000895CF93DF93FC01EB01808188838181F7
:1001A000898382818A8383818B8394819C839581D7
:1001B0009D8396819E8327812F8390859887E82F42
:1001C000F0E0EE0FFF1FE40FF51F892F90E0922B58
:1001D0009183808369E070E0CE0185DF9A8789870B
:1001E000DF91CF910895CF93DF93FC01EB018081E4
:1001F00088838181898382818A8383818B838481BF
:100200008C8385818D8366E070E0CE016CDF9F83F7
:100210008E83DF91CF910895CF93DF93EC016883B4
:1002200081E889834A8363E070E0CE015CDF9C83D0
:100230008B83DF91CF9108951F93CF93DF93EC01D0
:10024000CB01142FFE01EA57FF4F71836083642FA7
:1002500040D1882371F0FE01EB57FF4F1083319797
:100260001082349711821082CE57DF4F1982188284
:1002700004C0CA57DF4F19821882DF91CF911F91B6
:1002800008950C940A0B0895FC01E058FF4F20815B
:100290002F5F2F7719F41182108221E030E0FC01EA
:1002A000EE57FF4F408151812417350789F0DC015B
:1002B000A058BF4FED91FC911197E80FF91F618392
:1002C0002D933C93FC01EC57FF4F80818F5F80831F
:1002D0000895AF92BF92CF92DF92EF92FF920F9369
:1002E0001F93CF938C016B017A01DC01AB57BF4F99
:1002F000FC01EA57FF4F6C9180819181F7D0892BE7
:10030000D1F01E141F04BCF4C0E0580185E8A80E0B
:10031000B11C0A571F4FF601EC0FF11D4081F5018A
:100320006081F801808191818DD0CF5F2C2F30E0EA
:100330002E153F0584F3CF911F910F91FF90EF9001
:10034000DF90CF90BF90AF900895FC01EE57FF4F24
:100350002081318132974081518142175307E9F062
:100360002F5F3F4FFC01E20FF31F40812F773327B0
:10037000FC01EE57FF4F318320833296608170E09D
:100380002617370761F43297118210823297118253
:10039000108234961082842F08958FEF0895842F51
:1003A0000895DC01A058BF4FFC01EE57FF4F8C9120
:1003B0009081891B8F770895FC01EE57FF4F1182C2
:1003C000108232971182108234961082089526E0AE
:1003D000DC01E22F1D92EA95E9F7FC013696DF0178
:1003E0001D922A95E9F790939501809394010895C1
:1003F00010929501109294010895CF93DF9380910C
:10040000940190919501892B51F48CE090E00E9429
:100410000A0BEC01DCDFD0939501C093940180912D
:10042000940190919501DF91CF91089550E0440F90
:10043000551F840F951FFC017183608308950C94F0
:100440000A0B0895262F30E0220F331F820F931FCF
:10045000DC018D919C91009741F0642FDC01ED91BE
:10046000FC910680F781E02D09950895262F30E054
:10047000220F331F820F931FDC018D919C910097F7
:1004800041F0BA01DC01ED91FC910480F581E02D91
:100490000995089570E0660F771F860F971FDC019E
:1004A0008D919C91009739F0DC01ED91FC910190C8
:1004B000F081E02D09950895E62FF0E0EE0FFF1F83
:1004C000E80FF91F80819181892B11F057834683B2
:1004D000089570E0660F771FFC01E60FF71F81E0BB
:1004E00020813181232B09F480E0089570E0660FAC
:1004F000771F860F971FFC018081918108951F92BD
:100500000F920FB60F9211240BB60F922F933F93B9
:100510004F935F936F937F938F939F93AF93BF930B
:10052000EF93FF936ADF6CB170E0DC011696ED91FA
:10053000FC91179780E00995FF91EF91BF91AF91E2
:100540009F918F917F916F915F914F913F912F91EB
:100550000F900BBE0F900FBE0F901F9018951F921B
:100560000F920FB60F9211240BB60F922F933F9359
:100570004F935F936F937F938F939F93AF93BF93AB
:10058000EF93FF933ADF60919C0070E0DC011896D6
:10059000ED91FC91199781E00995FF91EF91BF9141
:1005A000AF919F918F917F916F915F914F913F910B
:1005B0002F910F900BBE0F900FBE0F901F901895AC
:1005C0001F920F920FB60F9211240BB60F922F931A
:1005D0003F934F935F936F937F938F939F93AF93CB
:1005E000BF93EF93FF9309DFDC011A96ED91FC9125
:1005F0001B9760E070E082E00995FF91EF91BF9159
:10060000AF919F918F917F916F915F914F913F91AA
:100610002F910F900BBE0F900FBE0F901F9018954B
:1006200008950895089580E480938B0084E080937A
:100630008A0088E09DE3909387008093860082E0A3
:1006400080937D0008952FE031E0FC013183208309
:100650000895E0C7089586E991E0B9CE089586E946
:1006600091E0C6CE0895CF93DF93EC0110929B00EA
:1006700088E980939A0086E080939D00109298000C
:1006800087E68093990081E00E94D00E9D838C8341
:1006900081E00E94D00E9B838A83DF91CF910895E1
:1006A0002BE131E0FC01318320832091A2013091C4
:1006B000A301232B21F49093A3018093A201089519
:1006C000A9C708951F93CF93DF93EC01162F20E065
:1006D00044E650E060E070E08A819B810E94E80E71
:1006E000813081F4EBE9F0E0808185FFFDCF10934C
:1006F0009C0020E040E050E060E070E08A819B8157
:100700000E943E0EDF91CF911F910895DBCF089597
:100710000F931F93CF93DF938C01EB0120E044E60E
:1007200050E060E070E0FC01848195810E94E80E59
:10073000813099F46881662331F02196C801C2DFC7
:1007400069916111FBCF20E040E050E060E070E093
:10075000F801848195810E943E0EDF91CF911F9117
:100760000F910895D5CF0895CF93DF93EC0188E9D9
:100770008AB986E080939500109290008FEC89B939
:1007800081E00E94D00E9D838C8381E00E94D00E78
:100790009B838A83DF91CF91089527E231E0FC01AA
:1007A000318320832091A4013091A501232B21F4D2
:1007B0009093A5018093A40108952CC708951F93D9
:1007C000CF93DF93EC01162F20E044E650E060E089
:1007D00070E08A819B810E94E80E813061F45D9B0C
:1007E000FECF1CB920E040E050E060E070E08A817C
:1007F0009B810E943E0EDF91CF911F910895DFCF24
:1008000008950F931F93CF93DF938C01EB0120E0AA
:1008100044E650E060E070E0FC01848195810E9434
:10082000E80E813099F46881662331F02196C80181
:10083000C6DF69916111FBCF20E040E050E060E04D
:1008400070E0F801848195810E943E0EDF91CF9186
:100850001F910F910895D5CF0895C098962F6F716D
:10086000862B8FB9779BFECF1FB8779BFECF99233E
:100870001CF41FB8779BFECFC09A8FB10895C09823
:100880006F71862B8FB9779BFECF4FB9779BFECFC9
:10089000C09A0895FB01C0982AE32FB9779BFECF39
:1008A000009761F0DF01A80FB91F1FB8779BFECF3B
:1008B0009FB19193AE17BF07C1F701C0DF011C9232
:1008C000C09A0895FB01C0982AE72FB9779BFECF05
:1008D000009761F09F01280F391F03C02E173F07B3
:1008E00029F091919FB9779BFECFF8CFC09A0895D8
:1008F0001F93CF93DF93182F1076C12FD0E08091F4
:10090000A80190E0C817D907A1F043E06FE180EAA1
:10091000B6DFAE0155954795559547955595479541
:1009200055954795559547956FE180E8A8DF109359
:10093000A801DF91CF911F910895CF93C82FD8DFE1
:100940006C2F80E08ADFCF910895CF93DF93C82F7B
:10095000D62FCEDF4D2F6C2F80E491DFDF91CF912A
:100960000895CF93DF93D62FC72F682F84EDEDDF47
:100970006D2F86EDEADF6C2F87EDE7DF8AEEDDDF96
:1009800080FF04C085E08A95F1F7F8CFDF91CF9121
:100990000895682F677085E7D8CF0895CF93DF93C8
:1009A000EC01B89AC09AA6D24FEF60E08FEF67DFF4
:1009B00082E390E0A9D21092A7011092A60160E014
:1009C00088E0C3DF60E089E0C0DF60E08CE0BDDF8D
:1009D00060E08DE0BADF6EEF8AE0B7DF69E18BE0BF
:1009E000B4DF6FEF84E0B1DF69E185E0AEDF6FEF88
:1009F00086E0ABDF6FE187E0A8DF60EB88E3A5DF8F
:100A00006FE388E2A2DF60E389E29FDF69EF80E3C2
:100A10009CDF67EF81E399DF6DE080EC96DF60E0BB
:100A200081EC93DF42E362EC80E829DF62E186EC4F
:100A30008CDF6CE087EC89DF62E184EC86DF6CEDB3
:100A40008AEC83DF65E08BEC80DF688184EE7DDFFC
:100A5000698185EE7ADF6A8182EE77DF6B8183EED2
:100A600074DF6C8180EE71DF6D8181EE6EDF60E09E
:100A700071E080E176DF8FE13BDF40EC6BE180E805
:100A8000FEDE44E06FE180E8FADEDF91CF91089569
:100A90000F931F93CF93DF93EC018B016FEF82E0F5
:100AA00054DF69E183E051DF6C2F615086E04DDF58
:100AB000CE018150964E692F87E047DF40E060E02D
:100AC0008AE7DDDEB801CE01FDDE48E06FE180E8B7
:100AD000D6DE8CE132DF81FF04C048E06FE180EABE
:100AE000CEDEDF91CF911F910F9108959F92AF922B
:100AF000BF92CF92DF92EF92FF920F931F93CF930B
:100B0000DF935C017B0189E318DF882309F445C08A
:100B10006091A601C091A70180E017DF6C2F81E0F2
:100B200014DF60E08AE399DEC82F60E08AE395DE97
:100B3000D0E0D82BD093A701C093A60160E08AE350
:100B40008CDE082F60E08AE388DE982E60E08AE37E
:100B500084DEC82E60E08AE380DEC7FE0FC081E03D
:100B6000A81AB10810E0192904501109A016B106FD
:100B700008F48501B701C8018DDE02C000E010E075
:100B80006C2F8CE0E2DE6D2F8DE0DFDE40E46EE165
:100B900080E875DE802F912F02C080E090E0DF9129
:100BA000CF911F910F91FF90EF90DF90CF90BF906A
:100BB000AF909F900895CF92DF92EF92FF92CF93E4
:100BC000DF93EC01DB01413061F46B0188E0C81A6E
:100BD000D108E12CF12C81E1C80ED11CE11CF11CE3
:100BE00011C0423061F46B0188E0C81AD108E12CD1
:100BF000F12C86E0C80ED11CE11CF11C03C0C12CF5
:100C0000D12C7601A230B105F0F09D01FE014081AA
:100C100050E060E070E0762F652F542F44278181EB
:100C2000482BC40ED51EE61EF71E329622503109FF
:100C30002230310560F7CD0102978E7F0296C80FF2
:100C4000D91FA170BB27AB2B61F0888190E0A0E099
:100C5000B0E0BA2FA92F982F8827C80ED91EEA1EF8
:100C6000FB1EA70166277727411551056105710510
:100C700071F0EE24FF24C40ED51EE61EF71EA70158
:100C800066277727411551056105710591F7C60162
:100C900080959095DF91CF91FF90EF90DF90CF906E
:100CA000089540930001A62FB72FE9EAF1E04DEA3D
:100CB00051E02D912193E417F507D9F7A82FB92F0B
:100CC000EDEAF1E023EB31E08D918193E217F30738
:100CD000D9F7089569327105C8F0FC0124852830E0
:100CE000B9F425852630B1F436A12091A90132133B
:100CF00013C0B796AAEAB1E08A9631912D913213CA
:100D00000DC0E817F907C9F781E0089580E008955C
:100D100080E0089580E0089580E0089580E00895DF
:100D2000CF93DF93FC016A327105E0F0848588304F
:100D3000D9F4858581111AC096859534C1F4268D24
:100D40009091A901291313C0DF015F96CAEAD1E08F
:100D5000B2962D91999129130AC0AE17BF07C9F712
:100D600081E005C080E003C080E001C080E0DF9149
:100D7000CF910895FC01ADEAB1E09C012A5F3F4F9D
:100D8000868181938D918583E217F307C9F70895D2
:100D9000CF93DF93EC01188E198E80E48C8B1D8A23
:100DA0008E8B40E064E170E0CE010E9604DF988FF8
:100DB000898FDF91CF910895AC01A9EAB1E0FC01E0
:100DC0007A962DEA31E0908194839D919193A217B8
:100DD000B307C9F7CA01DCCF0895CF93DF93EC01C5
:100DE000C9DF1C8A82E08D8BADEAB1E0FE01769608
:100DF00023EB31E0808182878D918193A217B30725
:100E0000C9F7A9EAB1E0FE017C962DEA31E08081C4
:100E100082878D918193A217B307C9F7BE018AE239
:100E200090E036DEDF91CF9108950F931F93CF931B
:100E3000DF93EC018B019EDFCE01BEDF1AA28CA1F5
:100E4000883F18F09DA19F5F9DA3885F8CA3BE0182
:100E5000C8011EDEDF91CF911F910F910895DF929F
:100E6000EF92FF920F931F93CF93DF93EC01D62E57
:100E7000E72E042F122FF32E7DDF0D3D08F00CED31
:100E8000188A8CE1800F898BCE0196DF8AA18CA312
:100E90008BA18DA3FAA21BA31EA288E0800F8FA3B3
:100EA00018A619A6002381F0AD2DBE2DFE01BA961D
:100EB0002FEF200F30E0255D3F4F2C0F3D1F9D9100
:100EC0009193E217F307D9F710E0B801605F7F4F05
:100ED00041E0CE014A966FDE98A789A7BE01C801FE
:100EE0008A96D6DDDF91CF911F910F91FF90EF9001
:100EF000DF90089587B3866087BBBB98C298C1987E
:100F000080E58DB9709A0895009741F0EFEBF0E01D
:100F10003197F1F700C000000197C1F70895E4ECA4
:100F2000F3E0848595850196958784870895CF930E
:100F3000DF93CDB7DEB76D970FB6F894DEBF0FBE67
:100F4000CDBF8FEF87BB88BB85E091E027DD82E0D6
:100F500020DD8AE090E00E94711266E774E084E18F
:100F600000DD84E190E00E94711240E561E071E0F3
:100F700085E091E096DE03EB11E00F2EF4ECEF2E0E
:100F8000F3E0FF2EF02D0F2EFDE19F2EF02DCE0170
:100F900001965C0163EC71E080E092E0A7DD6C01FA
:100FA000009709F45EC0BC0183EC91E093DE8823D6
:100FB00021F083EC91E011DFEDCFB60183EC91E0FD
:100FC000AFDE882339F38091DA01813049F48091D2
:100FD000E501883029F4B60183EC91E026DFDACF11
:100FE0008091ED018133E9F5F501892D11928A9502
:100FF000E9F74091EE01405350E04F5F5F4F4230C0
:1010000051050CF069C022C0FC01ED53FE4F33A521
:10101000FE01E80FF91F308320FD12C0E62FF0E03B
:10102000EE0FFF1FE852FC4FAFEFBFEFAC0FBD1F3D
:10103000A80FB91F8C9190E0932B918380836F5FF1
:101040002F5F822F90E084179507F4F2F70180A9B3
:1010500091A9918B808B95AF84AF91AF80AF97AB07
:1010600086AB88B3809588BBF70182819381F801B4
:1010700091838083F70186819781F801938382832E
:10108000F70184819581F80195838483F701808934
:101090009189F80197838683F70182899389F80102
:1010A00091878087F70184859585F80193878287EA
:1010B000F70182859385F80195878487F7018085FC
:1010C0009185F801978786872FE037E240E1B801E4
:1010D00083EC91E0C4DE5ECF8091EF01898321E053
:1010E00060E0AECFCF93DF93CDB7DEB72F970FB6CB
:1010F000F894DEBF0FBECDBF7C01FE0131968FE0BC
:10110000DF011D928A95E9F76E01B0E1CB0ED11C8B
:101110000F2EFAE98F2E912CF02D0F2EF4ECAF2E1E
:10112000F3E0BF2EF02D0F2EF3E06F2E712CF02D7B
:10113000C70137D98F30E0F38E010F5F1F4FC70112
:1011400004D9F80181938F01EC15FD05C1F7898160
:10115000823009F03FC0888590E0982F8827298544
:10116000822B90930B0480930A044A8550E0542FFD
:1011700044272B85422B50930904409308042C8567
:1011800030E0322F22276D85262B309307042093E1
:101190000604D50113965C934E93129717969C9371
:1011A0008E93169715963C932E93149750962D91E7
:1011B0003C9151978217930709F0BACF52968D91BF
:1011C0009C915397892B09F0B3CF53967C926E92E2
:1011D0005297AECF46E061E084E194E01DD845E04F
:1011E00050E064E174E0C70174D8F40180818F7726
:1011F0008083C701E1D8D4018C9180688C9398CF0B
:10120000CF93DF93CDB7DEB72A970FB6F894DEBF42
:101210000FBECDBF6C018FEF80936400B12C04EC46
:1012200013E02E018CE0480E511C0F2EF5E6EF2E38
:10123000F12CF02D77247A94672C212C33243394CD
:101240004E01E9E08E0E911C15C0A32CB32C12C0E8
:10125000A32CB32C0FC06894AA24A2F8B32C0AC004
:101260000F2EF5E0AF2EF02DB32C04C06894AA2405
:10127000A4F8B32CF80184859585CC979CF015864D
:1012800014868285938501968C3391051CF493878F
:10129000828708C0F80113861286808591850196A1
:1012A00091878087B1102CC0C6017BD8823010F3A3
:1012B000F7017082C60149D88983F70110827082D4
:1012C000C60143D88A83F70110828A818130E9F010
:1012D0008430A1F1853009F45DC0803109F486C005
:1012E000432D632D84E194E00E940C01C60164D873
:1012F00045E050E064E174E0C6010E946901BACFA4
:10130000F1E0BF12B7CFAF1216C0C6014AD886307F
:1013100008F49BCF5E0183E0A80EB11CF701608248
:10132000C60113D8F50181935F01F70110828A1479
:101330009B04A1F78DCFF4E0AF1229C0C60131D8CC
:10134000863008F488CF5E0183E0A80EB11CF70157
:101350006082C6010E94A501F50181935F01F7013A
:101360001082A814B90499F7A80164E274E0CE01D0
:1013700001960E948F0047E050E064E274E0C601ED
:101380000E9469016894AA24A2F8B22C73CFF5E0F8
:10139000AF1229C0C60105D8863008F461CF5E01BE
:1013A00083E0A80EB11CF7016082C6010E94A5016E
:1013B000F50181935F01F70110828A149B0499F76C
:1013C0006BE274E0CE0101960E94B00048E050E06C
:1013D0006BE274E0C6010E9469010F2EF5E0AF2EAA
:1013E000F02DB22C47CFF0E1AF1244CFC6010E94DE
:1013F000D101893008F43ACF5E0183E0A80EB11C18
:10140000F7016082C6010E94A501F50181935F0189
:10141000F70110824A145B0499F7A80169E174E0AE
:10142000CE0101960E94C9006CE074E0CE010196E5
:101430000E94F30048E050E06CE074E0C6010E94B6
:1014400069016894AA24A4F8B22C14CF80913304C3
:10145000909134040C944401089580913504909146
:1014600036040C9444010895CF93DF938CE090E010
:101470000E941F02EC010E94E701D0933A04C0933E
:10148000390486E090E099D9EC0187D940E0BE01AB
:101490008091390490913A040E94160286E090E00F
:1014A0000FD9EC01FDD841E0BE0180913904909143
:1014B0003A040E94160282E090E0CBD8EC01C3D837
:1014C00042E0BE018091390490913A040E941602D4
:1014D00060E08091390490913A040E944A0261E0F0
:1014E0008091390490913A040E944A0262E080910E
:1014F000390490913A040E944A024FE251E060E0C0
:101500008091390490913A040E94360245E551E0F9
:1015100061E08091390490913A040E943602DF9193
:10152000CF910895CF92DF92EF92FF920F93CF93D6
:10153000DF93F89499DF46E25AE060E08091390445
:1015400090913A040E945C024DE25AE061E0809181
:10155000390490913A040E945C024FE857E062E03F
:101560008091390490913A040E945C0288E890E0EE
:101570000E9441016C016091390470913A0440E08D
:101580000E941C01C114D10421F481E090E00E946A
:101590009B1488E890E00E944101EC0160913904BD
:1015A00070913A0441E00E941C01209721F481E0EF
:1015B00090E00E949B14E3E3F4E0D182C082D383E5
:1015C000C2837894E12CF12C02E096014EE551E0C3
:1015D0006CE771E080E099E028D59E014EE551E08E
:1015E00062E871E082E798E020D520E030E040EF4B
:1015F00050E068E871E087E997E017D514D680E0FD
:1016000090E0DF91CF910F91FF90EF90DF90CF901E
:1016100008950895CF93DF93EC012DD680913B047C
:1016200090913C04892B31F480E494E090933C0445
:1016300080933B0420913D0430913E04C9018C0FFE
:101640009D1F8B3F48E0940770F42817390770F40A
:10165000C0913B04D0913C04C20FD31F90933E0431
:1016600080933D0405C0C0E0D0E002C0C0E0D0E0FF
:10167000BFD6CE01DF91CF9108950895FC01039666
:10168000928381832FEF3FEF348323839683858377
:101690009087878310820895FC0111861086089533
:1016A000CF93DF939C01FB01DC011196CD91DC917E
:1016B0001297D383C2838C819D81958384838C818F
:1016C0009D81DC0113967C936E9312977D836C83CE
:1016D00031872087F90180818F5F8083DF91CF91EF
:1016E0000895CF93DF93EB01488159814F3F2FEF4E
:1016F000520721F4FC01A781B0850DC0DC011396CF
:1017000001C0DF011296ED91FC9113972081318188
:1017100042175307B0F71296ED91FC911397FB8394
:10172000EA83D583C483BD83AC831396DC93CE93C5
:10173000129799878887FC0120812F5F2083DF9192
:10174000CF910895CF93DF93FC01A085B185C2812D
:10175000D381848195819D838C83C481D58182814D
:1017600093819B838A8311968D919C911297E817A0
:10177000F90731F48481958112969C938E93119789
:10178000118610868C9181508C93DF91CF910895B2
:1017900031E1FC013083319722E220833197A3E3CA
:1017A000A08331976083319770833197108231978E
:1017B00060E8608331971082319762E060833197EF
:1017C00063E06083319764E06083319765E0608314
:1017D000319766E06083319767E06083319768E016
:1017E0006083319769E06083319760E1608331976E
:1017F0003083319732E13083319733E13083319751
:1018000034E13083319735E13083319736E13083ED
:10181000319737E13083319738E13083319739E1BF
:101820003083319730E23083319731E23083319722
:101830002083319723E2208331974083319750836F
:10184000319726E22083319727E22083319728E2DF
:101850002083319729E22083319720E32083319739
:1018600021E32083869708951BBC89EF8ABD8BE016
:101870008EBD87B7806187BFA0919F0DB091A00DED
:10188000CD91CDBFDD91DEBFFF91EF91DF91CF9183
:10189000BF91AF919F918F917F916F915F914F9188
:1018A0003F912F911F910F91FF90EF90DF90CF907C
:1018B000BF90AF909F908F907F906F905F904F9070
:1018C0003F902F901F900F900FBE0F90089581E0D2
:1018D00008950F920FB6F8940F921F9211242F9231
:1018E0003F924F925F926F927F928F929F92AF92B0
:1018F000BF92CF92DF92EF92FF920F931F932F939D
:101900003F934F935F936F937F938F939F93AF9387
:10191000BF93CF93DF93EF93FF93A0919F0DB0916F
:10192000A00D0DB60D920EB60D9222D6A0919F0D70
:10193000B091A00DCD91CDBFDD91DEBFFF91EF91B4
:10194000DF91CF91BF91AF919F918F917F916F91D7
:101950005F914F913F912F911F910F91FF90EF90C9
:10196000DF90CF90BF90AF909F908F907F906F90BF
:101970005F904F903F902F901F900F900FBE0F9051
:1019800008950F920FB6F8940F921F9211242F9280
:101990003F924F925F926F927F928F929F92AF92FF
:1019A000BF92CF92DF92EF92FF920F931F932F93EC
:1019B0003F934F935F936F937F938F939F93AF93D7
:1019C000BF93CF93DF93EF93FF93A0919F0DB091BF
:1019D000A00D0DB60D920EB60D9253D48111C8D53F
:1019E000A0919F0DB091A00DCD91CDBFDD91DEBF37
:1019F000FF91EF91DF91CF91BF91AF919F918F9127
:101A00007F916F915F914F913F912F911F910F9116
:101A1000FF90EF90DF90CF90BF90AF909F908F900E
:101A20007F906F905F904F903F902F901F900F90FE
:101A30000FBE0F900895A5DF18950F931F93CF93B6
:101A4000DF93EC01042F1A8D4C8D41110BC088815E
:101A50009981892B09F03FC08A819B8108D71B821D
:101A60001A8240C0011116C050E08C819D815AD766
:101A70002C8D8C819D81820F911D9D838C832A8169
:101A80003B818217930748F1888199819D838C83DC
:101A900080E028C050E08E819F8144D78C8D90E0FB
:101AA0009195819591092E813F81280F391F3F83A0
:101AB0002E83488159812417350730F42A813B81D0
:101AC000820F931F9F838E83023049F4112349F0C4
:101AD000115080E007C080E005C080E003C080E0D6
:101AE00001C080E01F5F1A8FDF91CF911F910F918E
:101AF0000895FC01448D4423A1F050E026813781F4
:101B0000240F351F37832683828193812817390755
:101B100020F08081918197838683CB0166817781D4
:101B200001C70895EF92FF920F931F93CF938C01FB
:101B30000FB6F8940F92FC01C68D1C169CF4818997
:101B4000811106C00FC0F8018189811105C00AC04A
:101B50007801F1E1EF0EF11CC7019AD5811121D670
:101B6000C15089F78FEFF801868F0F900FBE0FB627
:101B7000F8940F92C58D1C169CF48085811106C0C7
:101B80000FC0F8018085811105C00AC07801F8E016
:101B9000EF0EF11CC7017CD5811103D6C15089F726
:101BA0008FEFF801858F0F900FBECF911F910F918E
:101BB000FF90EF900895CF93DF93EC010FB6F89468
:101BC0000F92488159812C8D30E07B8D729FC0012E
:101BD000739F900D1124FA01E80FF91FFB83EA832C
:101BE0001A8E5D834C83821B930B840F951F9F83FA
:101BF0008E838FEF8D8F8E8F61110AC08885882329
:101C000069F0CE01089644D5882341F062DE06C013
:101C1000CE01089633DDCE01419630DD0F900FBE28
:101C200081E0DF91CF9108950F931F93CF93DF93BE
:101C3000082F162F6623B1F0869FC00111244F96FE
:101C4000E9DCEC01009739F413C00B8F1C8F61E0C5
:101C5000CE01B1DF0DC04F9699838883F6CFD9832B
:101C6000C883F3CF8FE190E0D5DCEC01892BB9F785
:101C7000CE01DF91CF911F910F9108959F92AF9266
:101C8000BF92CF92DF92EF92FF920F931F93CF9369
:101C9000DF9300D000D01F92CDB7DEB78C016B016F
:101CA0005D834C83A22EB12C992493947C0188E00F
:101CB000E80EF11C0FB6F8940F92F801928D838D07
:101CC000981718F0F2E0AF1215C04A2DB601C801FE
:101CD000B4DEF8019189992339F0C8014196D8D42E
:101CE000882321F0F6DD02C08111F3DD0F900FBED5
:101CF00081E045C08C819D81892B21F40F900FBE1E
:101D000080E03DC0B11004C0CE01019607D5B92CCA
:101D10000F900FBEB0D20FB6F8940F92F801858DD8
:101D20008F3F09F4158EF801868D8F3F09F4168ECA
:101D30000F900FBEBE016C5F7F4FCE010196F9D4AC
:101D4000811119C00FB6F8940F92F801928D0F907F
:101D50000FBE838D98130BC06C817D81C70188D421
:101D6000C801E0DE45D38111A5CFB3DDA3CFC80103
:101D7000D9DE3ED39FCFC801D5DE3AD380E00F90A5
:101D80000F900F900F900F90DF91CF911F910F91B7
:101D9000FF90EF90DF90CF90BF90AF909F9008950D
:101DA000CF93DF93482F60E081E03EDFEC010097A6
:101DB00059F01B821A82198218821E8220E040E0AC
:101DC00050E060E070E05ADFCE01DF91CF910895DE
:101DD0008F929F92AF92BF92CF92DF92EF92FF923B
:101DE0000F931F93CF93DF9300D000D01F92CDB7F6
:101DF000DEB78C015B015D834C83822EE12C99243C
:101E000093946C0181E1C80ED11C0FB6F8940F9227
:101E1000F801F28CFF2061F1C680D780B501C801BE
:101E200068DE811016C0FA94F801F28E80819181EB
:101E3000892B21F45CD5F80193838283F801808596
:101E4000882391F0C801089623D4882369F041DDE6
:101E50000BC0F801D782C6828189882329F0C80186
:101E6000419616D4811135DD0F900FBE81E058C028
:101E70008C819D81892B21F40F900FBE80E050C092
:101E8000E11004C0CE01019649D4E92C0F900FBE99
:101E9000F2D10FB6F8940F92F801858D8F3F09F4B7
:101EA000158EF801868D8F3F09F4168E0F900FBEA8
:101EB000BE016C5F7F4FCE0101963BD4811124C0DF
:101EC0000FB6F8940F92F801828D0F900FBE81111A
:101ED00017C080819181892B41F40FB6F8940F923D
:101EE0008281938162D40F900FBE6C817D81C60187
:101EF000BFD3C80117DE7CD2811187CFEADC85CF42
:101F0000C80110DE75D281CFC8010CDE71D20FB6C8
:101F1000F8940F92F801828D0F900FBE811175CF4A
:101F20000F900F900F900F900F90DF91CF911F9116
:101F30000F91FF90EF90DF90CF90BF90AF909F9068
:101F40008F900895E091670DF091680D8081811167
:101F500007C08FEF9FEF90933F0D80933E0D089544
:101F6000E091670DF091680D0580F681E02D068007
:101F7000F781E02D8281938190933F0D80933E0DF8
:101F80000895FF920F931F93CF93DF93EC01F62EEA
:101F90000091460D1091470D80919F0D9091A00DDD
:101FA0000296D0DBCF3F8FEFD80761F4FF2051F0CE
:101FB00060919F0D7091A00D6E5F7F4F89E49DE051
:101FC0006FDB2DC0C00FD11FE0919F0DF091A00DD0
:101FD000D383C283C017D10760F460919F0D7091C5
:101FE000A00D8091650D9091660D6E5F7F4F79DB3E
:101FF00016C060919F0D7091A00D8091670D90911A
:10200000680D6E5F7F4F6DDB80913E0D90913F0DAF
:10201000C817D90720F4D0933F0DC0933E0DDF9130
:10202000CF911F910F91FF9008954F925F926F9201
:102030007F928F929F92AF92BF92CF92DF92EF9258
:10204000FF920F93CF93DF934C016B015A0129014B
:10205000CA01E0DA3C01892B09F4D4C088E290E09F
:10206000D9DAEC01892B71F0788E6F8A81E0A81A99
:10207000B1086A0C7B1CD6018C91898F8C918111DF
:1020800004C017C0C301F9DABDC0AE01465E5F4FA0
:10209000F6013196B8E0CB0ED11CCF012191DA01C7
:1020A0002D93AD01DC018C91882319F0EC15FD0511
:1020B000A1F718A2043008F003E00E8B09A31AA2BE
:1020C0006E01B2E0CB0ED11CC601E6DACE010C9651
:1020D000E3DAD987C88784E090E0801B91099D8767
:1020E0008C87DB8BCA8B1BA21CA21DA21EA21FA267
:1020F000A201B401C3014CDB99838883E114F1048C
:1021000019F0F701D183C0830FB6F8940F92809134
:10211000480D8F5F8093480D80919F0D9091A00D89
:10212000892B89F5D093A00DC0939F0D8091480D08
:10213000813009F038C08BE79DE0A0DA84E89DE0AB
:102140009DDA8DE89DE09ADA86E99DE097DA82E7EC
:102150009DE094DA89E69DE091DA8CE59DE08EDAE7
:1021600083E59DE08BDA89E49DE088DA82E79DE0F3
:102170009093680D8093670D89E69DE09093660DBE
:102180008093650D10C08091440D81110CC0E091C9
:102190009F0DF091A00D96898E89891720F0D0931C
:1021A000A00DC0939F0D8091400D8F5F8093400DD7
:1021B0008E899091450D981710F48093450D90E00D
:1021C0009C01220F331F220F331F220F331F820F58
:1021D000931FB6018558924F63DA0F900FBE80911E
:1021E000440D882359F0E0919F0DF091A00D968940
:1021F0008E89981728F46DDB81E005C081E003C06B
:1022000081E001C08FEFDF91CF910F91FF90EF90B0
:10221000DF90CF90BF90AF909F908F907F906F9006
:102220005F904F900895EF92FF920F930F2EFCE373
:10223000EF2EFDE0FF2EF02D00E020E030E045E540
:1022400050E06EE871E081E892E1EFDE813079F4F0
:10225000F8948FEF9FEF90933F0D80933E0D81E0B8
:102260008093440D1092470D1092460DFDDA0F91A8
:10227000FF90EF90089580913B0D8F5F80933B0D11
:102280000895CF92DF92EF92FF920F931F93CF9317
:10229000DF9380913B0D811195C0E090460DF09049
:1022A000470D8FEFE81AF80AF092470DE092460DBD
:1022B000E114F104B1F48091670D9091680D2091C3
:1022C000650D3091660D3093680D2093670D9093E6
:1022D000660D8093650D8091410D8F5F8093410D58
:1022E00031DE80913E0D90913F0DE816F90610F415
:1022F000D12C50C0D12CCC24C394E091670DF09127
:10230000680D8081811107C08FEF9FEF90933F0D83
:1023100080933E0D3FC0E091670DF091680D058000
:10232000F681E02DC681D7818A819B81E816F90666
:1023300028F490933F0D80933E0D2CC08E010E5FCC
:102340001F4FC801FFD98C899D89892B19F0CE01B7
:102350000C96F8D98E899091450D981710F48093BA
:10236000450D90E09C01220F331F220F331F220FD7
:10237000331F820F931FB8018558924F91D9E09176
:102380009F0DF091A00D9E898689981708F4B5CF0E
:10239000DC2CB3CFE0919F0DF091A00D868990E0E9
:1023A000FC01EE0FFF1FEE0FFF1FEE0FFF1F8E0F42
:1023B0009F1FFC01E558F24F8081823048F0DD24F8
:1023C000D39406C08091430D8F5F8093430DD12C31
:1023D0008091420D882311F0DD24D3948D2DDF915F
:1023E000CF911F910F91FF90EF90DF90CF900895C4
:1023F000DF92EF92FF920F931F93CF93DF930FB66D
:10240000F8940F9280913B0D815080933B0D809109
:102410003B0D811159C08091480D811130C057C0CA
:10242000D7011596ED91FC911697C681D781CE0103
:102430000C9688D98E010E5F1F4FC80183D98E89F3
:102440009091450D981710F48093450D90E09C01F4
:10245000220F331F220F331F220F331F820F931FB0
:10246000B8018558924F1CD9E0919F0DF091A00DB5
:102470009E898689981768F0D092420D0AC0C0E004
:10248000D0E00F2EFCE5EF2EFDE0FF2EF02DDD2439
:10249000D394F70180818111C3CFCD2B09F052DD98
:1024A000C091430DCC2349F0D1E0EBDE8111D093F4
:1024B000420DC150D1F71092430D8091420D8823F7
:1024C00029F007DA81E003C080E001C080E00F90CE
:1024D0000FBEDF91CF911F910F91FF90EF90DF9092
:1024E0000895CF93DF93EC01892B39F0C4DE60E0CF
:1024F000CE0147DD7DDF811101C0EBD9DF91CF91A6
:10250000089503E51DE00F2EFBE7EF2EFDE0FF2E03
:10251000F02D24C0B0DED801CC916ADFCC23F1F0DD
:102520000FB6F8940F92D8011596ED91FC9116977D
:10253000C681D781CE01029605D98091480D815080
:102540008093480D8091520D81508093520D0F90D1
:102550000FBE8F89988D91D8CE018FD88091520D62
:102560008111D8CFF70180818230C0F3B2D9F6CF84
:1025700080913B0D882321F081E08093420D0895E6
:102580001092420DA0919F0DB091A00DE0919F0D72
:10259000F091A00D2D913C918789908D8217930722
:1025A00058F060919F0D7091A00D80919F0D9091BA
:1025B000A00D675E7F4F2DD82091450D822F90E0B2
:1025C000FC01EE0FFF1FEE0FFF1FEE0FFF1FE80FC6
:1025D000F91FE558F24F3081311111C02150822F7F
:1025E00090E0FC01EE0FFF1FEE0FFF1FEE0FFF1F2D
:1025F000E80FF91FE558F24F3081332379F3AC012E
:10260000440F551F440F551F440F551F480F591FA6
:10261000DA01A558B24F1196ED91FC911297028004
:10262000F381E02D1296FC93EE9311974258524F8E
:10263000E417F50729F442815381FD015283418358
:10264000FC01EE0FFF1FEE0FFF1FEE0FFF1F8E0F9F
:102650009F1FFC01E558F24F0180F281E02D868139
:1026600097819093A00D80939F0D2093450D089521
:10267000CF93DF93EB0160919F0D7091A00D645F8C
:102680007F4F2FD861E0CE017CDCDF91CF910895A0
:102690000F931F93CF93DF93DC011596ED91FC917F
:1026A0001697C681D7818E01045F1F4FC8014AD893
:1026B00080913B0D81111BC00A501109C80142D8FD
:1026C0008E899091450D981710F48093450D90E0F8
:1026D0009C01220F331F220F331F220F331F820F43
:1026E000931FB8018558924F0E94500B05C0B80146
:1026F0008CE59DE00E94500BE0919F0DF091A00DA4
:102700009E898689891720F481E08093420D01C05B
:1027100080E0DF91CF911F910F9108952091410D9D
:10272000FC0120832091460D3091470D3283218397
:1027300008950FB6F8940F924091460D5091470DB1
:10274000DB012D913C912F3FBFEF3B0711F1E09151
:10275000410DDC01FC91FE1739F01196ED91FC91D1
:1027600012974E175F07B8F4DC011196ED91FC91BA
:102770001297DA01AE1BBF0BA217B30770F4DB018F
:10278000E41BF50B2E0F3F1F2D933C93C7DF80E01A
:1027900005C080E003C081E001C081E00F900FBE62
:1027A000089581E08093420D08950F931F93CF9376
:1027B000DF93FC01892B09F455C02689A0919F0D58
:1027C000B091A00D56968C91281708F04BC08485C7
:1027D0009585992364F0A0919F0DB091A00D569618
:1027E0003C9184E090E0831B91099587848730E0D9
:1027F000C901880F991F880F991F880F991F280FEB
:10280000391F2558324F828593858217930719F512
:102810008F01EF012296CE010E94A20BE0919F0D45
:10282000F091A00D8689F801868B9091450D98173F
:1028300010F48093450D90E09C01220F331F220F6E
:10284000331F220F331F820F931FBE018558924FF3
:102850000E94500B07C0A0919F0DB091A00D5696FD
:102860008C91868BDF91CF911F910F9108950F93DB
:102870001F93CF93DF93FC01892B79F182A18150C3
:1028800082A3268991A1291751F181112AC0EF0154
:102890008F010E5F1F4FC8010E94A20B89A18E8B72
:1028A00024E030E0281B31093D872C879091450DAD
:1028B000981710F48093450D90E09C01220F331F70
:1028C000220F331F220F331F820F931FB801855829
:1028D000924F0E94500B81E005C080E003C080E071
:1028E00001C080E0DF91CF911F910F9108958091F9
:1028F0009F0D9091A00D892B39F0E0919F0DF091E3
:10290000A00D82A18F5F82A380919F0D9091A00D59
:102910000895EE0FFF1F0024001C0BBE0790F691D8
:10292000E02D0994FB01DC0102C001900D924150A1
:102930005040D8F7089510E0C7E4D0E003C0FE018E
:0E294000E8DF2196C834D107D1F7F894FFCF15
:10294E0050C0A8006C54555810002400000000130D
:10295E00031003110312030000000033031003B22F
:10296E0003860300000000B40310032B04FF03557D
:10297E0061727420496E6974205355434345535315
:10298E0020626F6164726174652039363030627016
:10299E0073200D0A00525334383520496E69742065
:1029AE005355434345535320626F6164726174659E
:1029BE002039363030627073200D0A005461736B0B
:1029CE0031005461736B32005461736B33004944B0
:0429DE004C45000064
:00000001FF
