S00C000052544F532E73726563D0
S113000048C500000C94BC0A63C5000061C500002B
S11300105FC500005DC500005BC5000059C5000058
S113002057C500000C94C40B53C5000051C5000013
S11300300C94E71D4DC500004BC500000C943F080F
S113004047C5000045C500000C942B0A41C50000BB
S11300503FC500000C94EC0A3BC5000039C5000004
S113006037C5000035C5000033C5000031C50000A8
S11300700C948C0A2DC500000C945B0A29C5000061
S113008027C5000025C5000023C500000000C842A4
S1130090AEC7C8425C8FC9420A57CA42B81ECB4297
S11300A066E6CB4214AECC42C375CD42713DCE421E
S11300B01F05CF42CDCCCF427B94D042295CD142A4
S11300C0D723D24285EBD24233B3D342E17AD4422E
S11300D08F42D5423D0AD642CDCCD6427B94D742FC
S11300E0295CD842D723D94285EBD94233B3DA42CB
S11300F0C375DB42713DDC421F05DD42CDCCDD42E0
S11301007B94DE420A57DF42B81EE04266E6E042D4
S1130110F6A8E142A470E2425238E3420000E4420D
S11301208FC2E4423D8AE542CD4CE6427B14E7426D
S113013029DCE742B89EE8426666E942F628EA42CC
S1130140A4F0EA4252B8EB42E17AEC428F42ED422B
S11301501F05EE42CDCCEE425C8FEF420A57F042CF
S11301609A19F14248E1F142D7A3F242856BF34276
S1130170142EF442A4F0F44252B8F542E17AF64265
S11301808F42F7421F05F842AEC7F8425C8FF9422E
S1130190EC51FA427B14FB4229DCFB42B89EFC4240
S11301A04861FD42F628FE4285EBFE4214AEFF4252
S11301B052380043299C004371FD0043B85E01435B
S11301C000C00143482102431F85024366E60243FF
S11301D0AE470343F6A803433D0A0443856B044337
S11301E0CDCC0443142E0543EC91054333F305436E
S11301F07B540643C3B506430A17074352780743A3
S11302009AD90743E13A0843299C084371FD0843FE
S1130210B85E094300C0094348210A438F820A4358
S113022048E10A438F420B43D7A30B431F050C43FA
S113023066660C43AEC70C43F6280D433D8A0D4356
S1130240F6E80D433D4A0E4385AB0E43CD0C0F43F8
S1130250146E0F43CDCC0F43142E10435C8F104308
S1130260A4F010435C4F1143A4B01143EC111243AA
S1130270A4701243ECD1124333331343EC91134370
S113028033F313437B54144333B314437B141543A4
S1130290C37515437BD41543C33516437B9416436A
S11302A0C3F516437B541743C3B517437B14184354
S11302B0C37518437BD41843C33519437B9419433E
S11302C0C3F519437B541A43C3B51A437B141B4328
S11302D0C3751B437BD41B4333331C437B941C43A4
S11302E033F31C437B541D4333B31D43EC111E43B2
S11302F033731E43ECD11E43A4301F435C8F1F4352
S1130300A4F01F435C4F204314AE2043CD0C214383
S1130310146E2143CDCC2143852B22433D8A2243B5
S1130320F6E822433D4A2343F6A82343AE07244379
S1130330666624431FC52443D72325438F82254360
S1130340D7E325438F42264348A126430000274391
S1130350B85E274371BD2743291C2843E17A28430B
S11303609AD92843523829430A972943C3F5294384
S11303707B542A4333B32A43EC112B43146E2B438F
S1130380CDCC2B43852B2C433D8A2C43F6E82C43C0
S1130390AE472D4366A62D431F052E4348612E43C9
S11303A000C02E43B81E2F43717D2F4329DC2F43F9
S11303B0523830430A973043C3F530437B543143BA
S11303C0A4B031435C0F3243146E32433DCA32430E
S11303D0F6283343AE873343D7E333438F42344362
S11303E048A1344371FD3443295C354352B8354345
S11303F00A173643C3753643ECD13643A43037432A
S1130400CD8C374385EB3743AE47384366A6384334
S11304108F0239434861394371BD3943291C3A433A
S113042052783A430AD73A4333333B435C8F3B43D6
S113043014EE3B433D4A3C43F6A83C431F053D4371
S113044048613D4300C03D43291C3E4352783E432E
S11304500AD73E4333333F435C8F3F4385EB3F43EF
S11304603D4A404366A640438F024143B85E414340
S113047071BD41439A194243C3754243ECD142438F
S1130480142E4343CD8C4343F6E843431F45444372
S113049048A1444371FD44439A594543C3B5454378
S11304A0EC114643146E46433DCA46436626474311
S11304B08F824743B8DE4743E13A48430A974843AB
S11304C033F348435C4F494385AB4943AE074A4342
S11304D0D7634A4300C04A43291C4B4352784B43D9
S11304E07BD44B43A4304C43CD8C4C4366E64C4305
S11304F08F424D43B89E4D43E1FA4D430A574E4354
S113050033B34E43CD0C4F43F6684F431FC54F439F
S113051048215043E17A50430AD75043333351437F
S11305205C8F5143F6E851431F45524348A152435F
S1130530E1FA52430A57534333B35343CD0C544364
S1130540F66854438FC25443B81E5543E17A554369
S11305507BD45543A43056433D8A564366E65643FE
S113056000405743299C5743C3F55743EC51584324
S113057085AB5843AE0759434861594371BD59434C
S11305800A175A43A4705A43CDCC5A4366265B4398
S11305908F825B4329DC5B43C3355C43EC915C4352
S11305A085EB5C431F455D4348A15D43E1FA5D4330
S11305B07B545E4314AE5E433D0A5F43D7635F439F
S11305C071BD5F430A17604333736043CDCC60430E
S11305D066266143008061439AD96143C33562430F
S11305E05C8F6243F6E862438F426343299C634312
S11305F0C3F563435C4F6443F6A864431F05654336
S1130600B85E654352B86543EC116643856B664337
S11306101FC56643B81E674352786743ECD16743EE
S1130620852B68431F856843B8DE6843C335694337
S11306305C8F6943F6E869438F426A43299C6A43A5
S1130640C3F56A435C4F6B43F6A86B4300006C43ED
S11306509A596C4333B36C43CD0C6D4366666D435A
S113066071BD6D430A176E43A4706E433DCA6E4359
S113067048216F43E17A6F437BD46F43142E704358
S11306801F857043B8DE7043523871435C8F7143E9
S1130690F6E871438F4272439A99724333F372437B
S11306A03D4A7343D7A3734371FD73437B5474432F
S11306B014AE74431F057543B85E7543C3B57543E3
S11306C05C0F76436666764300C07643D8FFD9FF55
S11306D0DAFFDBFFDCFFDDFFDEFFDFFFE0FFE1FF32
S11306E0E2FFE3FFE4FFE5FFE6FFE7FFE8FFE9FFE2
S11306F0EAFFEBFFECFFEDFFEEFFEFFFF0FFF1FF92
S1130700F2FFF3FFF4FFF5FFF6FFF7FFF8FFF9FF41
S1130710FAFFFBFFFCFFFDFFFEFFFFFF00000100EF
S11307200200030004000500060007000800090099
S11307300A000B000C000D000E000F001000110049
S113074012001300140015001600170018001900F9
S11307501A001B001C001D001E001F0020002100A9
S11307602200230024002500260027002800290059
S11307702A002B002C002D002E002F003000310009
S113078032003300340035003600370038003900B9
S11307903A003B003C003D003E003F004000410069
S11307A04200430044004500460047004800490019
S11307B04A004B004C004D004E004F0050005100C9
S11307C05200530054005500560057005800590079
S11307D05A005B005C005D005E005F006000610029
S11307E062006300640065006600670068006900D9
S11307F06A006B006C006D006E006F007000710089
S11308007200730074007500760077007800A1848C
S1130810893ECD92903E60EA973E97909F3E7385C5
S1130820A73E92CBAF3E9565B83ECA54C13E809A6E
S1130830CA3E0938D43E5131DE3E5986E83EC139BC
S1130840F33E884BFE3E7FDE043F08C90A3F11E4B5
S1130850103F9031173F85B11D3FF163243F7B4921
S11308602B3F2462323F92AE393FC72E413F19E2FB
S1130870483F32C9503FC1E2583F1630613F3AAF5A
S1130880693F2D60723FEE427B3F172B823FA3CC22
S1130890863FC6858B3FDA55903F363C953F3238CC
S11308A09A3FCF499F3F696FA43F00A9A93F99F59B
S11308B0AE3FE353B43FDFC3B93FE943BF3F07D380
S11308C0C43FE370CA3FDA1BD03F46D3D53FD5952A
S11308D0DB3F8D62E13F7138E73F3316ED3F83FA2A
S11308E0F23FB8E4F83F84D3FE3FCC620240FB5CA5
S11308F00540A85708407E520B40AD4C0E40B7450A
S113090011401D3D144061321740DD241A403C144F
S11309101D400000204082E7224097CA25406DA870
S11309202840DC802B408F532E40DE1F31409FE552
S113093033407FA43640FF5B3940F60B3C40E5B3BF
S11309403E40CE53414085EB4340637A464093009A
S11309504940BF7D4B40BFF14D40925C5040E4BDE7
S113096052408C155540B26357402FA85940D6E2E7
S11309705B40A9135E40A83A6040D1576240FD6ACB
S113098064405474664000746840AD696A40B05570
S11309906C40DF376E408C1070408FDF714012A5C1
S11309A073403D61754012147740BABD78400B5EC8
S11309B07A40AEF57B4023847D40130A7F40964302
S11309C08040F4FD80400FB48140276682401214B9
S11309D083400EBE83401B6484404F068540D3A4ED
S11309E085407D3F8640A1D686402B6A87402FFAFA
S11309F08740C28688400E108940FF958940D218EE
S1130A008A405F988A40F9148B40758E8B40140598
S1130A108C40C0788C40A3E98C40D1578D404CC3A6
S1130A208D40282C8E4064928E402BF68E40935736
S1130A308F4085B68F402B139040876D9040ACC596
S1130A409040B01B9140936F91406AC1914049110D
S1130A5092401C5F924022AB924045F59240863D05
S1130A6093400E849340F3C893400B0C9440944DF0
S1130A7094407A8D9440E6CB9440C4089540284431
S1130A809540137E9540AEB69540D0ED9540B82381
S1130A90964011241FBECFEFD0E1DEBFCDBF12E0E0
S1130AA0A0E0B1E0E6E4F5E500E00BBF02C007908A
S1130AB00D92A234B107D9F72EE0A2E4B2E001C04E
S1130AC01D92A131B207E1F70E945B190C94A12A8F
S1130AD097CAFC01680F791F8FEF9FEFE617F7079E
S1130AE099F02191822728E030E0AC01417055272C
S1130AF096958795452B21F041E0842740EA942779
S1130B002150310991F7EACF0895CF93DF93DC01A7
S1130B10EB018C91888311968C911197898313969C
S1130B208C9192E09A83E82FF0E0EE0FFF1FE40F20
S1130B30F51F81818B8380818C8365E070E0CE0119
S1130B40C8DF9E838D83DF91CF910895CF93DF9388
S1130B50FC01EB01808188838181898382818A837E
S1130B6083818B8384818C8385818D8366E070E0AF
S1130B70CE01AFDF9F838E83DF91CF910895CF9312
S1130B80DF93FC01EB0180818883818189838281E9
S1130B908A8383818B8394819C8395819D839681B1
S1130BA09E8327812F8390859887E82FF0E0EE0FAE
S1130BB0FF1FE40FF51F892F90E0922B9183808310
S1130BC069E070E0CE0185DF9A878987DF91CF9154
S1130BD00895CF93DF93FC01EB01808188838181A9
S1130BE0898382818A8383818B8384818C838581B9
S1130BF08D8366E070E0CE016CDF9F838E83DF918E
S1130C00CF910895CF93DF93EC01688381E88983C2
S1130C104A8363E070E0CE015CDF9C838B83DF91C9
S1130C20CF9108951F93CF93DF93EC01CB01142F41
S1130C30FE01EA57FF4F71836083642FF6D3882344
S1130C4071F0FE01EB57FF4F1083319710823497F8
S1130C5011821082CE57DF4F1982188204C0CA57FE
S1130C60DF4F19821882DF91CF911F9108950C9460
S1130C70D61B0895FC01E058FF4F20812F5F2F778A
S1130C8019F41182108221E030E0FC01EE57FF4F8D
S1130C90408151812417350789F0DC01A058BF4FEA
S1130CA0ED91FC911197E80FF91F61832D933C930B
S1130CB0FC01EC57FF4F80818F5F80830895AF92D2
S1130CC0BF92CF92DF92EF92FF920F931F93CF9335
S1130CD08C016B017A01DC01AB57BF4FFC01EA5771
S1130CE0FF4F6C9180819181ADD3892BD1F01E147B
S1130CF01F04BCF4C0E0580185E8A80EB11C0A57D3
S1130D001F4FF601EC0FF11D4081F5016081F801E0
S1130D108081918143D3CF5F2C2F30E02E153F0586
S1130D2084F3CF911F910F91FF90EF90DF90CF90BC
S1130D30BF90AF900895FC01EE57FF4F20813181A1
S1130D4032974081518142175307E9F02F5F3F4F9B
S1130D50FC01E20FF31F40812F773327FC01EE578C
S1130D60FF4F318320833296608170E02617370766
S1130D7061F4329711821082329711821082349674
S1130D801082842F08958FEF0895842F0895DC0135
S1130D90A058BF4FFC01EE57FF4F8C919081891BE7
S1130DA08F770895FC01EE57FF4F1182108232971E
S1130DB011821082349610820895FC01408351837D
S1130DC06283738308954F925F926F927F928F92A2
S1130DD09F92AF92BF92CF92DF92EF92FF920F93C6
S1130DE01F93CF93DF93CB01BA01E901220F331F85
S1130DF0220F331FD901A457BF4FFD01259135910F
S1130E00459154918E010F5F1F4FF801EE0FFF1FA4
S1130E10EE0FFF1FE457FF4F85909590A590B49077
S1130E20FD0145905590659074900E9458256B0182
S1130E307C01A3019201C501B4010E94582520E060
S1130E4030E040E05FE30E9410279B01AC01C70142
S1130E50B6010E940C2718160CF08E01C801DF9110
S1130E60CF911F910F91FF90EF90DF90CF90BF90A3
S1130E70AF909F908F907F906F905F904F90089568
S1130E804F925F926F927F92AF92BF92CF92DF9216
S1130E90EF92FF920F931F93CF93DF935C0180E057
S1130EA090E00E945A2620E030E040EA5BE30E9492
S1130EB010276B017C0120E030E041EE54E40E94F5
S1130EC0102723E333E848E755E40E9459252B0112
S1130ED03C01A70196016AE47CE08FE192E40E9460
S1130EE058259B01AC01C301B2010E94C1252B010D
S1130EF03C01C7ECD0E00F2EFFE8CF2EDD24D394C5
S1130F00F02DE12CF12C8E01000F111F000F111F89
S1130F1004571F4FF8012591359145915491C30110
S1130F20B2010E94BD25811150C05CC07E018FEFCB
S1130F30E81AF80AF701EE0FFF1FEE0FFF1FE45740
S1130F40FF4F2591359145915491C301B2010E94FF
S1130F500C27181634F09E01B301A201C50133DF3A
S1130F6043C0F8012591359145915491C301B201D3
S1130F700E94BD258823DCF46E0181E0C81AD108E3
S1130F80F601EE0FFF1FEE0FFF1FE457FF4F2591F1
S1130F90359145915491C301B2010E94BD25882326
S1130FA034F09601B301A201C5010DDF1DC0C601D5
S1130FB08E199F09EC010AF42196D595C795CE0D9B
S1130FC0DF1DEC14FD0474F49ECFF80125913591D6
S1130FD045915491C301B2010E940C2718160CF4D8
S1130FE0A5CFBFCF8C2F9D2FDF91CF911F910F9154
S1130FF0FF90EF90DF90CF90BF90AF907F906F9075
S11310005F904F90089508950895089580E487B9F6
S113101087E886B908953699FECF87B1807E682B1C
S113102067B9369A0895FC01828108950C94D61B01
S113103008958CE083BF8CE781BF87B7826087BF48
S1131040089587B78D7F87BF089587B7826087BF6C
S1131050089590E0FC01EE0FFF1FDF01A80FB91FF8
S1131060AA0FBB1FAE5BBD4F11967C936E93139674
S11310701C921E921297FD015583448308951F927A
S11310800F920FB60F9211240BB60F92EF92FF92AC
S11310900F931F932F933F934F935F936F937F937C
S11310A08F939F93AF93BF93CF93DF93EF93FF936C
S11310B0C2E4D2E00F2EF0E6EF2EF2E0FF2EF02D88
S11310C0EC81FD81309779F08A819B8101969B8325
S11310D08A83288139818217930729F41B821A8213
S11310E009951D821C822696CE15DF0549F7FF91CE
S11310F0EF91DF91CF91BF91AF919F918F917F91AC
S11311006F915F914F913F912F911F910F91FF909C
S1131110EF900F900BBE0F900FBE0F901F9018957D
S113112080E008950895662351F080E0EFEAF4E04A
S11311303197F1F700C000008F5F6813F7CF08956F
S11311400F931F93CF938C01C62FD898862F807F3F
S11311508BBBD99A61E0C801E6DFD998C295C07FFC
S1131160CBBBD99A61E0C801DEDFD998CF911F913A
S11311700F9108950F931F93CF938C01C62FD89A84
S1131180862F807F81608BBBD99A61E0C801CBDF59
S1131190D99880E1C89FB001112461606BBBD99AD2
S11311A061E0C801C0DFD998CF911F910F910895D4
S11311B00F931F93CF93DF93EB016881662339F07C
S11311C08C012196C801D6DF69916111FBCFDF91B3
S11311D0CF911F910F910895CF93DF93EC0161E0BC
S11311E0AFDF63E0CE019FDFDF91CF910895CF930E
S11311F0DF93EC018FEF8BBB68E2CE01A1DF66E0E9
S1131200CE019EDF6CE0CE019BDFCE01E5DFDF91F6
S1131210CF9108952BE531E0FC01318320832FEF3A
S11312202ABBE5CF0895413041F028F0423039F02F
S1131230433039F007C040E805C040EC03C044E93E
S113124001C044ED640F7CCF08950F931F93CF9397
S1131250DF938C01E901E7DF6881662331F0219691
S1131260C80188DF69916111FBCFDF91CF911F9194
S11312700F9108950F931F93CF93DF93EB01688130
S1131280662339F08C012196C80174DF69916111DC
S1131290FBCFDF91CF911F910F910895CF93DF93EF
S11312A0EC0162E04DDF63E0CE013DDFDF91CF91E1
S11312B00895EF92FF920F931F93CF93DF937C01D6
S11312C08A01611103C060E43BDF09C0C62FCC0F63
S11312D0CC0FCC0F60E46C0F33DFC13448F4E80169
S11312E0085F1F4F6991C70145DFC017D107D1F7C8
S11312F0DF91CF911F910F91FF90EF900895683087
S113130008F438CF08950C94D61B089511BA8FEFC2
S113131082BBEAE6F0E080818260808380818E7FF8
S1131320808389B7816089BF08950C94D61B089582
S11313302AE0DC01E22F1D92EA95E9F7FC013A96D6
S1131340DF011D922A95E9F7909361028093600270
S11313500895CF93DF938091600290916102892B6D
S113136051F484E190E00E94D61BEC01E1DFD093BC
S11313706102C09360028091600290916102DF91EA
S1131380CF91089550E0440F551F840F951FFC0121
S11313907183608308950C94D61B0895262F30E042
S11313A0220F331F820F931FDC018D919C910097B4
S11313B041F0642FDC01ED91FC910680F781E02D72
S11313C009950895262F30E0220F331F820F931FB3
S11313D0DC018D919C91009741F0BA01DC01ED9103
S11313E0FC910480F581E02D0995089570E0660F65
S11313F0771F860F971FDC018D919C91009739F020
S1131400DC01ED91FC910190F081E02D09950895A6
S1131410E62FF0E0EE0FFF1FE80FF91F80819181A6
S1131420892B11F053874287089570E0660F771F68
S1131430FC01E60FF71F81E020813181232B09F4A1
S113144080E0089570E0660F771F860F971FFC01F8
S11314508081918108951F920F920FB60F921124EB
S11314600BB60F922F933F934F935F936F937F939A
S11314708F939F93AF93BF93EF93FF936ADF6CB106
S113148070E0DC011A96ED91FC911B9780E00995C0
S1131490FF91EF91BF91AF919F918F917F916F9148
S11314A05F914F913F912F910F900BBE0F900FBE04
S11314B00F901F9018951F920F920FB60F92112440
S11314C00BB60F922F933F934F935F936F937F933A
S11314D08F939F93AF93BF93EF93FF933ADF609102
S11314E09C0070E0DC011C96ED91FC911D9781E05D
S11314F00995FF91EF91BF91AF919F918F917F914A
S11315006F915F914F913F912F910F900BBE0F9070
S11315100FBE0F901F9018951F920F920FB60F9247
S113152011240BB60F922F933F934F935F936F93B6
S11315307F938F939F93AF93BF93EF93FF9309DFB1
S1131540DC011E96ED91FC911F9760E070E082E053
S11315500995FF91EF91BF91AF919F918F917F91E9
S11315606F915F914F913F912F910F900BBE0F9010
S11315700FBE0F901F9018951F920F920FB60F92E7
S113158011240BB60F922F933F934F935F936F9356
S11315907F938F939F93AF93BF93EF93FF93D9DE82
S11315A0DC015096ED91FC91519760E070E083E08E
S11315B00995FF91EF91BF91AF919F918F917F9189
S11315C06F915F914F913F912F910F900BBE0F90B0
S11315D00FBE0F901F9018951F920F920FB60F9287
S11315E011240BB60F922F933F934F935F936F93F6
S11315F07F938F939F93AF93BF93EF93FF93A9DE52
S113160024B165B170E0762F6627620F711DDC018D
S11316105296ED91FC91539784E00995FF91EF91D7
S1131620BF91AF919F918F917F916F915F914F91F6
S11316303F912F910F900BBE0F900FBE0F901F90F4
S1131640189580E480938B0084E080938A0088E07E
S11316509DE3909387008093860082E080937D00D1
S113166008952BE731E0FC013183208308950C9425
S1131670D61B0895CF93DF93EC0110929B0088E969
S113168080939A0086E080939D00BE016E5F7F4F39
S1131690CE0119D1109298009093990081E00E9494
S11316A09F1F9F838E8381E00E949F1F9D838C8355
S11316B0DF91CF9108952BE831E0FC013183208341
S11316C020E835E233832283209162023091630261
S11316D0232B21F4909363028093620208950C9467
S11316E0D61B08951F93CF93DF93EC01162F20E0B0
S11316F044E650E060E070E08C819D810E94B71F59
S1131700813081F4EBE9F0E0808185FFFDCF109317
S11317109C0020E040E050E060E070E08C819D811E
S11317200E940D1FDF91CF911F910895DBCF089583
S11317300F931F93CF93DF938C01EB0120E044E6DA
S113174050E060E070E0FC01868197810E94B71F41
S1131750813099F46881662331F02196C801C2DF93
S113176069916111FBCF20E040E050E060E070E05F
S1131770F801868197810E940D1FDF91CF911F91FF
S11317800F910895D5CF08951F920F920FB60F921F
S113179011240BB60F928F939F93EF93FF93E0E284
S11317A0F3E086819781019697838683FF91EF9179
S11317B09F918F910F900BBE0F900FBE0F901F90B3
S11317C01895CF93DF93EC0188E98AB986E080937A
S11317D09500BE016E5F7F4FCE0175D010929000D0
S11317E099B981E00E949F1F9F838E8381E00E94AC
S11317F09F1F9D838C83DF91CF9108952BE931E066
S1131800FC013183208320E438E333832283209155
S1131810640230916502232B21F490936502809336
S1131820640208950C94D61B08951F93CF93DF93FD
S1131830EC01162F20E044E650E060E070E08C817B
S11318409D810E94B71F813061F45D9BFECF1CB95E
S113185020E040E050E060E070E08C819D810E94D7
S11318600D1FDF91CF911F910895DFCF08950F933E
S11318701F93CF93DF938C01EB0120E044E650E00B
S113188060E070E0FC01868197810E94B71F81307F
S113189099F46881662331F02196C801C6DF699105
S11318A06111FBCF20E040E050E060E070E0F8011F
S11318B0868197810E940D1FDF91CF911F910F9117
S11318C00895D5CF0895CF92DF92EF92FF92CF93F0
S11318D0DF93FB0120813181C901A0E0B0E0880FD2
S11318E0991FAA1FBB1F880F991FAA1FBB1F9C010A
S11318F0AD01220F331F441F551F220F331F441FF6
S1131900551F60E074E284EF90E00E947327CA01DF
S1131910B90161507109810991090E945A2620E098
S113192030E040E05FE30E9459256B017C010E9496
S11319302E26D62FF0E0CF2FC701B6010E942E2607
S1131940CE01862BDF91CF91FF90EF90DF90CF9067
S11319500895C098962F6F71862B8FB9779BFECF11
S11319601FB8779BFECF99231CF41FB8779BFECF3B
S1131970C09A8FB10895C0986F71862B8FB9779BE9
S1131980FECF4FB9779BFECFC09A0895FB01C09854
S11319902AE32FB9779BFECF009761F0DF01A80FF0
S11319A0B91F1FB8779BFECF9FB19193AE17BF07A6
S11319B0C1F701C0DF011C92C09A0895FB01C098D1
S11319C02AE72FB9779BFECF009761F09F01280F7C
S11319D0391F03C02E173F0729F091919FB9779BB8
S11319E0FECFF8CFC09A08951F93CF93DF93182F9B
S11319F01076C12FD0E08091680290E0C817D90713
S1131A00A1F043E06FE180EAB6DFAE01559547955A
S1131A1055954795559547955595479555954795AA
S1131A206FE180E8A8DF10936802DF91CF911F91E6
S1131A300895CF93C82FD8DF6C2F80E08ADFCF9131
S1131A400895CF93DF93C82FD62FCEDF4D2F6C2F61
S1131A5080E491DFDF91CF910895CF93DF93D62F68
S1131A60C72F682F84EDEDDF6D2F86EDEADF6C2F35
S1131A7087EDE7DF8AEEDDDF80FF04C085E08A952D
S1131A80F1F7F8CFDF91CF910895682F677085E75C
S1131A90D8CF0895CF93DF93EC01B89AC09AA6D219
S1131AA04FEF60E08FEF67DF82E390E0A9D21092FE
S1131AB067021092660260E088E0C3DF60E089E0BC
S1131AC0C0DF60E08CE0BDDF60E08DE0BADF6EEF88
S1131AD08AE0B7DF69E18BE0B4DF6FEF84E0B1DF68
S1131AE069E185E0AEDF6FEF86E0ABDF6FE187E0B1
S1131AF0A8DF60EB88E3A5DF6FE388E2A2DF60E3A1
S1131B0089E29FDF69EF80E39CDF67EF81E399DF80
S1131B106DE080EC96DF60E081EC93DF42E362EC01
S1131B2080E829DF62E186EC8CDF6CE087EC89DFFA
S1131B3062E184EC86DF6CED8AEC83DF65E08BEC9C
S1131B4080DF688184EE7DDF698185EE7ADF6A81DA
S1131B5082EE77DF6B8183EE74DF6C8180EE71DF60
S1131B606D8181EE6EDF60E071E080E176DF8FE110
S1131B703BDF40EC6BE180E8FEDE44E06FE180E8AF
S1131B80FADEDF91CF9108950F931F93CF93DF93E4
S1131B90EC018B016FEF82E054DF69E183E051DFF8
S1131BA06C2F615086E04DDFCE018150964E692F37
S1131BB087E047DF40E060E08AE7DDDEB801CE0180
S1131BC0FDDE48E06FE180E8D6DE8CE132DF81FFA4
S1131BD004C048E06FE180EACEDEDF91CF911F912F
S1131BE00F9108959F92AF92BF92CF92DF92EF929E
S1131BF0FF920F931F93CF93DF935C017B0189E3E3
S1131C0018DF882309F445C060916602C091670219
S1131C1080E017DF6C2F81E014DF60E08AE399DE57
S1131C20C82F60E08AE395DED0E0D82BD09367021A
S1131C30C093660260E08AE38CDE082F60E08AE3EA
S1131C4088DE982E60E08AE384DEC82E60E08AE3B2
S1131C5080DEC7FE0FC081E0A81AB10810E0192980
S1131C6004501109A016B10608F48501B701C80192
S1131C708DDE02C000E010E06C2F8CE0E2DE6D2F00
S1131C808DE0DFDE40E46EE180E875DE802F912F89
S1131C9002C080E090E0DF91CF911F910F91FF90FF
S1131CA0EF90DF90CF90BF90AF909F900895CF9228
S1131CB0DF92EF92FF92CF93DF93EC01DB0141308F
S1131CC061F46B0188E0C81AD108E12CF12C81E1A0
S1131CD0C80ED11CE11CF11C11C0423061F46B012F
S1131CE088E0C81AD108E12CF12C86E0C80ED11C7A
S1131CF0E11CF11C03C0C12CD12C7601A230B1052A
S1131D00F0F09D01FE01408150E060E070E0762F2C
S1131D10652F542F44278181482BC40ED51EE61EFF
S1131D20F71E3296225031092230310560F7CD0179
S1131D3002978E7F0296C80FD91FA170BB27AB2BC9
S1131D4061F0888190E0A0E0B0E0BA2FA92F982F2D
S1131D508827C80ED91EEA1EFB1EA701662777270F
S1131D60411551056105710571F0EE24FF24C40E7F
S1131D70D51EE61EF71EA7016627772741155105D4
S1131D806105710591F7C60180959095DF91CF911A
S1131D90FF90EF90DF90CF90089540930001A62F1D
S1131DA0B72FE9E6F2E04DE652E02D912193E417D6
S1131DB0F507D9F7A82FB92FEDE6F2E023E732E0D3
S1131DC08D918193E217F307D9F70895693271056C
S1131DD0C8F0FC0124852830B9F425852630B1F4F7
S1131DE036A120916902321313C0B796AAE6B2E075
S1131DF08A9631912D9132130DC0E817F907C9F76E
S1131E0081E0089580E0089580E0089580E00895D9
S1131E1080E0089580E00895CF93DF93FC016A3257
S1131E207105E0F084858830D9F4858581111AC064
S1131E3096859534C1F4268D90916902291313C0B7
S1131E40DF015F96CAE6D2E0B2962D9199912913EB
S1131E500AC0AE17BF07C9F781E005C080E003C020
S1131E6080E001C080E0DF91CF910895FC01ADE6F0
S1131E70B2E09C012A5F3F4F868181938D918583D7
S1131E80E217F307C9F70895CF93DF93EC01188E97
S1131E90198E80E48C8B1D8A8E8B40E064E170E0A7
S1131EA0CE010E9604DF988F898FDF91CF9108952C
S1131EB0AC01A9E6B2E0FC017A962DE632E090810D
S1131EC094839D919193A217B307C9F7CA01DCCFFC
S1131ED00895CF93DF93EC01C9DF1C8A82E08D8BD8
S1131EE0ADE6B2E0FE01769623E732E08081828798
S1131EF08D918193A217B307C9F7A9E6B2E0FE0159
S1131F007C962DE632E0808182878D918193A217A1
S1131F10B307C9F7BE018AE290E036DEDF91CF91C4
S1131F2008950F931F93CF93DF93EC018B019EDFF2
S1131F30CE01BEDF1AA28CA1883F18F09DA19F5F3D
S1131F409DA3885F8CA3BE01C8011EDEDF91CF91E3
S1131F501F910F910895DF92EF92FF920F931F93B9
S1131F60CF93DF93EC01D62EE72E042F122FF32EFE
S1131F707DDF0D3D08F00CED188A8CE1800F898B14
S1131F80CE0196DF8AA18CA38BA18DA3FAA21BA3F9
S1131F901EA288E0800F8FA318A619A6002381F043
S1131FA0AD2DBE2DFE01BA962FEF200F30E0255D3A
S1131FB03F4F2C0F3D1F9D919193E217F307D9F7E3
S1131FC010E0B801605F7F4F41E0CE014A966FDEBA
S1131FD098A789A7BE01C8018A96D6DDDF91CF9163
S1131FE01F910F91FF90EF90DF90089587B3866063
S1131FF087BBBB98C298C19880E58DB9709A089543
S1132000009741F0EFEBF0E03197F1F700C00000EA
S11320100197C1F70895E0E2F3E084859585019680
S113202095878487809107038F5F80930703C59802
S1132030C6988091980390919903A0919A03B091C6
S11320409B030196A11DB11D80939803909399035E
S1132050A0939A03B0939B03089508958091060377
S1132060811103C081E0809306030895CF93DF9329
S1132070CDB7DEB7CC54D1090FB6F894DEBF0FBE8E
S1132080CDBF8091DF039091E003A6D888E0E7E01C
S1132090F1E0DE011D9601900D928A95E1F788E04A
S11320A0EFE0F1E0DE01559601900D928A95E1F79B
S11320B088E0E7E1F1E0DE015D9601900D928A95FA
S11320C0E1F788E0EFE1F1E0DE01959601900D92F1
S11320D08A95E1F788E0E7E2F1E0DE019D96019060
S11320E00D928A95E1F788E0EFE2F1E0DE01D59602
S11320F001900D928A95E1F788E0E7E3F1E0DE01D3
S1132100DD9601900D928A95E1F788E0EFE3F1E026
S1132110DE01AB5BBF4F01900D928A95E1F7AE01F2
S1132120435F5F4F60E08091DF039091E003C1D88B
S1132130AE014B5E5F4F61E08091DF039091E0035D
S1132140B8D8AE01435E5F4F62E08091DF039091A7
S1132150E003AFD8AE014B5D5F4F63E08091DF03D6
S11321609091E003A6D8AE01435D5F4F64E0809197
S1132170DF039091E0039DD8AE014B5C5F4F65E0B7
S11321808091DF039091E00394D8AE01435C5F4FEC
S113219066E08091DF039091E0038BD8AE014B5B46
S11321A05F4F67E08091DF039091E00382D80F2EA8
S11321B0F0E08F2EF3E09F2EF02D0F2EFCEACF2EB1
S11321C0F1E0DF2EF02D9E012F5F3F4F79010F2E9E
S11321D0F1E0AF2EF1E0BF2EF02D06EB11E00F2E53
S11321E0F9E85F2EF02D622E7F2C8091DF03909111
S11321F0E0030E94EC0880910403813019F41092EA
S11322000403F3CF8091DF039091E00347D88091DA
S1132210DF039091E003DC01ED91FC910480F581F2
S1132220E02D67EA71E00995F40180811F928F9394
S1132230DF92CF92FF92EF920E94AD278091DF034D
S11322409091E003DC01ED91FC910480F581E02D97
S1132250662D772D09958091DF039091E003DC01D1
S1132260ED91FC910480F581E02D6FEA71E0099510
S1132270F40181811F928F93DF92CF92FF92EF92AC
S11322800E94AD278091DF039091E003DC01ED9182
S1132290FC910480F581E02D662D772D09958091C0
S11322A0DF039091E003DC01ED91FC910480F58162
S11322B0E02D6FEA71E00995F40182811F928F93FA
S11322C0DF92CF92FF92EF920E94AD278091DF03BD
S11322D09091E003DC01ED91FC910480F581E02D07
S11322E0662D772D09958091DF039091E003DC0141
S11322F0ED91FC910480F581E02D6FEA71E0099580
S1132300F40183811F928F93DF92CF92FF92EF9219
S11323100E94AD278091DF039091E003DC01ED91F1
S1132320FC910480F581E02D662D772D099521EB34
S113233031E041E060E08091DF039091E0030E948E
S11323402509F50180811F928F931F930F93FF92AC
S1132350EF920E94AD278091DF039091E003DC01AE
S1132360ED91FC910480F581E02D662D772D099582
S11323708091DF039091E003DC01ED91FC910480F6
S1132380F581E02D6AEA71E00995F50181811F92DA
S11323908F931F930F93FF92EF920E94AD2780912A
S11323A0DF039091E0030FB6F894DEBF0FBECDBFFC
S11323B0DC01ED91FC910480F581E02D662D772DF3
S11323C009958091DF039091E003DC01ED91FC918C
S11323D00480F581E02D6AEA71E00995F5018281B6
S11323E01F928F931F930F93FF92EF920E94AD273A
S11323F08091DF039091E003DC01ED91FC91048076
S1132400F581E02D662D772D09958091DF0390915C
S1132410E003DC01ED91FC910480F581E02D6AEA92
S113242071E00995F50183811F928F931F930F9398
S1132430FF92EF920E94AD278091DF039091E00319
S1132440DC01ED91FC910480F581E02D662D772D62
S113245009958091DF039091E003DC01ED91FC91FB
S11324600480F581E02D6AEA71E00995F501848123
S11324701F928F931F930F93FF92EF920E94AD27A9
S11324808091DF039091E003DC01ED91FC910480E5
S1132490F581E02D662D772D09958091DF039091CC
S11324A0E003DC01ED91FC910480F581E02D6AEA02
S11324B071E00995F50185811F928F931F930F9306
S11324C0FF92EF920E94AD278091DF039091E00389
S11324D0DC01ED91FC910480F581E02D662D772DD2
S11324E0099580910503859D812D112482958F7016
S11324F083700FB6F894DEBF0FBECDBF09F043C0A2
S11325008091DF039091E0030E944E0942E060E075
S11325108091DF039091E0030E94130964E08091AD
S1132520DF039091E0030E947F0961E08091DF0363
S11325309091E0030E947F0969EB71E08091DF03D1
S11325409091E0030E943A0943E060E08091DF0348
S11325509091E0030E94130963E08091DF0390915E
S1132560E0030E947F0962E08091DF039091E00321
S11325700E947F0968EC71E08091DF039091E00391
S11325800E943A0938CE813009F043C08091DF03BC
S11325909091E0030E944E0942E060E08091DF03E5
S11325A09091E0030E94130960E08091DF03909111
S11325B0E0030E947F0965E08091DF039091E003CE
S11325C00E947F0969EB71E08091DF039091E00341
S11325D00E943A0943E060E08091DF039091E003B8
S11325E00E94130963E08091DF039091E0030E944D
S11325F07F0962E08091DF039091E0030E947F09EC
S113260068EC71E08091DF039091E0030E943A0945
S1132610F2CD823009F043C08091DF039091E00352
S11326200E944E0942E060E08091DF039091E00354
S11326300E94130960E08091DF039091E0030E94FF
S11326407F0961E08091DF039091E0030E947F099C
S113265069EB71E08091DF039091E0030E943A09F5
S113266043E060E08091DF039091E0030E9413094E
S113267063E08091DF039091E0030E947F0966E0AC
S11326808091DF039091E0030E947F0968EC71E080
S11326908091DF039091E0030E943A09ACCD83302E
S11326A009F0A9CD8091DF039091E0030E944E09C7
S11326B042E060E08091DF039091E0030E941309FF
S11326C060E08091DF039091E0030E947F0961E064
S11326D08091DF039091E0030E947F0969EB71E030
S11326E08091DF039091E0030E943A0943E060E0A7
S11326F08091DF039091E0030E94130967E08091C9
S1132700DF039091E0030E947F0962E08091DF0380
S11327109091E0030E947F0968EC71E08091DF03EF
S11327209091E0030E943A0966CDCF93DF93CDB731
S1132730DEB7A1970FB6F894DEBF0FBECDBF0F2E44
S1132740F8E06F2EF3E07F2EF02D0F2EF0E68F2EA3
S1132750F3E09F2EF02D0F2EF2E64F2EF3E05F2EC6
S1132760F02DCE0101969F8F8E8F33243394F30185
S113277080819181A281B3818093000390930103AE
S1132780A0930203B09303038FEF87BB88BB81E060
S113279091E080D982E079D98AE090E00E944023D8
S11327A066E774E084E159D984E190E00E94402313
S11327B040E560E073E081E091E0EFDA212C04E68B
S11327C013E00F2EF6E6EF2EF3E0FF2EF02D0F2E82
S11327D0F3E7AF2EF2E0BF2EF02D0F2EF0E2CF2E56
S11327E0F3E0DF2EF02DD3018C9190E0F4016081B1
S11327F0718111964C9150E0332DD201ED91FC91F1
S11328004E175F0709F430E0232D8617970709F464
S113281020E0322BF301428150E0232DD801ED91C9
S1132820FC914E175F0709F420E0232B71F4F301A8
S1132830238130E0432DD701ED91FC912E173F0702
S113284009F440E0442309F447C08617970741F090
S113285080E090E00E94902AF4018081D3018C935F
S1132860F20160817181D30111968C9190E08617F9
S1132870970749F081E090E00E94902AF20180815C
S1132880D30111968C936091640370916503F301F5
S1132890828190E08617970749F082E090E00E94D9
S11328A0902A80916403D30112968C9360916603FD
S11328B070916703F301838190E08617970749F0CD
S11328C083E090E00E94902A80916603D3011396DE
S11328D08C93309204034BCF6BE872E084E690E073
S11328E081D999A388A3009709F4EAC0BC018BE8B5
S11328F092E06CDA882321F08BE892E0EADA73CF75
S113290068A179A18BE892E087DA882309F46BCF78
S11329108091A202813051F48091AD02883031F46B
S113292068A179A18BE892E0FCDA5DCF8091B502D1
S1132930813309F053C08DE1EE8DFF8D11928A959C
S1132940E9F78091B6029EEC980F9D3108F0B8C06B
S113295040ED480F50E04F5F5F4F423051050CF09F
S113296014C122C0FC01E557FD4F63A5FE01E80F29
S1132970F91F608320FD12C0E32FF0E0EE0FFF1F6C
S1132980EC5CFC4FAFEFBFEFAC0FBD1FA80FB91F3E
S11329908C9190E0962B918380833F5F2F5F822FF1
S11329A090E084179507F4F2D601D0968D919C910E
S11329B0D19751969C938E935097DD969C938E93CA
S11329C0DC97D9969C938E93D897D7969C938E93A5
S11329D0D697DF969C938E93DE9772C08233C1F5AF
S11329E08EE0EE8DFF8D11928A95E9F78091B60203
S11329F09EEC980F9D3008F063C0805390E00196E0
S1132A00823091050CF0C7C05BC0F901E557FD4F5A
S1132A1063A5FE01E20FF31F608340FD12C0E52FA2
S1132A20F0E0EE0FFF1FEA58FC4FAFEFBFEFAC0F23
S1132A30BD1FA20FB31F2C9130E0362B31832083AE
S1132A405F5F4F5F242F30E028173907F4F238C056
S1132A508333B1F58EE0AE8DBF8D1D928A95E9F773
S1132A608091B6029EEC980F9D3050F5805390E013
S1132A700196823091050CF094C022C0F901E5570B
S1132A80FD4F63A5FE01E20FF31F608340FD12C0FA
S1132A90E52FF0E0EE0FFF1FEC57FC4FAFEFBFEF59
S1132AA0AC0FBD1FA20FB31F2C9130E0362B318326
S1132AB020835F5F4F5F242F30E028173907F4F23B
S1132AC0209429F088B3806188BB88BB04C088B394
S1132AD08F7E88BB88BBF60182819381D5011196D4
S1132AE09C938E938681978113969C938E931297D1
S1132AF08481958115969C938E93149780899189EE
S1132B0017969C938E9316978289938919969C9312
S1132B108E931897848595851B969C938E931A970C
S1132B20828593851D969C938E931C9780859185B1
S1132B301F969C938E931E97E4E7F3E08081918126
S1132B4051969C938E935097A2E7B3E08D919C91FC
S1132B50F501938B828B80916C0390916D03958B1F
S1132B60848B8091700390917103978B868B2FE0F7
S1132B7037E248E1B5018BE892E0EDD98091050395
S1132B808F5F8093050371D72ECE8091B70289831E
S1132B9021E030E003CF2091B702298341E050E0E7
S1132BA050CF2091B702298341E050E083CFCF93E7
S1132BB0DF93CDB7DEB72F970FB6F894DEBF0FBE05
S1132BC0CDBF6C01FE0131968FE0DF011D928A9525
S1132BD0E9F700E213E05E01B0E1AB0EB11C0F2E89
S1132BE0FAE98F2E912CF02D0F2EF8E66F2EF3E0DC
S1132BF07F2EF02D0F2EF3E02F2E312CF02D0F2EE3
S1132C00FCE64F2EF3E05F2EF02DF80180899189C8
S1132C1026AD37AD2817390741F095AF84AF91AF92
S1132C2080AF97AB86AB97AF86AFC6010E94C7064D
S1132C308F3058F3CE0101967C01C6010E949B0699
S1132C40D7018D937D01AA15BB05B9F7898182301F
S1132C5009F074C0888590E0982F88272985822BF5
S1132C609093AB038093AA038A8590E0982F8827DA
S1132C702B85822B9093A9038093A8032C8530E0A5
S1132C80322F22274D85242B3093A7032093A603AC
S1132C90F80193838283D301ED90FC90E114F10455
S1132CA019F00E94250833C00E942108F201808196
S1132CB09181019761F5ACE9B3E08C91813059F0D1
S1132CC0ADE9B3E0E1E0CD018C5993407C018D91F5
S1132CD0813071F401C0E0E0D701AA0FBB1FA45FEB
S1132CE0BC4F8091AA039091AB038D939C9303C036
S1132CF0EF5FEA3041F7F0E0EE0FFF1FE45FFC4FB7
S1132D0080819181D80117969C938E931697809118
S1132D10A6039091A703F8019583848320893189C0
S1132D20868197812817390709F06FCF82899389A3
S1132D30892B09F06ACF338A228A67CFC79846E085
S1132D4061E084EB93E00E94020645E050E064EB0E
S1132D5073E0C6010E945F06D4018C918F778C9337
S1132D60C6010E94D206F401808180688083C79ADC
S1132D704CCFCF93DF93CDB7DEB72A970FB6F89435
S1132D80DEBF0FBECDBF7C01B12C0F2EFCE66F2E33
S1132D90F3E07F2EF02D6894332431F800E213E041
S1132DA00F2EF0E7CF2EF3E0DF2EF02D2E018CE076
S1132DB0480E511C6894222424F84E0199E0890E8F
S1132DC0911C1AC0AA24A394BB24B39415C0AA24AA
S1132DD0A394BB24B39410C06894AA24A2F8BB247F
S1132DE0B3940AC00F2EF5E0AF2EF02DBB24B3949C
S1132DF003C0A22CBB24B39480B38E3FF9F480911A
S1132E0006038130D9F480C1A4E7B3E08D919C918D
S1132E10FC01E456FC4F2081213051F4880F991FA6
S1132E20FC01E45FFC4F8081918101969183808352
S1132E303092060380B38F3F49F46DC180B38F3F56
S1132E4029F480910603823009F465C1F801848570
S1132E509585CC9794F01586148682859385019682
S1132E608C3391051CF49387828707C013861286DE
S1132E7080859185019691878087D601ED91FC919B
S1132E80EE0FFF1FE45FFC4F80819181F80197836F
S1132E908683B11059C0C7010E94C706823008F466
S1132EA041C1C7010E949B068983C7010E949B06FA
S1132EB08A8399819130B1F4813009F44AC0843015
S1132EC009F45EC0853009F489C0803159F4B4C076
S1132ED06894AA24A2F806C00F2EF5E0AF2EF02DB8
S1132EE001C0A22C41E061E084EB93E00E94020661
S1132EF0C798579860E08091E1039091E2030E94A3
S1132F00220ADC01ED91FC910084F185E02D099504
S1132F10C7010E94D20660E08091E1039091E20330
S1132F200E94220ADC01ED91FC910284F385E02DDC
S1132F3060E00995579A45E050E064EB73E0C701FF
S1132F400E945F06C79AEEC0B1E0BB1255CFAB1228
S1132F5014C0C7010E94C706863008F433CF5E014F
S1132F60E3E0AE0EB11CC7010E949B06D5018D9310
S1132F705D018A169B06B9F72ACFB4E0AB122BC0C9
S1132F80C7010E94C706863008F426CF5E01E3E03D
S1132F90AE0EB11CC7010E949B06D5018D935D0145
S1132FA0A815B905B9F78C8190E0CC970CF090CFB7
S1132FB0A80164EC73E0CE0101960E94850547E008
S1132FC050E064EC73E0C7010E945F066894AA2491
S1132FD0A2F8B12C11CFB5E0AB122BC0C7010E94EF
S1132FE0C706863008F4FECE5E01E3E0AE0EB11CE7
S1132FF0C7010E949B06D5018D935D01A815B905F3
S1133000B9F78C8190E0CC970CF066CF6BEC73E051
S1133010CE0101960E94A60548E050E06BEC73E0F7
S1133020C7010E945F060F2EF5E0AF2EF02DB12CE4
S1133030E3CEB0E1AB12E0CEC7010E94C7068930EF
S113304008F4D7CE5E01E3E0AE0EB11CC7010E94C6
S11330509B06D5018D935D01A415B505B9F7A801AB
S113306069EB73E0CE0101960E94BF058C8190E06C
S1133070CC970CF036CF8091BC038632E9F4F6018C
S113308020813181F901E456FC4F808181112CC0EB
S1133090E1E0F0E0D301ED93FC93A2E7B3E0ED931C
S11330A0FC93ECE9F3E081918130F1F086EA93E05E
S11330B08E179F07C1F738C08732B1F4D6018D91BE
S11330C09C91FC01E456FC4F2081213069F4FC0101
S11330D0E456FC4F108282E090E0F30191838083F8
S11330E0A2E7B3E01D921C926CEA73E0CE01019654
S11330F00E94E90548E050E06CEA73E0C7010E94D1
S11331005F06A22CB12C78CEF301808191810197C6
S113311009F08ECE79CE8AE090E00E94402310928E
S1133120060394CEB12C68CEF901E456FC4F81E03D
S11331308083A4E7B3E02D933C93D6CF8091D3034F
S11331409091D4030E943A06C59A08958091D503BC
S11331509091D6030E943A06C69A08954EE250E131
S113316060E570E080E00C9429080895CF93DF9324
S113317084E190E00E94CB09EC010E949809D0936D
S1133180E203C093E10382E090E00E948309EC0132
S11331900E940A09D093E003C093DF0384E090E027
S11331A00E941608FC01128213828BE491E0918341
S11331B08083F093DE03E093DD0344E0BF0180915C
S11331C0E1039091E2030E94C20988E090E00E942A
S11331D0120CEC010E94FE0B40E0BE018091E10361
S11331E09091E2030E94C20988E090E00E946F0B74
S11331F0EC010E945B0B41E0BE018091E1039091E0
S1133200E2030E94C20982E090E00E94370BEC01C5
S11332100E94310B42E0BE018091E1039091E203F0
S11332200E94C20982E090E00E9495092BE631E0F9
S1133230FC013183208343E0BC018091E103909140
S1133240E2030E94C20960E08091E1039091E203ED
S11332500E94F60961E08091E1039091E2030E94EB
S1133260F60962E08091E1039091E2030E94F6097D
S113327063E08091E1039091E2030E94F60964E027
S11332808091E1039091E2030E94F60948ED51E038
S113329060E08091E1039091E2030E94E2094EEF25
S11332A051E061E08091E1039091E2030E94E20920
S11332B0DF91CF910895CF92DF92EF92FF920F9317
S11332C0CF93DF93109271031092700380E090E02B
S11332D00E94882AD82E90E0909361038093600323
S11332E081E090E00E94882AD82F90E090936303B5
S11332F08093620382E090E00E94882AC82F90E0C5
S1133300909365038093640383E090E00E94882A8D
S1133310282F30E03093670320936603E8E0F3E05E
S1133320D082D183C2838383F89420DF4EE958E1AD
S113333060E08091E1039091E2030E94080A46EA6A
S113334058E161E08091E1039091E2030E94080A50
S11333504BE050E162E08091E1039091E2030E942E
S1133360080A4EEA58E163E08091E1039091E20398
S11333700E94080A4DE250E164E08091E1039091DB
S1133380E2030E94080A88E890E00E9437066C0174
S11333906091E1037091E20340E00E941206C114BF
S11333A0D10421F481E090E00E94A12A88E890E011
S11333B00E943706EC016091E1037091E20341E061
S11333C00E941206209721F481E090E00E94A12A35
S11333D0E3EDF3E0D182C082D383C2830E94190853
S11333E07894E12CF12C02E0960148EC50E065E27F
S11333F072E089EB96E1E8D69E0146E950E06BE283
S113340072E087ED95E1E0D620E030E048E552E057
S113341061E372E085E993E1D7D620E030E04CE245
S113342051E067E372E086E390E1CED620E030E03D
S113343040E550E061E372E08AED9AE1C5D6C2D777
S113344080E090E0DF91CF910F91FF90EF90DF90BB
S1133450CF9008954F925F926F927F928F929F9236
S1133460AF92BF92CF92DF92EF92FF920F931F938E
S1133470CF93DF93CDB7DEB728970FB6F894DEBFAE
S11334800FBECDBF6B017C01EEE0F8E025913591D4
S1133490459154910E94BD258823C4F002E118E0AF
S11334A021E02983F8016591759185919491A70193
S11334B096010E940C27181654F039813F5F398316
S11334C00C5F1F4F313A71F7198201C0198249818B
S11334D0A42FB0E09D0121503109F901EE0FFF1F27
S11334E0E453F94F4591559165917491FD01EE0FA7
S11334F0FF1FE453F94F6591759185919491AD0146
S1133500440F551F440F551F425F574FFA01459012
S1133510559065907490FA0185909590A590B4901B
S1133520F901EE0FFF1FEE0FFF1FE25FF74F25912A
S113353035914591549129833A834B835C830E944E
S11335405A266D837E838F839887A7019601C301D2
S1133550B2010E9458256B017C0129813A814B817B
S11335605C81C501B4010E9458259B01AC01C701CF
S1133570B6010E94C1259B01AC016D817E818F81C2
S113358098850E94582528960FB6F894DEBF0FBE82
S1133590CDBFDF91CF911F910F91FF90EF90DF90FE
S11335A0CF90BF90AF909F908F907F906F905F90DF
S11335B04F900895CF93DF9300D000D0CDB7DEB7FE
S11335C040E050E060EA70E4CE0101960E94DD061E
S11335D0312CC12C10E000E00F2EFBEADF2EF02D81
S11335E00F2EF0EFEF2EF2E0FF2EF02D0F2EF4E968
S11335F08F2EF3E09F2EF02D0F2EF2E9AF2EF3E085
S1133600BF2EF02DA091DD03B091DE031D9D912D01
S113361011249695892F880F980F612F691BED91BE
S1133620FC9111970284F385E02DCD01099587B1B2
S11336308F71782E8AE090E00E94402371102DC093
S113364084B165B170E0762F6627680F711D80E044
S113365090E00E945A2620E030E44CE950E40E94B5
S1133660102720E030E040E251E40E94C1252B0104
S11336703C01F7016081718180E090E00E945A264C
S11336809B01AC01C301B2010E9459250E942E2660
S1133690F701718360830F5F2AC0F1E07F1214C0C9
S11336A084B165B170E0762F6627680F711DCE0175
S11336B001960E944007F70122813381820F931FF4
S11336C093838283C39413C0F2E07F1210C084B149
S11336D095B1F70124813581280F311D892F90E0A0
S11336E0982F8827820F931F9583848333940E31F8
S11336F0A8F0F70120813181A9E8B8E80E94952754
S1133700929582958F7089279F708927F5019183FF
S11337108083F7011182108200E045C0FDE1FC15B1
S1133720B0F4F70122813381A9E8B8E80E94952713
S1133730929582958F7089279F7089270597F40148
S113374091838083F70113821282C12C2CC0FDE186
S1133750F31548F5F70124813581A9E8B8E80E94FA
S11337609527929582958F7089279F708927BC0130
S113377080E090E00E945A2621E233E240EA5BE3D3
S11337800E94102767DE20E030E040E251E40E940E
S113379010270E942926E6E9F3E071836083F7018C
S11337A015821482312C1F5F2DCF0895CF93DF93A0
S11337B0EC0130D68091E3039091E403892B31F43A
S11337C088EE93E09093E4038093E3032091E50370
S11337D03091E603C9018C0F9D1F833C49E0940797
S11337E070F42817390770F4C091E303D091E4030F
S11337F0C20FD31F9093E6038093E50305C0C0E096
S1133800D0E002C0C0E0D0E0C2D6CE01DF91CF91BB
S113381008950895FC010396928381832FEF3FEF6F
S113382034832383968385839087878310820895C6
S1133830FC01118610860895CF93DF939C01FB0150
S1133840DC011196CD91DC911297D383C2838C81D4
S11338509D81958384838C819D81DC0113967C9367
S11338606E9312977D836C8331872087F901808161
S11338708F5F8083DF91CF910895CF93DF93EB0126
S1133880488159814F3F2FEF520721F4FC01A78152
S1133890B0850DC0DC01139601C0DF011296ED91D5
S11338A0FC9113972081318142175307B0F7129688
S11338B0ED91FC911397FB83EA83D583C483BD8385
S11338C0AC831396DC93CE93129799878887FC0177
S11338D020812F5F2083DF91CF910895CF93DF93D1
S11338E0FC01A085B185C281D381848195819D83AA
S11338F08C83C481D581828193819B838A83119631
S11339008D919C911297E817F90731F48481958180
S113391012969C938E931197118610868C918150E8
S11339208C93DF91CF91089531E1FC01308331977D
S113393022E220833197A3E3A083319760833197F8
S1133940708331971082319760E8608331971082D9
S1133950319762E06083319763E06083319764E07C
S11339606083319765E06083319766E060833197C7
S113397067E06083319768E06083319769E0608332
S1133980319760E1608331973083319732E130833E
S1133990319733E13083319734E13083319735E126
S11339A03083319736E13083319737E13083319773
S11339B038E13083319739E13083319730E2308315
S11339C0319731E2308331972083319723E220838A
S11339D03197408331975083319726E22083319782
S11339E027E22083319728E22083319729E220833C
S11339F0319720E32083319721E32083869708952C
S1133A001BBC89EF8ABD8BE08EBD87B7806187BF01
S1133A10A0910F0EB091100ECD91CDBFDD91DEBF00
S1133A20FF91EF91DF91CF91BF91AF919F918F91D2
S1133A307F916F915F914F913F912F911F910F91C2
S1133A40FF90EF90DF90CF90BF90AF909F908F90BA
S1133A507F906F905F904F903F902F901F900F90AA
S1133A600FBE0F90089581E008950F920FB6F89459
S1133A700F921F9211242F923F924F925F926F9256
S1133A807F928F929F92AF92BF92CF92DF92EF92EA
S1133A90FF920F931F932F933F934F935F936F93D3
S1133AA07F938F939F93AF93BF93CF93DF93EF93C2
S1133AB0FF93A0910F0EB091100E0DB60D920EB69D
S1133AC00D9225D6A0910F0EB091100ECD91CDBFC1
S1133AD0DD91DEBFFF91EF91DF91CF91BF91AF9167
S1133AE09F918F917F916F915F914F913F912F9112
S1133AF01F910F91FF90EF90DF90CF90BF90AF9008
S1133B009F908F907F906F905F904F903F902F90F9
S1133B101F900F900FBE0F9008950F920FB6F89458
S1133B200F921F9211242F923F924F925F926F92A5
S1133B307F928F929F92AF92BF92CF92DF92EF9239
S1133B40FF920F931F932F933F934F935F936F9322
S1133B507F938F939F93AF93BF93CF93DF93EF9311
S1133B60FF93A0910F0EB091100E0DB60D920EB6EC
S1133B700D9256D48111CBD5A0910F0EB091100E99
S1133B80CD91CDBFDD91DEBFFF91EF91DF91CF915C
S1133B90BF91AF919F918F917F916F915F914F9161
S1133BA03F912F911F910F91FF90EF90DF90CF9055
S1133BB0BF90AF909F908F907F906F905F904F9049
S1133BC03F902F901F900F900FBE0F900895A5DF88
S1133BD018950F931F93CF93DF93EC01042F1A8D45
S1133BE04C8D41110BC088819981892B09F041C00A
S1133BF08A819B810BD71B821A8242C0011117C094
S1133C0050E08C819D810E94A4272C8D8C819D8104
S1133C10820F911D9D838C832A813B818217930798
S1133C2050F1888199819D838C8380E029C050E084
S1133C308E819F810E94A4278C8D90E0919581951F
S1133C4091092E813F81280F391F3F832E8348819C
S1133C5059812417350730F42A813B81820F931F41
S1133C609F838E83023049F4112349F0115080E080
S1133C7007C080E005C080E003C080E001C080E0B0
S1133C801F5F1A8FDF91CF911F910F910895FC014F
S1133C90448D4423A9F050E026813781240F351F39
S1133CA037832683828193812817390720F0808106
S1133CB0918197838683CB01668177810C94A427B5
S1133CC00895EF92FF920F931F93CF938C010FB639
S1133CD0F8940F92FC01C68D1C169CF48189811105
S1133CE006C00FC0F8018189811105C00AC078019E
S1133CF0F1E1EF0EF11CC7019AD5811121D6C15013
S1133D0089F78FEFF801868F0F900FBE0FB6F894E6
S1133D100F92C58D1C169CF48085811106C00FC0BE
S1133D20F8018085811105C00AC07801F8E0EF0E22
S1133D30F11CC7017CD5811103D6C15089F78FEFDF
S1133D40F801858F0F900FBECF911F910F91FF90B7
S1133D50EF900895CF93DF93EC010FB6F8940F9290
S1133D60488159812C8D30E07B8D729FC001739FF7
S1133D70900D1124FA01E80FF91FFB83EA831A8ED0
S1133D805D834C83821B930B840F951F9F838E83CB
S1133D908FEF8D8F8E8F61110AC08885882369F01B
S1133DA0CE01089644D5882341F05FDE06C0CE01DB
S1133DB0089630DDCE0141962DDD0F900FBE81E0D7
S1133DC0DF91CF9108950F931F93CF93DF93082F23
S1133DD0162F6623B1F0869FC00111244F96E6DCAE
S1133DE0EC01009739F413C00B8F1C8F61E0CE01F6
S1133DF0B1DF0DC04F9699838883F6CFD983C883EA
S1133E00F3CF8FE190E0D2DCEC01892BB9F7CE013E
S1133E10DF91CF911F910F9108959F92AF92BF921E
S1133E20CF92DF92EF92FF920F931F93CF93DF9382
S1133E3000D000D01F92CDB7DEB78C016B015D833B
S1133E404C83A22EB12C992493947C0188E0E80E33
S1133E50F11C0FB6F8940F92F801928D838D981788
S1133E6018F0F2E0AF1215C04A2DB601C801B1DE58
S1133E70F8019189992339F0C8014196D8D488234F
S1133E8021F0F3DD02C08111F0DD0F900FBE81E05F
S1133E9045C08C819D81892B21F40F900FBE80E059
S1133EA03DC0B11004C0CE01019607D5B92C0F90C6
S1133EB00FBEB0D20FB6F8940F92F801858D8F3FE4
S1133EC009F4158EF801868D8F3F09F4168E0F9034
S1133ED00FBEBE016C5F7F4FCE010196F9D48111F4
S1133EE019C00FB6F8940F92F801928D0F900FBE7F
S1133EF0838D98130BC06C817D81C70188D4C80160
S1133F00E0DE45D38111A5CFB0DDA3CFC801D9DE52
S1133F103ED39FCFC801D5DE3AD380E00F900F90F7
S1133F200F900F900F90DF91CF911F910F91FF9001
S1133F30EF90DF90CF90BF90AF909F900895CF9374
S1133F40DF93482F60E081E03EDFEC01009759F0F9
S1133F501B821A82198218821E8220E040E050E0FF
S1133F6060E070E05ADFCE01DF91CF9108958F9227
S1133F709F92AF92BF92CF92DF92EF92FF920F93F4
S1133F801F93CF93DF9300D000D01F92CDB7DEB73D
S1133F908C015B015D834C83822EE12C99249394E4
S1133FA06C0181E1C80ED11C0FB6F8940F92F80190
S1133FB0F28CFF2061F1C680D780B501C80167DEAD
S1133FC0811016C0FA94F801F28E80819181892BB8
S1133FD021F45CD5F80193838283F80180858823DA
S1133FE091F0C801089623D4882369F03EDD0BC004
S1133FF0F801D782C6828189882329F0C8014196B5
S113400016D4811132DD0F900FBE81E058C08C812F
S11340109D81892B21F40F900FBE80E050C0E110E8
S113402004C0CE01019649D4E92C0F900FBEF2D101
S11340300FB6F8940F92F801858D8F3F09F4158E11
S1134040F801868D8F3F09F4168E0F900FBEBE01C6
S11340506C5F7F4FCE0101963BD4811124C00FB613
S1134060F8940F92F801828D0F900FBE811117C042
S113407080819181892B41F40FB6F8940F9282814B
S1134080938162D40F900FBE6C817D81C601BFD332
S1134090C80117DE7CD2811187CFE7DC85CFC80148
S11340A010DE75D281CFC8010CDE71D20FB6F89440
S11340B00F92F801828D0F900FBE811175CF0F9072
S11340C00F900F900F900F90DF91CF911F910F9150
S11340D0FF90EF90DF90CF90BF90AF909F908F9024
S11340E00895E091D70DF091D80D8081811107C01A
S11340F08FEF9FEF9093AF0D8093AE0D0895E091F5
S1134100D70DF091D80D0580F681E02D0680F7815A
S1134110E02D828193819093AF0D8093AE0D08952D
S1134120FF920F931F93CF93DF93EC01F62E009130
S1134130B60D1091B70D80910F0E9091100E02964E
S1134140CDDBCF3F8FEFD80761F4FF2051F06091B2
S11341500F0E7091100E6E5F7F4F89EB9DE06CDB4C
S11341602DC0C00FD11FE0910F0EF091100ED3831C
S1134170C283C017D10760F460910F0E7091100EC6
S11341808091D50D9091D60D6E5F7F4F76DB16C072
S113419060910F0E7091100E8091D70D9091D80DF3
S11341A06E5F7F4F6ADB8091AE0D9091AF0DC817A3
S11341B0D90720F4D093AF0DC093AE0DDF91CF910A
S11341C01F910F91FF9008954F925F926F927F928B
S11341D08F929F92AF92BF92CF92DF92EF92FF9213
S11341E00F93CF93DF934C016B015A012901CA014C
S11341F0DDDA3C01892B09F4D4C088E290E0D6DAF8
S1134200EC01892B71F0788E6F8A81E0A81AB108CD
S11342106A0C7B1CD6018C91898F8C91811104C00E
S113422017C0C301F6DABDC0AE01465E5F4FF601AA
S11342303196B8E0CB0ED11CCF012191DA012D9338
S1134240AD01DC018C91882319F0EC15FD05A1F773
S113425018A2043008F003E00E8B09A31AA26E0121
S1134260B2E0CB0ED11CC601E3DACE010C96E0DA43
S1134270D987C88784E090E0801B91099D878C874B
S1134280DB8BCA8B1BA21CA21DA21EA21FA2A20111
S1134290B401C30149DB99838883E114F10419F063
S11342A0F701D183C0830FB6F8940F928091B80DB3
S11342B08F5F8093B80D80910F0E9091100E892B13
S11342C089F5D093100EC0930F0E8091B80D8130F4
S11342D009F038C08BEE9DE09DDA84EF9DE09ADA18
S11342E08DEF9DE097DA86E09EE094DA82EE9DE021
S11342F091DA89ED9DE08EDA8CEC9DE08BDA83EC2B
S11343009DE088DA89EB9DE085DA82EE9DE090936A
S1134310D80D8093D70D89ED9DE09093D60D8093B1
S1134320D50D10C08091B40D81110CC0E0910F0E19
S1134330F091100E96898E89891720F0D093100E73
S1134340C0930F0E8091B00D8F5F8093B00D8E8956
S11343509091B50D981710F48093B50D90E09C01E1
S1134360220F331F220F331F220F331F820F931F7D
S1134370B6018551924F60DA0F900FBE8091B40D53
S1134380882359F0E0910F0EF091100E96898E89D2
S1134390981728F46ADB81E005C081E003C081E05E
S11343A001C08FEFDF91CF910F91FF90EF90DF90DD
S11343B0CF90BF90AF909F908F907F906F905F90C1
S11343C04F900895EF92FF920F930F2EFCEAEF2E79
S11343D0FDE0FF2EF02D00E020E030E045E550E068
S11343E06DE372E080E593E2EFDE813079F4F894D6
S11343F08FEF9FEF9093AF0D8093AE0D81E080938C
S1134400B40D1092B70D1092B60DFADA0F91FF9019
S1134410EF9008958091AB0D8F5F8093AB0D08955D
S1134420CF92DF92EF92FF920F931F93CF93DF937C
S11344308091AB0D811195C0E090B60DF090B70D51
S11344408FEFE81AF80AF092B70DE092B60DE11476
S1134450F104B1F48091D70D9091D80D2091D50D30
S11344603091D60D3093D80D2093D70D9093D60D5F
S11344708093D50D8091B10D8F5F8093B10D31DEA6
S11344808091AE0D9091AF0DE816F90610F4D12C81
S113449050C0D12CCC24C394E091D70DF091D80D09
S11344A08081811107C08FEF9FEF9093AF0D8093B0
S11344B0AE0D3FC0E091D70DF091D80D0580F68187
S11344C0E02DC681D7818A819B81E816F90628F4FC
S11344D09093AF0D8093AE0D2CC08E010E5F1F4FD5
S11344E0C801FCD98C899D89892B19F0CE010C96C1
S11344F0F5D98E899091B50D981710F48093B50D68
S113450090E09C01220F331F220F331F220F331F11
S1134510820F931FB8018551924F8ED9E0910F0EEF
S1134520F091100E9E898689981708F4B5CFDC2C7B
S1134530B3CFE0910F0EF091100E868990E0FC014C
S1134540EE0FFF1FEE0FFF1FEE0FFF1F8E0F9F1FBB
S1134550FC01E551F24F8081823048F0DD24D39490
S113456006C08091B30D8F5F8093B30DD12C8091E1
S1134570B20D882311F0DD24D3948D2DDF91CF91DA
S11345801F910F91FF90EF90DF90CF900895DF92ED
S1134590EF92FF920F931F93CF93DF930FB6F8948C
S11345A00F928091AB0D81508093AB0D8091AB0D38
S11345B0811159C08091B80D811130C057C0D70105
S11345C01596ED91FC911697C681D781CE010C9674
S11345D085D98E010E5F1F4FC80180D98E899091B5
S11345E0B50D981710F48093B50D90E09C01220F3F
S11345F0331F220F331F220F331F820F931FB80163
S11346008551924F19D9E0910F0EF091100E9E89A9
S11346108689981768F0D092B20D0AC0C0E0D0E045
S11346200F2EFCECEF2EFDE0FF2EF02DDD24D394B5
S1134630F70180818111C3CFCD2B09F052DDC091E8
S1134640B30DCC2349F0D1E0EBDE8111D093B20D50
S1134650C150D1F71092B30D8091B20D882329F087
S113466004DA81E003C080E001C080E00F900FBE57
S1134670DF91CF911F910F91FF90EF90DF900895FC
S1134680CF93DF93EC01892B39F0C4DE60E0CE01D7
S113469047DD7DDF811101C0E8D9DF91CF91089515
S11346A003EC1DE00F2EFBEEEF2EFDE0FF2EF02DB0
S11346B024C0B0DED801CC916ADFCC23F1F00FB670
S11346C0F8940F92D8011596ED91FC911697C68136
S11346D0D781CE01029602D98091B80D8150809382
S11346E0B80D8091C20D81508093C20D0F900FBE02
S11346F08F89988D8ED8CE018CD88091C20D81116E
S1134700D8CFF70180818230C0F3AFD9F6CF809142
S1134710AB0D882321F081E08093B20D08951092AF
S1134720B20DA0910F0EB091100EE0910F0EF0910A
S1134730100E2D913C918789908D8217930758F024
S113474060910F0E7091100E80910F0E9091100ECB
S1134750675E7F4F2AD82091B50D822F90E0FC012F
S1134760EE0FFF1FEE0FFF1FEE0FFF1FE80FF91FE5
S1134770E551F24F3081311111C02150822F90E068
S1134780FC01EE0FFF1FEE0FFF1FEE0FFF1FE80FE0
S1134790F91FE551F24F3081332379F3AC01440F13
S11347A0551F440F551F440F551F480F591FDA0159
S11347B0A551B24F1196ED91FC9112970280F381AD
S11347C0E02D1296FC93EE9311974251524FE41749
S11347D0F50729F442815381FD0152834183FC0191
S11347E0EE0FFF1FEE0FFF1FEE0FFF1F8E0F9F1F19
S11347F0FC01E551F24F0180F281E02D8681978121
S11348009093100E80930F0E2093B50D0895CF93BF
S1134810DF93EB0160910F0E7091100E645F7F4F78
S11348202CD861E0CE017CDCDF91CF9108950F9309
S11348301F93CF93DF93DC011596ED91FC911697AE
S1134840C681D7818E01045F1F4FC80147D880916C
S1134850AB0D81111BC00A501109C8013FD88E89C4
S11348609091B50D981710F48093B50D90E09C01CC
S1134870220F331F220F331F220F331F820F931F68
S1134880B8018551924F0E941C1C05C0B8018CECE4
S11348909DE00E941C1CE0910F0EF091100E9E8969
S11348A08689891720F481E08093B20D01C080E0ED
S11348B0DF91CF911F910F9108952091B10DFC01CB
S11348C020832091B60D3091B70D32832183089552
S11348D00FB6F8940F924091B60D5091B70DDB01CD
S11348E02D913C912F3FBFEF3B0711F1E091B10DAA
S11348F0DC01FC91FE1739F01196ED91FC911297B1
S11349004E175F07B8F4DC011196ED91FC911297F4
S1134910DA01AE1BBF0BA217B30770F4DB01E41B73
S1134920F50B2E0F3F1F2D933C93C7DF80E005C08E
S113493080E003C081E001C081E00F900FBE0895C4
S113494081E08093B20D08950F931F93CF93DF936B
S1134950FC01892B09F455C02689A0910F0EB09152
S1134960100E56968C91281708F04BC084859585B7
S1134970992364F0A0910F0EB091100E56963C91BD
S113498084E090E0831B91099587848730E0C90116
S1134990880F991F880F991F880F991F280F391F97
S11349A02551324F828593858217930719F58F011C
S11349B0EF012296CE010E946E1CE0910F0EF09141
S11349C0100E8689F801868B9091B50D981710F416
S11349D08093B50D90E09C01220F331F220F331FEB
S11349E0220F331F820F931FBE018551924F0E94E5
S11349F01C1C07C0A0910F0EB091100E56968C91FE
S1134A00868BDF91CF911F910F9108950F931F9380
S1134A10CF93DF93FC01892B79F182A1815082A38A
S1134A20268991A1291751F181112AC0EF018F0123
S1134A300E5F1F4FC8010E946E1C89A18E8B24E05B
S1134A4030E0281B31093D872C879091B50D9817CC
S1134A5010F48093B50D90E09C01220F331F220FB8
S1134A60331F220F331F820F931FB8018551924FBA
S1134A700E941C1C81E005C080E003C080E001C0EE
S1134A8080E0DF91CF911F910F91089580910F0ED7
S1134A909091100E892B39F0E0910F0EF091100EC9
S1134AA082A18F5F82A380910F0E9091100E0895C2
S1134AB05058BB27AA270ED075C166D130F06BD1F0
S1134AC020F031F49F3F11F41EF45BC10EF4E09525
S1134AD0E7FB51C1E92F77D180F3BA176207730757
S1134AE08407950718F071F49EF58FC10EF4E095D4
S1134AF00B2EBA2FA02D0B01B90190010C01CA0194
S1134B00A0011124FF27591B99F0593F50F4503E3E
S1134B1068F11A16F040A22F232F342F4427585F30
S1134B20F3CF469537952795A795F0405395C9F748
S1134B307EF41F16BA0B620B730B840BBAF0915000
S1134B40A1F0FF0FBB1F661F771F881FC2F70EC09F
S1134B50BA0F621F731F841F48F487957795679572
S1134B60B795F7959E3F08F0B3CF9395880F08F05B
S1134B709927EE0F979587950895D9D008F481E089
S1134B8008950CD00FC107D140F0FED030F021F4CD
S1134B905F3F19F0F0C0511139C1F3C014D198F33B
S1134BA09923C9F35523B1F3951B550BBB27AA27AA
S1134BB062177307840738F09F5F5F4F220F331F1C
S1134BC0441FAA1FA9F333D00E2E3AF0E0E830D0E8
S1134BD091505040E695001CCAF729D0FE2F27D0EB
S1134BE0660F771F881FBB1F261737074807AB07B9
S1134BF0B0E809F0BB0B802DBF01FF2793585F4F2E
S1134C002AF09E3F510568F0B6C000C15F3FECF347
S1134C10983EDCF3869577956795B795F7959F5FF2
S1134C20C9F7880F911D9695879597F90895E1E046
S1134C30660F771F881FBB1F621773078407BA07A5
S1134C4020F0621B730B840BBA0BEE1F88F7E09500
S1134C50089504D06894B111D9C00895BCD088F0E7
S1134C609F5790F0B92F9927B751A0F0D1F0660F54
S1134C70771F881F991F1AF0BA95C9F712C0B1306F
S1134C8081F0C3D0B1E00895C0C0672F782F882782
S1134C90B85F39F0B93FCCF3869577956795B395AE
S1134CA0D9F73EF490958095709561957F4F8F4F1D
S1134CB09F4F0895E89409C097FB3EF49095809522
S1134CC0709561957F4F8F4F9F4F9923A9F0F92FCE
S1134CD096E9BB279395F695879577956795B7954C
S1134CE0F111F8CFFAF4BB0F11F460FF1BC06F5F32
S1134CF07F4F8F4F9F4F16C0882311F096E911C044
S1134D00772321F09EE8872F762F05C0662371F064
S1134D1096E8862F70E060E02AF09A95660F771F78
S1134D20881FDAF7880F9695879597F90895990F54
S1134D300008550FAA0BE0E8FEEF16161706E80761
S1134D40F907C0F012161306E407F50798F0621B82
S1134D50730B840B950B39F40A2661F0232B242B57
S1134D60252B21F408950A2609F4A140A6958FEF76
S1134D70811D811D089597F99F6780E870E060E0C8
S1134D8008959FEF80EC089500240A9416161706E0
S1134D9018060906089500240A9412161306140628
S1134DA005060895092E0394000C11F4882352F08B
S1134DB0BB0F40F4BF2B11F460FF04C06F5F7F4F43
S1134DC08F4F9F4F089557FD9058440F551F59F02A
S1134DD05F3F71F04795880F97FB991F61F09F3FE4
S1134DE079F087950895121613061406551FF2CF0D
S1134DF04695F1DF08C0161617061806991FF1CF5D
S1134E0086957105610508940895E894BB27662783
S1134E107727CB0197F908958ADF08F48FEF089577
S1134E200BD0C0CFB1DF28F0B6DF18F0952309F01E
S1134E30A2CFA7CF1124EACFC6DFA0F3959FD1F369
S1134E40950F50E0551F629FF001729FBB27F00D34
S1134E50B11D639FAA27F00DB11DAA1F649F662789
S1134E60B00DA11D661F829F2227B00DA11D621FD8
S1134E70739FB00DA11D621F839FA00D611D221F92
S1134E80749F3327A00D611D231F849F600D211D76
S1134E90822F762F6A2F11249F5750408AF0E1F019
S1134EA088234AF0EE0FFF1FBB1F661F771F881F62
S1134EB091505040A9F79E3F510570F05CCFA6CFAA
S1134EC05F3FECF3983EDCF3869577956795B7954D
S1134ED0F795E7959F5FC1F7FE2B880F911D969577
S1134EE0879597F90895A1E21A2EAA1BBB1BFD0111
S1134EF00DC0AA1FBB1FEE1FFF1FA217B307E407B5
S1134F00F50720F0A21BB30BE40BF50B661F771F0C
S1134F10881F991F1A9469F76095709580959095EC
S1134F209B01AC01BD01CF010895A29FB001B39FC5
S1134F30C001A39F700D811D1124911DB29F700D9E
S1134F40811D1124911D0895FB01DC0102C0019013
S1134F500D9241505040D8F708950F931F93CF936B
S1134F60DF93CDB7DEB72E970FB6F894DEBF0FBE32
S1134F70CDBF0D891E8986E08C831A8309838FEF48
S1134F809FE79E838D83AE01475E5F4F6F89788D67
S1134F90CE01019610D0EF81F885E00FF11F108249
S1134FA02E960FB6F894DEBF0FBECDBFDF91CF9122
S1134FB01F910F9108952F923F924F925F926F929B
S1134FC07F928F929F92AF92BF92CF92DF92EF9295
S1134FD0FF920F931F93CF93DF93CDB7DEB72B9739
S1134FE00FB6F894DEBF0FBECDBF6C017B018A0102
S1134FF0FC0117821682838181FFBFC1CE01019615
S11350003C01F6019381F70193FD859193FF819112
S11350107F01882309F4ADC1853239F493FD85916C
S113502093FF81917F01853221F4B60190E0D6D1BE
S1135030E8CF912C212C312CFFE1F315D8F08B32E1
S113504079F038F4803279F08332A1F4232D206191
S11350501DC08D3261F0803369F4232D216016C0A8
S1135060832D8260382EE32DE4603E2E2AC0F32D7A
S1135070F8601DC037FC2DC020ED280F2A3040F009
S11350808E32B9F436FC75C1232D2064322E19C03A
S113509036FE06C08AE0989E200D1124922E11C07F
S11350A0EAE02E9E200D1124222EF32DF0623F2ED5
S11350B008C08C3621F4832D8068382E02C08836CF
S11350C041F4F70193FD859193FF81917F01811153
S11350D0B3CF982F9F7D9554933028F40C5F1F4FC6
S11350E09FE399830DC0833631F0833771F08335A4
S11350F009F055C020C0F801808189830E5F1F4FDD
S113510088248394912C530112C02801F2E04F0E9D
S1135110511CF801A080B18036FE03C0692D70E0F7
S113512002C06FEF7FEFC5014ED14C018201F32D18
S1135130FF773F2E15C0280122E0420E511CF801D2
S1135140A080B18036FE03C0692D70E002C06FEF0D
S11351507FEFC5012DD14C01F32DF0683F2E820164
S113516033FC19C0822D90E088169906A0F4B6018C
S113517080E290E033D12A94F5CFF50137FC859194
S113518037FE81915F01B60190E028D121102A9465
S113519021E0821A91088114910479F7E1C08436E0
S11351A011F0893639F5F80137FE07C06081718145
S11351B0828193810C5F1F4F08C060817181072E2B
S11351C0000C880B990B0E5F1F4FF32DFF763F2EBB
S11351D097FF09C090958095709561957F4F8F4F8B
S11351E09F4FF0683F2E2AE030E0A30133D1882E90
S11351F0861844C0853731F4232D2F7EB22E2AE041
S113520030E025C0932D997FB92E8F36C1F018F464
S1135210883579F0AEC0803719F0883721F0A9C0FD
S1135220E92FE061BE2EB4FE0DC0FB2DF460BF2E4D
S113523009C034FE0AC0292F2660B22E06C028E019
S113524030E005C020E130E002C020E132E0F801A6
S1135250B7FE07C060817181828193810C5F1F4F0B
S113526006C06081718180E090E00E5F1F4FA30152
S1135270F1D0882E8618FB2DFF773F2E36FE0DC009
S1135280232D2E7FA22E891458F434FE0BC032FC39
S113529009C0832D8E7EA82E05C0B82CA32C03C074
S11352A0B82C01C0B92CA4FE0FC0FE01E80DF11DFD
S11352B08081803321F49A2D997EA92E09C0A2FE03
S11352C006C0B394B39404C08A2D867809F0B394CD
S11352D0A3FC10C0A0FE06C0B21480F4280C922CCB
S11352E09B180DC0B21458F4B60180E290E076D059
S11352F0B394F8CFB21418F42B1802C0982C212CB4
S1135300A4FE0FC0B60180E390E068D0A2FE16C0F0
S1135310A1FC03C088E790E002C088E590E0B601F4
S11353200CC08A2D867851F0A1FE02C08BE201C028
S113533080E2A7FC8DE2B60190E050D0891430F4ED
S1135340B60180E390E04AD09A94F8CF8A94F301AE
S1135350E80DF11D8081B60190E040D08110F6CFB8
S1135360222009F44ECEB60180E290E037D02A9490
S1135370F7CFF6018681978102C08FEF9FEF2B96BE
S11353800FB6F894DEBF0FBECDBFDF91CF911F9152
S11353900F91FF90EF90DF90CF90BF90AF909F90D0
S11353A08F907F906F905F904F903F902F900895D3
S11353B0FC010590615070400110D8F780959095DC
S11353C08E0F9F1F0895FC016150704001900110E1
S11353D0D8F7809590958E0F9F1F08950F931F9374
S11353E0CF93DF93FB01238121FD03C08FEF9FEF58
S11353F02CC022FF16C04681578124813581421773
S1135400530744F4A081B1819D012F5F3F4F318345
S113541020838C93268137812F5F3F4F37832683E8
S113542014C08B01EC01FB010084F185E02D09958A
S1135430892BE1F6D80116968D919C9117970196C8
S113544017969C938E931697CE01DF91CF911F915F
S11354500F910895FA01AA27283051F1203181F1E2
S1135460E8946F936E7F6E5F7F4F8F4F9F4FAF4F68
S1135470B1E03ED0B4E03CD0670F781F891F9A1F7B
S1135480A11D680F791F8A1F911DA11D6A0F711D2F
S1135490811D911DA11D20D009F468943F912AE03B
S11354A0269F11243019305D3193DEF6CF01089523
S11354B0462F4770405D4193B3E00FD0C9F7F6CF54
S11354C0462F4F70405D4A3318F0495D31FD40521C
S11354D0419302D0A9F7EACFB4E0A69597958795B2
S11354E077956795BA95C9F7009761057105089591
S11354F09B01AC010A2E069457954795379527953D
S1135500BA95C9F7620F731F841F951FA01D0895D4
S1135510E199FECF9FBB8EBBE09A99278DB3089586
S1135520262FE199FECF9FBB8EBBE09A01970DB267
S1135530021631F02DBB0FB6F894E29AE19A0FBE31
S10955400895F894FFCF6A
S1135546505455581000240102040810101010106D
S113555608040201010101010101010204081010FD
S1135566101010080402010102060E1E1612111074
S1135576080C0E0F0D091111090D0F0E0C08101150
S1135586121E1E0E06020100000000060813080380
S113559608040805080B0800000000F7089008D85E
S11355A6080408050892080000000086099008030C
S11355B60804080508920800000000210B9008035F
S11355C608040805089208000000003A0B9008C277
S11355D60B960B0508920800000000E10B90086189
S11355E60C350C050892084950203A002564002E13
S11355F6004D41433A0025780053656E736F72205F
S11356064761746577617900424C55452D42495A84
S11356162E434F2E4C5444005561727420496E69D2
S113562674205355434345535320626F616472613A
S113563674652039363030627073200D0A00525377
S113564634383520496E69742053554343455353C2
S113565620626F616472617465203936303062701D
S113566673200D0A005461736B31005461736B32FD
S1135676005461736B33005461736B340049444CBA
S10556864500D9
S9030000FC
