S00C000052544F532E73726563D0
S113000045C0000088C3000060C000005EC000005E
S11300105CC000005AC0000058C0000056C0000078
S113002054C000004BC4000050C000004EC000008B
S11300300C949A0F4AC0000048C00000E1C10000BF
S113004044C0000042C00000D5C200003EC0000011
S11300503CC000003AC0000038C0000036C00000B8
S113006034C0000032C0000030C000002EC00000C8
S113007022C300002AC00000EDC2000026C0000018
S113008024C0000022C0000020C0000011241FBEB4
S1130090CFEFD0E1DEBFCDBF11E0A0E0B1E0E0EEF4
S11300A0F0E300E00BBF02C007900D92AC39B1073A
S11300B0D9F72DE0ACE9B1E001C01D92A03DB20733
S11300C0E1F70E94D80C0C946E189ACFFC01680FCB
S11300D0791F8FEF9FEFE617F70799F02191822799
S11300E028E030E0AC014170552796958795452B63
S11300F021F041E0842740EA94272150310991F707
S1130100EACF0895CF93DF93DC01EB018C918883D0
S113011011968C911197898313968C9192E09A830E
S1130120E82FF0E0EE0FFF1FE40FF51F81818B83B2
S113013080818C8365E070E0CE01C8DF9E838D836F
S1130140DF91CF910895CF93DF93FC01EB01808180
S113015088838181898382818A8383818B8384815B
S11301608C8385818D8366E070E0CE01AFDF9F8351
S11301708E83DF91CF910895CF93DF93FC01EB0140
S1130180808188838181898382818A8383818B832F
S113019094819C8395819D8396819E8327812F835F
S11301A090859887E82FF0E0EE0FFF1FE40FF51F0E
S11301B0892F90E0922B9183808369E070E0CE01D7
S11301C085DF9A878987DF91CF910895CF93DF9355
S11301D0FC01EB01808188838181898382818A8308
S11301E083818B8384818C8385818D8366E070E039
S11301F0CE016CDF9F838E83DF91CF910895CF93DF
S1130200DF93EC01688381E889834A8363E070E0CB
S1130210CE015CDF9C838B83DF91CF9108951F9384
S1130220CF93DF93EC01CB01142FFE01EA57FF4F6C
S113023071836083642FC8D1882371F0FE01EB576A
S1130240FF4F108331971082349711821082CE575A
S1130250DF4F1982188204C0CA57DF4F19821882EF
S1130260DF91CF911F9108950C94890D0895FC019D
S1130270E058FF4F20812F5F2F7719F411821082ED
S113028021E030E0FC01EE57FF4F408151812417FB
S1130290350789F0DC01A058BF4FED91FC9111970F
S11302A0E80FF91F61832D933C93FC01EC57FF4F3A
S11302B080818F5F80830895AF92BF92CF92DF9247
S11302C0EF92FF920F931F93CF938C016B017A01EE
S11302D0DC01AB57BF4FFC01EA57FF4F6C918081A3
S11302E091817FD1892BD1F01E141F04BCF4C0E08E
S11302F0580185E8A80EB11C0A571F4FF601EC0FF0
S1130300F11D4081F5016081F8018081918115D151
S1130310CF5F2C2F30E02E153F0584F3CF911F9132
S11303200F91FF90EF90DF90CF90BF90AF90089522
S1130330FC01EE57FF4F208131813297408151817A
S113034042175307E9F02F5F3F4FFC01E20FF31F01
S113035040812F773327FC01EE57FF4F31832083F1
S11303603296608170E02617370761F43297118264
S1130370108232971182108234961082842F08954D
S11303808FEF0895842F0895DC01A058BF4FFC011E
S1130390EE57FF4F8C919081891B8F770895FC0154
S11303A0EE57FF4F118210823297118210823496D9
S11303B0108208958CE083BF8CE781BF87B7826089
S11303C087BF089587B78D7F87BF089587B78260F9
S11303D087BF089590E0FC01EE0FFF1FDF01A80F17
S11303E0B91FAA0FBB1FA456BE4F11967C936E93E0
S11303F013961C921E921297FD015583448308950F
S11304001F920F920FB60F9211240BB60F92EF9218
S1130410FF920F931F932F933F934F935F936F9389
S11304207F938F939F93AF93BF93CF93DF93EF9378
S1130430FF93CCE9D1E00F2EFAEBEF2EF1E0FF2E83
S1130440F02DEC81FD81309779F08A819B810196B2
S11304509B838A83288139818217930729F41B821D
S11304601A8209951D821C822696CE15DF0549F74E
S1130470FF91EF91DF91CF91BF91AF919F918F91B8
S11304807F916F915F914F913F912F911F910F91A8
S1130490FF90EF900F900BBE0F900FBE0F901F9028
S11304A0189580E008950895089511BA8FEF82BBDE
S11304B0EAE6F0E080818260808380818E7F8083A1
S11304C089B7816089BF08950C94890D089528E047
S11304D0DC01E22F1D92EA95E9F7FC013896DF0171
S11304E01D922A95E9F79093BB018093BA01089570
S11304F0CF93DF938091BA019091BB01892B51F482
S113050080E190E00E94890DEC01E1DFD093BB0112
S1130510C093BA018091BA019091BB01DF91CF9150
S1130520089550E0440F551F840F951FFC017183FB
S1130530608308950C94890D0895262F30E0220FCE
S1130540331F820F931FDC018D919C91009741F022
S1130550642FDC01ED91FC910680F781E02D099573
S11305600895262F30E0220F331F820F931FDC01E2
S11305708D919C91009741F0BA01DC01ED91FC91C1
S11305800480F581E02D0995089570E0660F771FCA
S1130590860F971FDC018D919C91009739F0DC0147
S11305A0ED91FC910190F081E02D09950895E62FDD
S11305B0F0E0EE0FFF1FE80FF91F80819181892B76
S11305C011F051874087089570E0660F771FFC0192
S11305D0E60FF71F81E020813181232B09F480E0AD
S11305E0089570E0660F771F860F971FFC018081C6
S11305F0918108951F920F920FB60F9211240BB69A
S11306000F922F933F934F935F936F937F938F93A7
S11306109F93AF93BF93EF93FF936ADF6CB170E046
S1130620DC011896ED91FC91199780E00995FF91F2
S1130630EF91BF91AF919F918F917F916F915F9156
S11306404F913F912F910F900BBE0F900FBE0F90C3
S11306501F9018951F920F920FB60F9211240BB68C
S11306600F922F933F934F935F936F937F938F9347
S11306709F93AF93BF93EF93FF933ADF60919C00F6
S113068070E0DC011A96ED91FC911B9781E00995CD
S1130690FF91EF91BF91AF919F918F917F916F9156
S11306A05F914F913F912F910F900BBE0F900FBE12
S11306B00F901F9018951F920F920FB60F9211244E
S11306C00BB60F922F933F934F935F936F937F9348
S11306D08F939F93AF93BF93EF93FF9309DFDC0155
S11306E01C96ED91FC911D9760E070E082E0099505
S11306F0FF91EF91BF91AF919F918F917F916F91F6
S11307005F914F913F912F910F900BBE0F900FBEB1
S11307100F901F9018951F920F920FB60F921124ED
S11307200BB60F922F933F934F935F936F937F93E7
S11307308F939F93AF93BF93EF93FF93D9DEDC0125
S11307401E96ED91FC911F9760E070E083E009959F
S1130750FF91EF91BF91AF919F918F917F916F9195
S11307605F914F913F912F910F900BBE0F900FBE51
S11307700F901F90189580E480938B0084E0809301
S11307808A0088E09DE3909387008093860082E04E
S113079080937D00089527E131E0FC0131832083BB
S11307A008950C94890D0895CF93DF93EC01109272
S11307B09B0088E980939A0086E080939D00BE01A7
S11307C06E5F7F4FCE0119D11092980090939900DB
S11307D081E00E9452119F838E8381E00E94521116
S11307E09D838C83DF91CF91089523E231E0FC0156
S11307F03183208320E835E2338322832091BC01B6
S11308003091BD01232B21F49093BD018093BC0151
S113081008950C94890D08951F93CF93DF93EC01F1
S1130820162F20E044E650E060E070E08C819D816A
S11308300E946A11813081F4EBE9F0E0808185FF48
S1130840FDCF10939C0020E040E050E060E070E0B9
S11308508C819D810E94C010DF91CF911F910895DA
S1130860DBCF08950F931F93CF93DF938C01EB019C
S113087020E044E650E060E070E0FC01868197816E
S11308800E946A11813099F46881662331F02196BF
S1130890C801C2DF69916111FBCF20E040E050E064
S11308A060E070E0F801868197810E94C010DF91BA
S11308B0CF911F910F910895D5CF08951F920F9254
S11308C00FB60F9211240BB60F928F939F93EF9351
S11308D0FF93E7EEF3E08681978101969783868301
S11308E0FF91EF919F918F910F900BBE0F900FBED0
S11308F00F901F901895CF93DF93EC0188E98AB984
S113090086E080939500BE016E5F7F4FCE0175D067
S11309101092900099B981E00E9452119F838E83B6
S113092081E00E9452119D838C83DF91CF910895C1
S11309302FE231E0FC013183208320EC32E1338368
S113094022832091BE013091BF01232B21F4909387
S1130950BF018093BE0108950C94890D08951F93DF
S1130960CF93DF93EC01162F20E044E650E060E0E3
S113097070E08C819D810E946A11813061F45D9BDD
S1130980FECF1CB920E040E050E060E070E08C81D4
S11309909D810E94C010DF91CF911F910895DFCFF8
S11309A008950F931F93CF93DF938C01EB0120E005
S11309B044E650E060E070E0FC01868197810E948B
S11309C06A11813099F46881662331F02196C80157
S11309D0C6DF69916111FBCF20E040E050E060E0A8
S11309E070E0F801868197810E94C010DF91CF9159
S11309F01F910F910895D5CF0895CF92DF92EF9272
S1130A00FF92CF93DF93FB0120813181C901A0E0E4
S1130A10B0E0880F991FAA1FBB1F880F991FAA1F38
S1130A20BB1F9C01AD01220F331F441F551F220F12
S1130A30331F441F551F60E074E284EF90E00E946E
S1130A402A18CA01B90161507109810991090E94EA
S1130A509C1720E030E040E05FE30E940C176B013C
S1130A607C010E947017D62FF0E0CF2FC701B6018A
S1130A700E947017CE01862BDF91CF91FF90EF90EB
S1130A80DF90CF900895C098962F6F71862B8FB901
S1130A90779BFECF1FB8779BFECF99231CF41FB81A
S1130AA0779BFECFC09A8FB10895C0986F71862B43
S1130AB08FB9779BFECF4FB9779BFECFC09A08952D
S1130AC0FB01C0982AE32FB9779BFECF009761F012
S1130AD0DF01A80FB91F1FB8779BFECF9FB1919379
S1130AE0AE17BF07C1F701C0DF011C92C09A089579
S1130AF0FB01C0982AE72FB9779BFECF009761F0DE
S1130B009F01280F391F03C02E173F0729F0919129
S1130B109FB9779BFECFF8CFC09A08951F93CF93C8
S1130B20DF93182F1076C12FD0E08091C20190E09E
S1130B30C817D907A1F043E06FE180EAB6DFAE0140
S1130B405595479555954795559547955595479589
S1130B50559547956FE180E8A8DF1093C201DF91B6
S1130B60CF911F910895CF93C82FD8DF6C2F80E0C9
S1130B708ADFCF910895CF93DF93C82FD62FCEDF8E
S1130B804D2F6C2F80E491DFDF91CF910895CF93A7
S1130B90DF93D62FC72F682F84EDEDDF6D2F86ED01
S1130BA0EADF6C2F87EDE7DF8AEEDDDF80FF04C02C
S1130BB085E08A95F1F7F8CFDF91CF910895682FFA
S1130BC0677085E7D8CF0895CF93DF93EC01B89A87
S1130BD0C09AA6D24FEF60E08FEF67DF82E390E028
S1130BE0A9D21092C1011092C00160E088E0C3DF75
S1130BF060E089E0C0DF60E08CE0BDDF60E08DE0B4
S1130C00BADF6EEF8AE0B7DF69E18BE0B4DF6FEF44
S1130C1084E0B1DF69E185E0AEDF6FEF86E0ABDF52
S1130C206FE187E0A8DF60EB88E3A5DF6FE388E28C
S1130C30A2DF60E389E29FDF69EF80E39CDF67EF77
S1130C4081E399DF6DE080EC96DF60E081EC93DF77
S1130C5042E362EC80E829DF62E186EC8CDF6CE041
S1130C6087EC89DF62E184EC86DF6CED8AEC83DF5C
S1130C7065E08BEC80DF688184EE7DDF698185EE41
S1130C807ADF6A8182EE77DF6B8183EE74DF6C81B9
S1130C9080EE71DF6D8181EE6EDF60E071E080E1F6
S1130CA076DF8FE13BDF40EC6BE180E8FEDE44E081
S1130CB06FE180E8FADEDF91CF9108950F931F93DF
S1130CC0CF93DF93EC018B016FEF82E054DF69E196
S1130CD083E051DF6C2F615086E04DDFCE018150FF
S1130CE0964E692F87E047DF40E060E08AE7DDDE6B
S1130CF0B801CE01FDDE48E06FE180E8D6DE8CE18C
S1130D0032DF81FF04C048E06FE180EACEDEDF918C
S1130D10CF911F910F9108959F92AF92BF92CF925E
S1130D20DF92EF92FF920F931F93CF93DF935C01B7
S1130D307B0189E318DF882309F445C06091C00171
S1130D40C091C10180E017DF6C2F81E014DF60E007
S1130D508AE399DEC82F60E08AE395DED0E0D82BE1
S1130D60D093C101C093C00160E08AE38CDE082FF8
S1130D7060E08AE388DE982E60E08AE384DEC82E91
S1130D8060E08AE380DEC7FE0FC081E0A81AB108E4
S1130D9010E0192904501109A016B10608F48501C0
S1130DA0B701C8018DDE02C000E010E06C2F8CE0BA
S1130DB0E2DE6D2F8DE0DFDE40E46EE180E875DE7B
S1130DC0802F912F02C080E090E0DF91CF911F919E
S1130DD00F91FF90EF90DF90CF90BF90AF909F90D6
S1130DE00895CF92DF92EF92FF92CF93DF93EC01BD
S1130DF0DB01413061F46B0188E0C81AD108E12CB1
S1130E00F12C81E1C80ED11CE11CF11C11C042304F
S1130E1061F46B0188E0C81AD108E12CF12C86E05A
S1130E20C80ED11CE11CF11C03C0C12CD12C7601CD
S1130E30A230B105F0F09D01FE01408150E060E078
S1130E4070E0762F652F542F44278181482BC40EE0
S1130E50D51EE61EF71E3296225031092230310586
S1130E6060F7CD0102978E7F0296C80FD91FA1703B
S1130E70BB27AB2B61F0888190E0A0E0B0E0BA2FF3
S1130E80A92F982F8827C80ED91EEA1EFB1EA7017A
S1130E9066277727411551056105710571F0EE2428
S1130EA0FF24C40ED51EE61EF71EA701662777276A
S1130EB0411551056105710591F7C601809590951D
S1130EC0DF91CF91FF90EF90DF90CF900895409302
S1130ED00001A62FB72FE3ECF1E047EC51E02D9190
S1130EE02193E417F507D9F7A82FB92FE7ECF1E020
S1130EF02DEC31E08D918193E217F307D9F7089532
S1130F0069327105C8F0FC0124852830B9F42585BF
S1130F102630B1F436A12091C301321313C0B79621
S1130F20A4ECB1E08A9631912D9132130DC0E817EB
S1130F30F907C9F781E0089580E0089580E00895F5
S1130F4080E0089580E0089580E00895CF93DF93D2
S1130F50FC016A327105E0F084858830D9F4858516
S1130F6081111AC096859534C1F4268D9091C301E0
S1130F70291313C0DF015F96C4ECD1E0B2962D9122
S1130F80999129130AC0AE17BF07C9F781E005C0BC
S1130F9080E003C080E001C080E0DF91CF9108953C
S1130FA0FC01A7ECB1E09C012A5F3F4F868181934D
S1130FB08D918583E217F307C9F70895CF93DF93E3
S1130FC0EC01188E198E80E48C8B1D8A8E8B40E088
S1130FD064E170E0CE010E9604DF988F898FDF9173
S1130FE0CF910895AC01A3ECB1E0FC017A9627EC13
S1130FF031E0908194839D919193A217B307C9F72F
S1131000CA01DCCF0895CF93DF93EC01C9DF1C8ABA
S113101082E08D8BA7ECB1E0FE0176962DEC31E0F9
S1131020808182878D918193A217B307C9F7A3ECBE
S1131030B1E0FE017C9627EC31E0808182878D91BE
S11310408193A217B307C9F7BE018AE290E036DEA6
S1131050DF91CF9108950F931F93CF93DF93EC010A
S11310608B019EDFCE01BEDF1AA28CA1883F18F04F
S11310709DA19F5F9DA3885F8CA3BE01C8011EDE56
S1131080DF91CF911F910F910895DF92EF92FF921C
S11310900F931F93CF93DF93EC01D62EE72E042FEB
S11310A0122FF32E7DDF0D3D08F00CED188A8CE134
S11310B0800F898BCE0196DF8AA18CA38BA18DA38F
S11310C0FAA21BA31EA288E0800F8FA318A619A65C
S11310D0002381F0AD2DBE2DFE01BA962FEF200F17
S11310E030E0255D3F4F2C0F3D1F9D919193E217FA
S11310F0F307D9F710E0B801605F7F4F41E0CE01FC
S11311004A966FDE98A789A7BE01C8018A96D6DDE4
S1131110DF91CF911F910F91FF90EF90DF90089591
S113112087B3866087BBBB98C298C19880E58DB9A8
S1131130709A0895009741F0EFEBF0E03197F1F7E2
S113114000C000000197C1F70895E7EEF3E084853D
S11311509585019695878487C598C698089580914A
S1131160E203811103C081E08093E2030895CF93E9
S1131170DF93CDB7DEB7A2970FB6F894DEBF0FBEEC
S1131180CDBF03EE13E00F2EF7E24F2EF4E05F2EF7
S1131190F02D0F2EF9E2CF2EF4E0DF2EF02D0F2EDE
S11311A0FBE2EF2EF4E0FF2EF02DCE0101969F8F8F
S11311B08E8F33243394F80180819181A281B3818D
S11311C08093DE039093DF03A093E003B093E103E5
S11311D08FEF87BB88BB81E091E0F6DC82E0EFDC37
S11311E08AE090E00E94F31466E774E084E1CFDCC7
S11311F084E190E00E94F31440E56EED73E081E039
S113120091E065DE18A2212C0F2EFDE2AF2EF4E052
S1131210BF2EF02D0F2EFDEC6F2EF1E07F2EF02D62
S11312200F2EF7EE8F2EF3E09F2EF02DD8018C9128
S113123090E0F2016081718111964C9150E0332D60
S1131240F601A081B1814A175B0709F4322D232DE1
S11312508617970709F4222DF32FF22BD801129643
S11312602C9130E0E32DD7014D915C912417350783
S113127009F4E22DEF2B71F4F801238130E0E32D22
S1131280D5014D915C912417350709F4E22DEE2325
S113129009F446C08617970741F080E090E00E9469
S11312A05D18F2018081D8018C93F601608171810F
S11312B0D80111968C9190E08617970749F081E048
S11312C090E00E945D18F6018081D80111968C93FC
S11312D0F70160817181D80112968C9190E0861794
S11312E0970749F082E090E00E945D18F701808141
S11312F0D80112968C9360912D0470912E04F801FC
S1131300838190E08617970709F455CF83E090E036
S11313100E945D1880912D04D80113968C9349CFB7
S11313206DED71E080E092E0F7DC9AA389A3009769
S113133009F470C0BC018DED91E0E2DD882321F059
S11313408DED91E060DE72CF69A17AA18DED91E01F
S1131350FDDD882309F46ACF8091F401813051F4D2
S11313608091FF01883031F469A17AA18DED91E07B
S113137072DE5CCF80910702813309F04BC0EE8DA1
S1131380FF8D8DE111928A95E9F7809108028053CF
S113139090E00196823091050CF087C022C0F901DB
S11313A0E352FE4F63A5FE01E20FF31F608340FD8D
S11313B012C0E52FF0E0EE0FFF1FE550FC4FAFEF3A
S11313C0BFEFAC0FBD1FA20FB31F2C9130E0362B23
S11313D0318320835F5F4F5F242F30E02817390764
S11313E0F4F2D401D0968D919C91D19751969C930F
S11313F08E935097DD969C938E93DC97D9969C930D
S11314008E93D897D7969C938E93D697DF969C937A
S11314108E93DE97B8A1B095B8A3BB2329F088B307
S1131420806188BB88BB04C088B38F7E88BB88BBBF
S1131430F40182819381D30111969C938E938681CA
S1131440978113969C938E93129784819581159618
S11314509C938E9314978089918917969C938E936D
S113146016978289938919969C938E9318978485ED
S113147095851B969C938E931A97828593851D96CA
S11314809C938E931C97808591851F969C938E9335
S11314901E972FE037E240E1B3018DED91E0F5DDD9
S11314A084E690E00E94F314C1CE209109022983BE
S11314B041E050E090CFCF93DF93CDB7DEB72F97C5
S11314C00FB6F894DEBF0FBECDBF6C01FE0131969E
S11314D08FE0DF011D928A95E9F707EE13E05E01C4
S11314E0B0E1AB0EB11C0F2EFAE98F2E912CF02D2A
S11314F00F2EFFE26F2EF4E07F2EF02D0F2EF3E07F
S11315004F2E512CF02DF8018089918926AD37ADED
S11315102817390741F095AF84AF91AF80AF97ABEF
S113152086AB97AF86AFC6010E94C4018F3058F3D3
S1131530CE0101967C01C6010E949801D7018D93CA
S11315407D01AA15BB05B9F78981823009F053C022
S1131550888590E0982F88272985822B90933804DA
S1131560809337048A8590E0982F88272B85822BD7
S113157090933604809335042C8530E0322F222753
S11315804D85242B3093340420933304F801938342
S11315908283D3018D919C91892B19F00E94E601DD
S11315A009C00E94E2018091370490913804F80147
S11315B0978386838091330490913404D8011596DF
S11315C09C938E93149750962D913C915197169617
S11315D08D919C9117972817390709F094CF52964B
S11315E08D919C915397892B09F08DCF53965C92E2
S11315F04E92529788CFC79846E061E081E494E028
S11316000E94FF0045E050E061E474E0C6010E94DE
S11316105C01F40180818F778083C6010E94CF0131
S1131620D4018C9180688C93C79A6DCFCF93DF934C
S1131630CDB7DEB72A970FB6F894DEBF0FBECDBF85
S11316407C01D12C07EE13E06894772471F84E01E5
S11316508CE0880E911C6894332434F866246394D7
S11316605E01E9E0AE0EB11C0F2EF5E04F2EF02D19
S11316706894552452F80EC0C62CD62C0BC0C62C28
S1131680D62C08C0C52CD62C05C0C42CD62C02C020
S1131690C32CD62C80B38E3F29F48091E203813091
S11316A009F4E1C080B38F3F29F48091E2038230D2
S11316B009F4E5C0F80184859585CC979CF01586DE
S11316C014868285938501968C3391051CF4938747
S11316D0828708C0F8011386128680859185019659
S11316E091878087D1102CC0C7010E94C401823029
S11316F088F2C7010E9498018983C7010E9498015A
S11317008A83813011F18430B9F1853009F45BC0EA
S1131710803109F47EC0462D662D81E494E00E9458
S1131720FF00C7985798C7010E94CF01579A45E018
S113173050E061E474E0C7010E945C01C79AAACF3B
S1131740F1E0DF12A7CFCF1214C0C7010E94C40179
S1131750863008F491CF6E0183E0C80ED11CC70116
S11317600E949801F60181936F01AE16BF06B9F786
S113177086CFF4E0CF1224C0C7010E94C401863092
S113178008F480CF6E0183E0C80ED11CC7010E940B
S11317909801F60181936F01EA15FB05B9F7A801D9
S11317A061E574E0CE0101960E94820047E050E0BA
S11317B061E574E0C7010E945C01C52CD12C6ACF9D
S11317C0F5E0CF1223C0C7010E94C401863008F49B
S11317D05CCF6E0183E0C80ED11CC7010E94980142
S11317E0F60181936F01AE16BF06B9F768E574E0A0
S11317F0CE0101960E94A30048E050E068E574E041
S1131800C7010E945C01C42CD12C44CFF0E1CF125B
S113181041CFC7010E94C401893008F439CF6E0159
S113182083E0C80ED11CC7010E949801F601819380
S11318306F018E169F06B9F7A80166E474E0CE0125
S113184001960E94BC0069E374E0CE0101960E94F7
S1131850E60048E050E069E374E0C7010E945C01DF
S1131860C32CD12C17CFF8018681978101969783D9
S113187086837092E20380B38F3F09F01BCF84E12B
S113188090E00E94F3141092E20314CF809160045C
S1131890909161040E943701C59A08958091620471
S11318A0909163040E943701C69A08954FEA58E064
S11318B064E170E080E00C94EA010895CF93DF9333
S11318C080E190E00E949A02EC010E946702D093AA
S11318D06904C093680488E090E03ED8EC0128D8FD
S11318E040E0BE0180916804909169040E949102D5
S11318F088E090E00E940904EC010E94F50341E0B5
S1131900BE0180916804909169040E94910282E072
S113191090E00E94D103EC010E94CB0342E0BE019F
S113192080916804909169040E94910282E090E0A1
S11319300E9464022BE031E0FC013183208343E008
S1131940BC0180916804909169040E94910260E056
S113195080916804909169040E94C50261E08091BD
S11319606804909169040E94C50262E08091680451
S1131970909169040E94C50263E08091680490918B
S113198069040E94C50247E351E060E08091680465
S1131990909169040E94B1024DE551E061E08091AB
S11319A06804909169040E94B102DF91CF91089577
S11319B0CF92DF92EF92FF920F93CF93DF9380E069
S11319C090E00E945518D82E90E0909328048093BC
S11319D0270481E090E00E945518D82F90E090935E
S11319E02A048093290482E090E00E945518C82FAD
S11319F090E090932C0480932B0483E090E00E9469
S1131A005518282F30E030932E0420932D04E3EE54
S1131A10F3E0D082D183C2838383F8944FDF46E41A
S1131A205CE060E080916804909169040E94D702B0
S1131A304EE45CE061E080916804909169040E9446
S1131A40D70245EA58E062E0809168049091690405
S1131A500E94D70246E55CE063E0809168049091BF
S1131A6069040E94D70288E890E00E9434016C0166
S1131A70609168047091690440E00E940F01C114F0
S1131A80D10421F481E090E00E946E1888E890E08F
S1131A900E943401EC01609168047091690441E092
S1131AA00E940F01209721F481E090E00E946E18BB
S1131AB0E0E6F4E0D182C082D383C2830E94DA01DB
S1131AC07894E12CF12C02E096014EE551E064E8B3
S1131AD071E086E19BE02BD59E014EE551E06AE87A
S1131AE071E08BE59AE023D520E030E040EF50E050
S1131AF060E971E087EB98E01AD517D680E090E0B2
S1131B00DF91CF910F91FF90EF90DF90CF900895E8
S1131B100895CF93DF93EC0130D680916A049091BD
S1131B206B04892B31F48FE694E090936B048093DB
S1131B306A0420916C0430916D04C9018C0F9D1FBF
S1131B408B3F48E0940770F42817390770F4C0916C
S1131B506A04D0916B04C20FD31F90936D048093D9
S1131B606C0405C0C0E0D0E002C0C0E0D0E0C2D642
S1131B70CE01DF91CF9108950895FC0103969283DD
S1131B8081832FEF3FEF348323839683858390876C
S1131B90878310820895FC01118610860895CF93DF
S1131BA0DF939C01FB01DC011196CD91DC9112972E
S1131BB0D383C2838C819D81958384838C819D8111
S1131BC0DC0113967C936E9312977D836C8331872B
S1131BD02087F90180818F5F8083DF91CF91089501
S1131BE0CF93DF93EB01488159814F3F2FEF520789
S1131BF021F4FC01A781B0850DC0DC01139601C05E
S1131C00DF011296ED91FC911397208131814217E7
S1131C105307B0F71296ED91FC911397FB83EA8377
S1131C20D583C483BD83AC831396DC93CE93129780
S1131C3099878887FC0120812F5F2083DF91CF91D2
S1131C400895CF93DF93FC01A085B185C281D38130
S1131C50848195819D838C83C481D5818281938184
S1131C609B838A8311968D919C911297E817F907AB
S1131C7031F48481958112969C938E9311971186E9
S1131C8010868C9181508C93DF91CF91089531E12E
S1131C90FC013083319722E220833197A3E3A083B0
S1131CA0319760833197708331971082319760E860
S1131CB0608331971082319762E06083319763E0EB
S1131CC06083319764E06083319765E06083319786
S1131CD066E06083319767E06083319768E06083F2
S1131CE0319769E06083319760E160833197308395
S1131CF0319732E13083319733E13083319734E1E6
S1131D003083319735E13083319736E13083319731
S1131D1037E13083319738E13083319739E13083CB
S1131D20319730E23083319731E230833197208329
S1131D30319723E220833197408331975083319741
S1131D4026E22083319727E22083319728E22083FB
S1131D50319729E22083319720E32083319721E3CF
S1131D602083869708951BBC89EF8ABD8BE08EBDC6
S1131D7087B7806187BFA091CE0DB091CF0DCD9173
S1131D80CDBFDD91DEBFFF91EF91DF91CF91BF9188
S1131D90AF919F918F917F916F915F914F913F91FF
S1131DA02F911F910F91FF90EF90DF90CF90BF90F4
S1131DB0AF909F908F907F906F905F904F903F90E7
S1131DC02F901F900F900FBE0F90089581E00895FB
S1131DD00F920FB6F8940F921F9211242F923F92F4
S1131DE04F925F926F927F928F929F92AF92BF9227
S1131DF0CF92DF92EF92FF920F931F932F933F9313
S1131E004F935F936F937F938F939F93AF93BF93FE
S1131E10CF93DF93EF93FF93A091CE0DB091CF0DAD
S1131E200DB60D920EB60D9225D6A091CE0DB091A1
S1131E30CF0DCD91CDBFDD91DEBFFF91EF91DF914D
S1131E40CF91BF91AF919F918F917F916F915F914E
S1131E504F913F912F911F910F91FF90EF90DF9041
S1131E60CF90BF90AF909F908F907F906F905F9036
S1131E704F903F902F901F900F900FBE0F9008959A
S1131E800F920FB6F8940F921F9211242F923F9243
S1131E904F925F926F927F928F929F92AF92BF9276
S1131EA0CF92DF92EF92FF920F931F932F933F9362
S1131EB04F935F936F937F938F939F93AF93BF934E
S1131EC0CF93DF93EF93FF93A091CE0DB091CF0DFD
S1131ED00DB60D920EB60D9256D48111CBD5A091AC
S1131EE0CE0DB091CF0DCD91CDBFDD91DEBFFF9171
S1131EF0EF91DF91CF91BF91AF919F918F917F919E
S1131F006F915F914F913F912F911F910F91FF908E
S1131F10EF90DF90CF90BF90AF909F908F907F9085
S1131F206F905F904F903F902F901F900F900FBE37
S1131F300F900895A5DF18950F931F93CF93DF9308
S1131F40EC01042F1A8D4C8D41110BC088819981AD
S1131F50892B09F041C08A819B810BD71B821A828D
S1131F6042C0011117C050E08C819D810E944C1821
S1131F702C8D8C819D81820F911D9D838C832A8160
S1131F803B818217930750F1888199819D838C83CB
S1131F9080E029C050E08E819F810E944C188C8D76
S1131FA090E09195819591092E813F81280F391FE9
S1131FB03F832E83488159812417350730F42A81C1
S1131FC03B81820F931F9F838E83023049F4112338
S1131FD049F0115080E007C080E005C080E003C0F4
S1131FE080E001C080E01F5F1A8FDF91CF911F91C5
S1131FF00F910895FC01448D4423A9F050E02681FB
S11320003781240F351F37832683828193812817D4
S1132010390720F08081918197838683CB01668183
S113202077810C944C180895EF92FF920F931F93AD
S1132030CF938C010FB6F8940F92FC01C68D1C1639
S11320409CF48189811106C00FC0F8018189811136
S113205005C00AC07801F1E1EF0EF11CC7019AD561
S1132060811121D6C15089F78FEFF801868F0F9027
S11320700FBE0FB6F8940F92C58D1C169CF4808584
S1132080811106C00FC0F8018085811105C00AC006
S11320907801F8E0EF0EF11CC7017CD5811103D65D
S11320A0C15089F78FEFF801858F0F900FBECF9144
S11320B01F910F91FF90EF900895CF93DF93EC0160
S11320C00FB6F8940F92488159812C8D30E07B8DA6
S11320D0729FC001739F900D1124FA01E80FF91F3C
S11320E0FB83EA831A8E5D834C83821B930B840FDC
S11320F0951F9F838E838FEF8D8F8E8F61110AC002
S11321008885882369F0CE01089644D5882341F058
S11321105FDE06C0CE01089630DDCE0141962DDD8E
S11321200F900FBE81E0DF91CF9108950F931F931D
S1132130CF93DF93082F162F6623B1F0869FC0013B
S113214011244F96E6DCEC01009739F413C00B8F91
S11321501C8F61E0CE01B1DF0DC04F969983888357
S1132160F6CFD983C883F3CF8FE190E0D2DCEC01C2
S1132170892BB9F7CE01DF91CF911F910F9108956B
S11321809F92AF92BF92CF92DF92EF92FF920F9302
S11321901F93CF93DF9300D000D01F92CDB7DEB74B
S11321A08C016B015D834C83A22EB12C99249394F2
S11321B07C0188E0E80EF11C0FB6F8940F92F80148
S11321C0928D838D981718F0F2E0AF1215C04A2D46
S11321D0B601C801B1DEF8019189992339F0C8012B
S11321E04196D8D4882321F0F3DD02C08111F0DDBB
S11321F00F900FBE81E045C08C819D81892B21F415
S11322000F900FBE80E03DC0B11004C0CE01019616
S113221007D5B92C0F900FBEB0D20FB6F8940F9219
S1132220F801858D8F3F09F4158EF801868D8F3F57
S113223009F4168E0F900FBEBE016C5F7F4FCE0166
S11322400196F9D4811119C00FB6F8940F92F801D0
S1132250928D0F900FBE838D98130BC06C817D817E
S1132260C70188D4C801E0DE45D38111A5CFB0DD14
S1132270A3CFC801D9DE3ED39FCFC801D5DE3AD360
S113228080E00F900F900F900F900F90DF91CF91FF
S11322901F910F91FF90EF90DF90CF90BF90AF9080
S11322A09F900895CF93DF93482F60E081E03EDF55
S11322B0EC01009759F01B821A82198218821E823F
S11322C020E040E050E060E070E05ADFCE01DF91B2
S11322D0CF9108958F929F92AF92BF92CF92DF9247
S11322E0EF92FF920F931F93CF93DF9300D000D010
S11322F01F92CDB7DEB78C015B015D834C83822EC8
S1132300E12C992493946C0181E1C80ED11C0FB681
S1132310F8940F92F801F28CFF2061F1C680D78007
S1132320B501C80167DE811016C0FA94F801F28E77
S113233080819181892B21F45CD5F8019383828378
S1132340F8018085882391F0C801089623D4882356
S113235069F03EDD0BC0F801D782C68281898823EB
S113236029F0C801419616D4811132DD0F900FBEB9
S113237081E058C08C819D81892B21F40F900FBE80
S113238080E050C0E11004C0CE01019649D4E92C8C
S11323900F900FBEF2D10FB6F8940F92F801858D0D
S11323A08F3F09F4158EF801868D8F3F09F4168E40
S11323B00F900FBEBE016C5F7F4FCE0101963BD4E0
S11323C0811124C00FB6F8940F92F801828D0F90FA
S11323D00FBE811117C080819181892B41F40FB602
S11323E0F8940F928281938162D40F900FBE6C8116
S11323F07D81C601BFD3C80117DE7CD2811187CF8E
S1132400E7DC85CFC80110DE75D281CFC8010CDEB0
S113241071D20FB6F8940F92F801828D0F900FBE0F
S1132420811175CF0F900F900F900F900F90DF9147
S1132430CF911F910F91FF90EF90DF90CF90BF90BD
S1132440AF909F908F900895E091960DF091970D25
S11324508081811107C08FEF9FEF90936E0D809361
S11324606D0D0895E091960DF091970D0580F6811C
S1132470E02D0680F781E02D8281938190936E0D8B
S113248080936D0D0895FF920F931F93CF93DF9365
S1132490EC01F62E0091750D1091760D8091CE0D04
S11324A09091CF0D0296CDDBCF3F8FEFD80761F42B
S11324B0FF2051F06091CE0D7091CF0D6E5F7F4F74
S11324C088E79DE06CDB2DC0C00FD11FE091CE0DDD
S11324D0F091CF0DD383C283C017D10760F460910C
S11324E0CE0D7091CF0D8091940D9091950D6E5FEE
S11324F07F4F76DB16C06091CE0D7091CF0D809129
S1132500960D9091970D6E5F7F4F6ADB80916D0DF4
S113251090916E0DC817D90720F4D0936E0DC09317
S11325206D0DDF91CF911F910F91FF9008954F9200
S11325305F926F927F928F929F92AF92BF92CF924F
S1132540DF92EF92FF920F93CF93DF934C016B01D5
S11325505A012901CA01DDDA3C01892B09F4D4C0EE
S113256088E290E0D6DAEC01892B71F0788E6F8ADC
S113257081E0A81AB1086A0C7B1CD6018C91898F62
S11325808C91811104C017C0C301F6DABDC0AE013D
S1132590465E5F4FF6013196B8E0CB0ED11CCF01F9
S11325A02191DA012D93AD01DC018C91882319F07E
S11325B0EC15FD05A1F718A2043008F003E00E8B1A
S11325C009A31AA26E01B2E0CB0ED11CC601E3DA54
S11325D0CE010C96E0DAD987C88784E090E0801BAE
S11325E091099D878C87DB8BCA8B1BA21CA21DA221
S11325F01EA21FA2A201B401C30149DB99838883EF
S1132600E114F10419F0F701D183C0830FB6F894F3
S11326100F928091770D8F5F8093770D8091CE0D0F
S11326209091CF0D892B89F5D093CF0DC093CE0D0A
S11326308091770D813009F038C08AEA9DE09DDAF7
S113264083EB9DE09ADA8CEB9DE097DA85EC9DE0D4
S113265094DA81EA9DE091DA88E99DE08EDA8BE8EC
S11326609DE08BDA82E89DE088DA88E79DE085DAF0
S113267081EA9DE09093970D8093960D88E99DE003
S11326809093950D8093940D10C08091730D8111DA
S11326900CC0E091CE0DF091CF0D96898E898917EB
S11326A020F0D093CF0DC093CE0D80916F0D8F5F2E
S11326B080936F0D8E899091740D981710F4809308
S11326C0740D90E09C01220F331F220F331F220F41
S11326D0331F820F931FB6018655924F60DA0F9015
S11326E00FBE8091730D882359F0E091CE0DF091C7
S11326F0CF0D96898E89981728F46ADB81E005C08E
S113270081E003C081E001C08FEFDF91CF910F9191
S1132710FF90EF90DF90CF90BF90AF909F908F90FD
S11327207F906F905F904F900895EF92FF920F9378
S11327300F2EFBE6EF2EFDE0FF2EF02D00E020E053
S113274030E045E550E066E971E083E095E1EFDED5
S1132750813079F4F8948FEF9FEF90936E0D80930E
S11327606D0D81E08093730D1092760D1092750DAE
S1132770FADA0F91FF90EF90089580916A0D8F5FC0
S113278080936A0D0895CF92DF92EF92FF920F9398
S11327901F93CF93DF9380916A0D811195C0E090D0
S11327A0750DF090760D8FEFE81AF80AF092760D19
S11327B0E092750DE114F104B1F48091960D9091BD
S11327C0970D2091940D3091950D3093970D209392
S11327D0960D9093950D8093940D8091700D8F5F5D
S11327E08093700D31DE80916D0D90916E0DE81621
S11327F0F90610F4D12C50C0D12CCC24C394E09110
S1132800960DF091970D8081811107C08FEF9FEF96
S113281090936E0D80936D0D3FC0E091960DF091F5
S1132820970D0580F681E02DC681D7818A819B8131
S1132830E816F90628F490936E0D80936D0D2CC064
S11328408E010E5F1F4FC801FCD98C899D89892B8D
S113285019F0CE010C96F5D98E899091740D9817C4
S113286010F48093740D90E09C01220F331F220F0B
S1132870331F220F331F820F931FB8018655924FC7
S11328808ED9E091CE0DF091CF0D9E89868998174F
S113289008F4B5CFDC2CB3CFE091CE0DF091CF0D81
S11328A0868990E0FC01EE0FFF1FEE0FFF1FEE0F75
S11328B0FF1F8E0F9F1FFC01E655F24F808182306F
S11328C048F0DD24D39406C08091720D8F5F80930D
S11328D0720DD12C8091710D882311F0DD24D394D5
S11328E08D2DDF91CF911F910F91FF90EF90DF908D
S11328F0CF900895DF92EF92FF920F931F93CF939F
S1132900DF930FB6F8940F9280916A0D81508093F3
S11329106A0D80916A0D811159C08091770D8111E2
S113292030C057C0D7011596ED91FC911697C6811A
S1132930D781CE010C9685D98E010E5F1F4FC80139
S113294080D98E899091740D981710F48093740D2A
S113295090E09C01220F331F220F331F220F331FDD
S1132960820F931FB8018655924F19D9E091CE0D6D
S1132970F091CF0D9E898689981768F0D092710DD9
S11329800AC0C0E0D0E00F2EFBE8EF2EFDE0FF2EE2
S1132990F02DDD24D394F70180818111C3CFCD2B99
S11329A009F052DDC091720DCC2349F0D1E0EBDE89
S11329B08111D093710DC150D1F71092720D809195
S11329C0710D882329F004DA81E003C080E001C09E
S11329D080E00F900FBEDF91CF911F910F91FF9078
S11329E0EF90DF900895CF93DF93EC01892B39F0BA
S11329F0C4DE60E0CE0147DD7DDF811101C0E8D98E
S1132A00DF91CF91089502E81DE00F2EFAEAEF2E30
S1132A10FDE0FF2EF02D24C0B0DED801CC916ADF9A
S1132A20CC23F1F00FB6F8940F92D8011596ED91DE
S1132A30FC911697C681D781CE01029602D9809166
S1132A40770D81508093770D8091810D8150809313
S1132A50810D0F900FBE8F89988D8ED8CE018CD8A2
S1132A608091810D8111D8CFF70180818230C0F32C
S1132A70AFD9F6CF80916A0D882321F081E080934D
S1132A80710D08951092710DA091CE0DB091CF0DDE
S1132A90E091CE0DF091CF0D2D913C918789908DD1
S1132AA08217930758F06091CE0D7091CF0D8091ED
S1132AB0CE0D9091CF0D675E7F4F2AD82091740D73
S1132AC0822F90E0FC01EE0FFF1FEE0FFF1FEE0FB1
S1132AD0FF1FE80FF91FE655F24F3081311111C085
S1132AE02150822F90E0FC01EE0FFF1FEE0FFF1F1D
S1132AF0EE0FFF1FE80FF91FE655F24F3081332325
S1132B0079F3AC01440F551F440F551F440F551F53
S1132B10480F591FDA01A655B24F1196ED91FC9159
S1132B2012970280F381E02D1296FC93EE93119795
S1132B304355524FE417F50729F442815381FD01AF
S1132B4052834183FC01EE0FFF1FEE0FFF1FEE0FB8
S1132B50FF1F8E0F9F1FFC01E655F24F0180F2818B
S1132B60E02D868197819093CF0D8093CE0D209395
S1132B70740D0895CF93DF93EB016091CE0D7091A6
S1132B80CF0D645F7F4F2CD861E0CE017CDCDF91F8
S1132B90CF9108950F931F93CF93DF93DC01159684
S1132BA0ED91FC911697C681D7818E01045F1F4F6A
S1132BB0C80147D880916A0D81111BC00A501109C0
S1132BC0C8013FD88E899091740D981710F48093A2
S1132BD0740D90E09C01220F331F220F331F220F2C
S1132BE0331F820F931FB8018655924F0E94CF0D59
S1132BF005C0B8018BE89DE00E94CF0DE091CE0D99
S1132C00F091CF0D9E898689891720F481E0809305
S1132C10710D01C080E0DF91CF911F910F91089554
S1132C202091700DFC0120832091750D3091760D5B
S1132C303283218308950FB6F8940F924091750D55
S1132C405091760DDB012D913C912F3FBFEF3B0757
S1132C5011F1E091700DDC01FC91FE1739F0119631
S1132C60ED91FC9112974E175F07B8F4DC011196B1
S1132C70ED91FC911297DA01AE1BBF0BA217B307BB
S1132C8070F4DB01E41BF50B2E0F3F1F2D933C93D7
S1132C90C7DF80E005C080E003C081E001C081E0BF
S1132CA00F900FBE089581E08093710D08950F93E6
S1132CB01F93CF93DF93FC01892B09F455C0268918
S1132CC0A091CE0DB091CF0D56968C91281708F097
S1132CD04BC084859585992364F0A091CE0DB09165
S1132CE0CF0D56963C9184E090E0831B9109958723
S1132CF0848730E0C901880F991F880F991F880FB6
S1132D00991F280F391F2655324F828593858217C4
S1132D10930719F58F01EF012296CE010E94210E2F
S1132D20E091CE0DF091CF0D8689F801868B9091BC
S1132D30740D981710F48093740D90E09C01220F89
S1132D40331F220F331F220F331F820F931FBE0125
S1132D508655924F0E94CF0D07C0A091CE0DB09121
S1132D60CF0D56968C91868BDF91CF911F910F9149
S1132D7008950F931F93CF93DF93FC01892B79F16F
S1132D8082A1815082A3268991A1291751F1811131
S1132D902AC0EF018F010E5F1F4FC8010E94210E50
S1132DA089A18E8B24E030E0281B31093D872C87D4
S1132DB09091740D981710F48093740D90E09C0119
S1132DC0220F331F220F331F220F331F820F931F33
S1132DD0B8018655924F0E94CF0D81E005C080E076
S1132DE003C080E001C080E0DF91CF911F910F917B
S1132DF008958091CE0D9091CF0D892B39F0E091FB
S1132E00CE0DF091CF0D82A18F5F82A38091CE0D64
S1132E109091CF0D08955058BB27AA270ED0E0C03B
S1132E20D1D030F0D6D020F031F49F3F11F41EF40D
S1132E30C6C00EF4E095E7FBBCC0E92FE2D080F3F6
S1132E40BA17620773078407950718F071F49EF5A3
S1132E50FAC00EF4E0950B2EBA2FA02D0B01B90188
S1132E6090010C01CA01A0011124FF27591B99F0FC
S1132E70593F50F4503E68F11A16F040A22F232F08
S1132E80342F4427585FF3CF469537952795A79558
S1132E90F0405395C9F77EF41F16BA0B620B730BFF
S1132EA0840BBAF09150A1F0FF0FBB1F661F771F70
S1132EB0881FC2F70EC0BA0F621F731F841F48F425
S1132EC0879577956795B795F7959E3F08F0B3CFAB
S1132ED09395880F08F09927EE0F97958795089595
S1132EE098D088F09F5790F0B92F9927B751A0F048
S1132EF0D1F0660F771F881F991F1AF0BA95C9F78A
S1132F0012C0B13081F09FD0B1E008959CC0672F0A
S1132F10782F8827B85F39F0B93FCCF38695779539
S1132F206795B395D9F73EF4909580957095619522
S1132F307F4F8F4F9F4F0895E89409C097FB3EF44D
S1132F4090958095709561957F4F8F4F9F4F9923F2
S1132F50A9F0F92F96E9BB279395F6958795779570
S1132F606795B795F111F8CFFAF4BB0F11F460FF30
S1132F701BC06F5F7F4F8F4F9F4F16C0882311F088
S1132F8096E911C0772321F09EE8872F762F05C09C
S1132F90662371F096E8862F70E060E02AF09A9537
S1132FA0660F771F881FDAF7880F9695879597F92C
S1132FB0089597F99F6780E870E060E008959FEFB7
S1132FC080EC089500240A941616170618060906BC
S1132FD0089500240A94121613061406050608958B
S1132FE0092E0394000C11F4882352F0BB0F40F413
S1132FF0BF2B11F460FF04C06F5F7F4F8F4F9F4F53
S1133000089557FD9058440F551F59F05F3F71F0D4
S11330104795880F97FB991F61F09F3F79F087953B
S11330200895121613061406551FF2CF4695F1DFC4
S113303008C0161617061806991FF1CF8695710554
S1133040610508940895E894BB2766277727CB0188
S113305097F90895A1E21A2EAA1BBB1BFD010DC00E
S1133060AA1FBB1FEE1FFF1FA217B307E407F50734
S113307020F0A21BB30BE40BF50B661F771F881F10
S1133080991F1A9469F760957095809590959B01A6
S1133090AC01BD01CF010895FB01DC0102C0019028
S11330A00D9241505040D8F70895E199FECF9FBB4F
S11330B08EBBE09A99278DB30895262FE199FECF10
S11330C09FBB8EBBE09A01970DB2021631F02DBB67
S11330D00FB6F894E29AE19A0FBE0895F894FFCFE0
S11330E0505455581000240000000055025102535A
S11330F002540200000000BB0351025302540200B8
S1133100000000D40351025C043004000000007B82
S1133110045102FB04CF045561727420496E697432
S1133120205355434345535320626F616472617465
S1133130652039363030627073200D0A00525334E2
S1133140383520496E697420535543434553532001
S1133150626F6164726174652039363030627073F5
S1133160200D0A005461736B31005461736B32009B
S10F31705461736B330049444C4500006B
S9030000FC
