:1000000048C500000C94C90963C5000061C5000023
:100010005FC500005DC500005BC5000059C500005C
:1000200057C500000C94D10A53C5000051C500000B
:100030000C942A194DC500004BC500000C943F08D4
:1000400047C5000045C500000C94380941C50000B3
:100050003FC500000C94F9093BC5000039C50000FC
:1000600037C5000035C5000033C5000031C50000AC
:100070000C9499092DC500000C94680929C500004D
:1000800027C5000025C5000023C500000000C842A8
:10009000AEC7C8425C8FC9420A57CA42B81ECB429B
:1000A00066E6CB4214AECC42C375CD42713DCE4222
:1000B0001F05CF42CDCCCF427B94D042295CD142A8
:1000C000D723D24285EBD24233B3D342E17AD44232
:1000D0008F42D5423D0AD642CDCCD6427B94D74200
:1000E000295CD842D723D94285EBD94233B3DA42CF
:1000F000C375DB42713DDC421F05DD42CDCCDD42E4
:100100007B94DE420A57DF42B81EE04266E6E042D8
:10011000F6A8E142A470E2425238E3420000E44211
:100120008FC2E4423D8AE542CD4CE6427B14E74271
:1001300029DCE742B89EE8426666E942F628EA42D0
:10014000A4F0EA4252B8EB42E17AEC428F42ED422F
:100150001F05EE42CDCCEE425C8FEF420A57F042D3
:100160009A19F14248E1F142D7A3F242856BF3427A
:10017000142EF442A4F0F44252B8F542E17AF64269
:100180008F42F7421F05F842AEC7F8425C8FF94232
:10019000EC51FA427B14FB4229DCFB42B89EFC4244
:1001A0004861FD42F628FE4285EBFE4214AEFF4256
:1001B00052380043299C004371FD0043B85E01435F
:1001C00000C00143482102431F85024366E6024303
:1001D000AE470343F6A803433D0A0443856B04433B
:1001E000CDCC0443142E0543EC91054333F3054372
:1001F0007B540643C3B506430A17074352780743A7
:100200009AD90743E13A0843299C084371FD084302
:10021000B85E094300C0094348210A438F820A435C
:1002200048E10A438F420B43D7A30B431F050C43FE
:1002300066660C43AEC70C43F6280D433D8A0D435A
:10024000F6E80D433D4A0E4385AB0E43CD0C0F43FC
:10025000146E0F43CDCC0F43142E10435C8F10430C
:10026000A4F010435C4F1143A4B01143EC111243AE
:10027000A4701243ECD1124333331343EC91134374
:1002800033F313437B54144333B314437B141543A8
:10029000C37515437BD41543C33516437B9416436E
:1002A000C3F516437B541743C3B517437B14184358
:1002B000C37518437BD41843C33519437B94194342
:1002C000C3F519437B541A43C3B51A437B141B432C
:1002D000C3751B437BD41B4333331C437B941C43A8
:1002E00033F31C437B541D4333B31D43EC111E43B6
:1002F00033731E43ECD11E43A4301F435C8F1F4356
:10030000A4F01F435C4F204314AE2043CD0C214387
:10031000146E2143CDCC2143852B22433D8A2243B9
:10032000F6E822433D4A2343F6A82343AE0724437D
:10033000666624431FC52443D72325438F82254364
:10034000D7E325438F42264348A126430000274395
:10035000B85E274371BD2743291C2843E17A28430F
:100360009AD92843523829430A972943C3F5294388
:100370007B542A4333B32A43EC112B43146E2B4393
:10038000CDCC2B43852B2C433D8A2C43F6E82C43C4
:10039000AE472D4366A62D431F052E4348612E43CD
:1003A00000C02E43B81E2F43717D2F4329DC2F43FD
:1003B000523830430A973043C3F530437B543143BE
:1003C000A4B031435C0F3243146E32433DCA324312
:1003D000F6283343AE873343D7E333438F42344366
:1003E00048A1344371FD3443295C354352B8354349
:1003F0000A173643C3753643ECD13643A43037432E
:10040000CD8C374385EB3743AE47384366A6384338
:100410008F0239434861394371BD3943291C3A433E
:1004200052783A430AD73A4333333B435C8F3B43DA
:1004300014EE3B433D4A3C43F6A83C431F053D4375
:1004400048613D4300C03D43291C3E4352783E4332
:100450000AD73E4333333F435C8F3F4385EB3F43F3
:100460003D4A404366A640438F024143B85E414344
:1004700071BD41439A194243C3754243ECD1424393
:10048000142E4343CD8C4343F6E843431F45444376
:1004900048A1444371FD44439A594543C3B545437C
:1004A000EC114643146E46433DCA46436626474315
:1004B0008F824743B8DE4743E13A48430A974843AF
:1004C00033F348435C4F494385AB4943AE074A4346
:1004D000D7634A4300C04A43291C4B4352784B43DD
:1004E0007BD44B43A4304C43CD8C4C4366E64C4309
:1004F0008F424D43B89E4D43E1FA4D430A574E4358
:1005000033B34E43CD0C4F43F6684F431FC54F43A3
:1005100048215043E17A50430AD750433333514383
:100520005C8F5143F6E851431F45524348A1524363
:10053000E1FA52430A57534333B35343CD0C544368
:10054000F66854438FC25443B81E5543E17A55436D
:100550007BD45543A43056433D8A564366E6564302
:1005600000405743299C5743C3F55743EC51584328
:1005700085AB5843AE0759434861594371BD594350
:100580000A175A43A4705A43CDCC5A4366265B439C
:100590008F825B4329DC5B43C3355C43EC915C4356
:1005A00085EB5C431F455D4348A15D43E1FA5D4334
:1005B0007B545E4314AE5E433D0A5F43D7635F43A3
:1005C00071BD5F430A17604333736043CDCC604312
:1005D00066266143008061439AD96143C335624313
:1005E0005C8F6243F6E862438F426343299C634316
:1005F000C3F563435C4F6443F6A864431F0565433A
:10060000B85E654352B86543EC116643856B66433B
:100610001FC56643B81E674352786743ECD16743F2
:10062000852B68431F856843B8DE6843C33569433B
:100630005C8F6943F6E869438F426A43299C6A43A9
:10064000C3F56A435C4F6B43F6A86B4300006C43F1
:100650009A596C4333B36C43CD0C6D4366666D435E
:1006600071BD6D430A176E43A4706E433DCA6E435D
:1006700048216F43E17A6F437BD46F43142E70435C
:100680001F857043B8DE7043523871435C8F7143ED
:10069000F6E871438F4272439A99724333F372437F
:1006A0003D4A7343D7A3734371FD73437B54744333
:1006B00014AE74431F057543B85E7543C3B57543E7
:1006C0005C0F76436666764300C07643D8FFD9FF59
:1006D000DAFFDBFFDCFFDDFFDEFFDFFFE0FFE1FF36
:1006E000E2FFE3FFE4FFE5FFE6FFE7FFE8FFE9FFE6
:1006F000EAFFEBFFECFFEDFFEEFFEFFFF0FFF1FF96
:10070000F2FFF3FFF4FFF5FFF6FFF7FFF8FFF9FF45
:10071000FAFFFBFFFCFFFDFFFEFFFFFF00000100F3
:10072000020003000400050006000700080009009D
:100730000A000B000C000D000E000F00100011004D
:1007400012001300140015001600170018001900FD
:100750001A001B001C001D001E001F0020002100AD
:10076000220023002400250026002700280029005D
:100770002A002B002C002D002E002F00300031000D
:1007800032003300340035003600370038003900BD
:100790003A003B003C003D003E003F00400041006D
:1007A000420043004400450046004700480049001D
:1007B0004A004B004C004D004E004F0050005100CD
:1007C000520053005400550056005700580059007D
:1007D0005A005B005C005D005E005F00600061002D
:1007E00062006300640065006600670068006900DD
:1007F0006A006B006C006D006E006F00700071008D
:100800007200730074007500760077007800A18490
:10081000893ECD92903E60EA973E97909F3E7385C9
:10082000A73E92CBAF3E9565B83ECA54C13E809A72
:10083000CA3E0938D43E5131DE3E5986E83EC139C0
:10084000F33E884BFE3E7FDE043F08C90A3F11E4B9
:10085000103F9031173F85B11D3FF163243F7B4925
:100860002B3F2462323F92AE393FC72E413F19E2FF
:10087000483F32C9503FC1E2583F1630613F3AAF5E
:10088000693F2D60723FEE427B3F172B823FA3CC26
:10089000863FC6858B3FDA55903F363C953F3238D0
:1008A0009A3FCF499F3F696FA43F00A9A93F99F59F
:1008B000AE3FE353B43FDFC3B93FE943BF3F07D384
:1008C000C43FE370CA3FDA1BD03F46D3D53FD5952E
:1008D000DB3F8D62E13F7138E73F3316ED3F83FA2E
:1008E000F23FB8E4F83F84D3FE3FCC620240FB5CA9
:1008F0000540A85708407E520B40AD4C0E40B7450E
:1009000011401D3D144061321740DD241A403C1453
:100910001D400000204082E7224097CA25406DA874
:100920002840DC802B408F532E40DE1F31409FE556
:1009300033407FA43640FF5B3940F60B3C40E5B3C3
:100940003E40CE53414085EB4340637A464093009E
:100950004940BF7D4B40BFF14D40925C5040E4BDEB
:1009600052408C155540B26357402FA85940D6E2EB
:100970005B40A9135E40A83A6040D1576240FD6ACF
:1009800064405474664000746840AD696A40B05574
:100990006C40DF376E408C1070408FDF714012A5C5
:1009A00073403D61754012147740BABD78400B5ECC
:1009B0007A40AEF57B4023847D40130A7F40964306
:1009C0008040F4FD80400FB48140276682401214BD
:1009D00083400EBE83401B6484404F068540D3A4F1
:1009E00085407D3F8640A1D686402B6A87402FFAFE
:1009F0008740C28688400E108940FF958940D218F2
:100A00008A405F988A40F9148B40758E8B4014059C
:100A10008C40C0788C40A3E98C40D1578D404CC3AA
:100A20008D40282C8E4064928E402BF68E4093573A
:100A30008F4085B68F402B139040876D9040ACC59A
:100A40009040B01B9140936F91406AC19140491111
:100A500092401C5F924022AB924045F59240863D09
:100A600093400E849340F3C893400B0C9440944DF4
:100A700094407A8D9440E6CB9440C4089540284435
:100A80009540137E9540AEB69540D0ED9540B82385
:100A9000964011241FBECFEFD0E1DEBFCDBF11E0E5
:100AA000A0E0B1E0E2EEF5E400E00BBF02C0079089
:100AB0000D92AC3BB107D9F72FE0ACEBB1E001C030
:100AC0001D92A73AB207E1F70E94A8140C94EF22F6
:100AD00097CAFC01680F791F8FEF9FEFE617F707A2
:100AE00099F02191822728E030E0AC014170552730
:100AF00096958795452B21F041E0842740EA94277D
:100B00002150310991F7EACF0895CF93DF93DC01AB
:100B1000EB018C91888311968C91119789831396A0
:100B20008C9192E09A83E82FF0E0EE0FFF1FE40F24
:100B3000F51F81818B8380818C8365E070E0CE011D
:100B4000C8DF9E838D83DF91CF910895CF93DF938C
:100B5000FC01EB01808188838181898382818A8382
:100B600083818B8384818C8385818D8366E070E0B3
:100B7000CE01AFDF9F838E83DF91CF910895CF9316
:100B8000DF93FC01EB0180818883818189838281ED
:100B90008A8383818B8394819C8395819D839681B5
:100BA0009E8327812F8390859887E82FF0E0EE0FB2
:100BB000FF1FE40FF51F892F90E0922B9183808314
:100BC00069E070E0CE0185DF9A878987DF91CF9158
:100BD0000895CF93DF93FC01EB01808188838181AD
:100BE000898382818A8383818B8384818C838581BD
:100BF0008D8366E070E0CE016CDF9F838E83DF9192
:100C0000CF910895CF93DF93EC01688381E88983C6
:100C10004A8363E070E0CE015CDF9C838B83DF91CD
:100C2000CF9108951F93CF93DF93EC01CB01142F45
:100C3000FE01EA57FF4F71836083642F03D388233B
:100C400071F0FE01EB57FF4F1083319710823497FC
:100C500011821082CE57DF4F1982188204C0CA5702
:100C6000DF4F19821882DF91CF911F9108950C9464
:100C700019170895FC01E058FF4F20812F5F2F774F
:100C800019F41182108221E030E0FC01EE57FF4F91
:100C9000408151812417350789F0DC01A058BF4FEE
:100CA000ED91FC911197E80FF91F61832D933C930F
:100CB000FC01EC57FF4F80818F5F80830895AF92D6
:100CC000BF92CF92DF92EF92FF920F931F93CF9339
:100CD0008C016B017A01DC01AB57BF4FFC01EA5775
:100CE000FF4F6C9180819181BAD2892BD1F01E1473
:100CF0001F04BCF4C0E0580185E8A80EB11C0A57D7
:100D00001F4FF601EC0FF11D4081F5016081F801E4
:100D10008081918150D2CF5F2C2F30E02E153F057E
:100D200084F3CF911F910F91FF90EF90DF90CF90C0
:100D3000BF90AF900895FC01EE57FF4F20813181A5
:100D400032974081518142175307E9F02F5F3F4F9F
:100D5000FC01E20FF31F40812F773327FC01EE5790
:100D6000FF4F318320833296608170E0261737076A
:100D700061F4329711821082329711821082349678
:100D80001082842F08958FEF0895842F0895DC0139
:100D9000A058BF4FFC01EE57FF4F8C919081891BEB
:100DA0008F770895FC01EE57FF4F11821082329722
:100DB00011821082349610820895FC014083518381
:100DC0006283738308954F925F926F927F928F92A6
:100DD0009F92AF92BF92CF92DF92EF92FF920F93CA
:100DE0001F93CF93DF93CB01BA01E901220F331F89
:100DF000220F331FD901A457BF4FFD012591359113
:100E0000459154918E010F5F1F4FF801EE0FFF1FA8
:100E1000EE0FFF1FE457FF4F85909590A590B4907B
:100E2000FD0145905590659074900E9481206B0162
:100E30007C01A3019201C501B4010E94812020E040
:100E400030E040E05FE30E9439229B01AC01C70122
:100E5000B6010E94352218160CF08E01C801DF91F0
:100E6000CF911F910F91FF90EF90DF90CF90BF90A7
:100E7000AF909F908F907F906F905F904F9008956C
:100E80004F925F926F927F92AF92BF92CF92DF921A
:100E9000EF92FF920F931F93CF93DF935C0180E05B
:100EA00090E00E94832120E030E040EA5BE30E9472
:100EB00039226B017C0120E030E041EE54E40E94D5
:100EC000392223E333E848E755E40E9482202B01CE
:100ED0003C01A70196016AE47CE08FE192E40E9464
:100EE00081209B01AC01C301B2010E94EA202B01C9
:100EF0003C01C7ECD0E00F2EFFE8CF2EDD24D394C9
:100F0000F02DE12CF12C8E01000F111F000F111F8D
:100F100004571F4FF8012591359145915491C30114
:100F2000B2010E94E620811150C05CC07E018FEFAB
:100F3000E81AF80AF701EE0FFF1FEE0FFF1FE45744
:100F4000FF4F2591359145915491C301B2010E9403
:100F50003522181634F09E01B301A201C50133DF1A
:100F600043C0F8012591359145915491C301B201D7
:100F70000E94E6208823DCF46E0181E0C81AD108C3
:100F8000F601EE0FFF1FEE0FFF1FE457FF4F2591F5
:100F9000359145915491C301B2010E94E620882306
:100FA00034F09601B301A201C5010DDF1DC0C601D9
:100FB0008E199F09EC010AF42196D595C795CE0D9F
:100FC000DF1DEC14FD0474F49ECFF80125913591DA
:100FD00045915491C301B2010E94352218160CF4B8
:100FE000A5CFBFCF8C2F9D2FDF91CF911F910F9158
:100FF000FF90EF90DF90CF90BF90AF907F906F9079
:101000005F904F90089508950895089580E487B9FA
:1010100087E886B908953699FECF87B1807E682B20
:1010200067B9369A0895FC01828108950C941917C6
:1010300008958CE083BF8CE781BF87B7826087BF4C
:10104000089587B78D7F87BF089587B7826087BF70
:10105000089590E0FC01EE0FFF1FDF01A80FB91FFC
:10106000AA0FBB1FA454BE4F11967C936E93139688
:101070001C921E921297FD015583448308951F927E
:101080000F920FB60F9211240BB60F92EF92FF92B0
:101090000F931F932F933F934F935F936F937F9380
:1010A0008F939F93AF93BF93CF93DF93EF93FF9370
:1010B000CCEBD1E00F2EFAEDEF2EF1E0FF2EF02D6C
:1010C000EC81FD81309779F08A819B8101969B8329
:1010D0008A83288139818217930729F41B821A8217
:1010E00009951D821C822696CE15DF0549F7FF91D2
:1010F000EF91DF91CF91BF91AF919F918F917F91B0
:101100006F915F914F913F912F911F910F91FF90A0
:10111000EF900F900BBE0F900FBE0F901F90189581
:1011200080E00895089511BA8FEF82BBEAE6F0E0FF
:1011300080818260808380818E7F808389B7816097
:1011400089BF08950C94191708952AE0DC01E22F55
:101150001D92EA95E9F7FC013A96DF011D922A9566
:10116000E9F79093DB018093DA010895CF93DF9341
:101170008091DA019091DB01892B51F484E190E0B8
:101180000E941917EC01E1DFD093DB01C093DA0173
:101190008091DA019091DB01DF91CF91089550E0C9
:1011A000440F551F840F951FFC01718360830895C0
:1011B0000C9419170895262F30E0220F331F820F49
:1011C000931FDC018D919C91009741F0642FDC010D
:1011D000ED91FC910680F781E02D09950895262F69
:1011E00030E0220F331F820F931FDC018D919C9101
:1011F000009741F0BA01DC01ED91FC910480F5818A
:10120000E02D0995089570E0660F771F860F971FF0
:10121000DC018D919C91009739F0DC01ED91FC91FE
:101220000190F081E02D09950895E62FF0E0EE0F92
:10123000FF1FE80FF91F80819181892B11F05387DF
:101240004287089570E0660F771FFC01E60FF71FD5
:1012500081E020813181232B09F480E0089570E042
:10126000660F771F860F971FFC018081918108957B
:101270001F920F920FB60F9211240BB60F922F935D
:101280003F934F935F936F937F938F939F93AF930E
:10129000BF93EF93FF936ADF6CB170E0DC011A96A5
:1012A000ED91FC911B9780E00995FF91EF91BF9123
:1012B000AF919F918F917F916F915F914F913F91EE
:1012C0002F910F900BBE0F900FBE0F901F9018958F
:1012D0001F920F920FB60F9211240BB60F922F93FD
:1012E0003F934F935F936F937F938F939F93AF93AE
:1012F000BF93EF93FF933ADF60919C0070E0DC01B5
:101300001C96ED91FC911D9781E00995FF91EF915D
:10131000BF91AF919F918F917F916F915F914F910D
:101320003F912F910F900BBE0F900FBE0F901F900B
:1013300018951F920F920FB60F9211240BB60F92B1
:101340002F933F934F935F936F937F938F939F93CD
:10135000AF93BF93EF93FF9309DFDC011E96ED91EE
:10136000FC911F9760E070E082E00995FF91EF919A
:10137000BF91AF919F918F917F916F915F914F91AD
:101380003F912F910F900BBE0F900FBE0F901F90AB
:1013900018951F920F920FB60F9211240BB60F9251
:1013A0002F933F934F935F936F937F938F939F936D
:1013B000AF93BF93EF93FF93D9DEDC015096ED918D
:1013C000FC91519760E070E083E00995FF91EF9107
:1013D000BF91AF919F918F917F916F915F914F914D
:1013E0003F912F910F900BBE0F900FBE0F901F904B
:1013F00018951F920F920FB60F9211240BB60F92F1
:101400002F933F934F935F936F937F938F939F930C
:10141000AF93BF93EF93FF93A9DE24B165B170E062
:10142000762F6627620F711DDC015296ED91FC91BB
:10143000539784E00995FF91EF91BF91AF919F91F0
:101440008F917F916F915F914F913F912F910F906D
:101450000BBE0F900FBE0F901F90189580E48093E5
:101460008B0084E080938A0088E09DE3909387005E
:101470008093860082E080937D0008952BE231E026
:10148000FC013183208308950C9419170895CF939C
:10149000DF93EC0110929B0088E980939A0086E02C
:1014A00080939D00BE016E5F7F4FCE0119D11092D7
:1014B00098009093990081E00E94E21A9F838E83A6
:1014C00081E00E94E21A9D838C83DF91CF91089581
:1014D0002BE331E0FC013183208320E835E23383C4
:1014E00022832091DC013091DD01232B21F49093A4
:1014F000DD018093DC0108950C94191708951F9362
:10150000CF93DF93EC01162F20E044E650E060E03B
:1015100070E08C819D810E94FA1A813081F4EBE9A0
:10152000F0E0808185FFFDCF10939C0020E040E03B
:1015300050E060E070E08C819D810E94501ADF9144
:10154000CF911F910895DBCF08950F931F93CF93F1
:10155000DF938C01EB0120E044E650E060E070E0B6
:10156000FC01868197810E94FA1A813099F4688182
:10157000662331F02196C801C2DF69916111FBCF6A
:1015800020E040E050E060E070E0F8018681978163
:101590000E94501ADF91CF911F910F910895D5CFDE
:1015A00008951F920F920FB60F9211240BB60F924F
:1015B0008F939F93EF93FF93E4ECF2E08681978102
:1015C000019697838683FF91EF919F918F910F9062
:1015D0000BBE0F900FBE0F901F901895CF93DF9307
:1015E000EC0188E98AB986E080939500BE016E5FC0
:1015F0007F4FCE0175D01092900099B981E00E9482
:10160000E21A9F838E8381E00E94E21A9D838C837D
:10161000DF91CF9108952BE431E0FC0131832083E9
:1016200020E03BE4338322832091DE013091DF010F
:10163000232B21F49093DF018093DE0108950C9415
:10164000191708951F93CF93DF93EC01162F20E015
:1016500044E650E060E070E08C819D810E94FA1ABF
:10166000813061F45D9BFECF1CB920E040E050E08A
:1016700060E070E08C819D810E94501ADF91CF91D3
:101680001F910895DFCF08950F931F93CF93DF939A
:101690008C01EB0120E044E650E060E070E0FC01EA
:1016A000868197810E94FA1A813099F468816623B5
:1016B00031F02196C801C6DF69916111FBCF20E0AE
:1016C00040E050E060E070E0F801868197810E9480
:1016D000501ADF91CF911F910F910895D5CF0895A2
:1016E000CF92DF92EF92FF92CF93DF93FB012081A5
:1016F0003181C901A0E0B0E0880F991FAA1FBB1F6C
:10170000880F991FAA1FBB1F9C01AD01220F331F19
:10171000441F551F220F331F441F551F60E074E202
:1017200084EF90E00E949C22CA01B90161507109C6
:10173000810991090E94832120E030E040E05FE3CD
:101740000E9482206B017C010E945721D62FF0E07D
:10175000CF2FC701B6010E945721CE01862BDF9102
:10176000CF91FF90EF90DF90CF900895C098962F83
:101770006F71862B8FB9779BFECF1FB8779BFECFFB
:1017800099231CF41FB8779BFECFC09A8FB10895A0
:10179000C0986F71862B8FB9779BFECF4FB9779B1F
:1017A000FECFC09A0895FB01C0982AE32FB9779B1A
:1017B000FECF009761F0DF01A80FB91F1FB8779B1C
:1017C000FECF9FB19193AE17BF07C1F701C0DF01F4
:1017D0001C92C09A0895FB01C0982AE72FB9779B05
:1017E000FECF009761F09F01280F391F03C02E170D
:1017F0003F0729F091919FB9779BFECFF8CFC09A10
:1018000008951F93CF93DF93182F1076C12FD0E048
:101810008091E20190E0C817D907A1F043E06FE1A1
:1018200080EAB6DFAE015595479555954795559594
:10183000479555954795559547956FE180E8A8DF01
:101840001093E201DF91CF911F910895CF93C82F9C
:10185000D8DF6C2F80E08ADFCF910895CF93DF939C
:10186000C82FD62FCEDF4D2F6C2F80E491DFDF9174
:10187000CF910895CF93DF93D62FC72F682F84ED94
:10188000EDDF6D2F86EDEADF6C2F87EDE7DF8AEE67
:10189000DDDF80FF04C085E08A95F1F7F8CFDF91A6
:1018A000CF910895682F677085E7D8CF0895CF93BB
:1018B000DF93EC01B89AC09AA6D24FEF60E08FEFA9
:1018C00067DF82E390E0A9D21092E1011092E0017B
:1018D00060E088E0C3DF60E089E0C0DF60E08CE0CA
:1018E000BDDF60E08DE0BADF6EEF8AE0B7DF69E16F
:1018F0008BE0B4DF6FEF84E0B1DF69E185E0AEDF5C
:101900006FEF86E0ABDF6FE187E0A8DF60EB88E395
:10191000A5DF6FE388E2A2DF60E389E29FDF69EF82
:1019200080E39CDF67EF81E399DF6DE080EC96DF79
:1019300060E081EC93DF42E362EC80E829DF62E162
:1019400086EC8CDF6CE087EC89DF62E184EC86DF7B
:101950006CED8AEC83DF65E08BEC80DF688184EEE0
:101960007DDF698185EE7ADF6A8182EE77DF6B81C8
:1019700083EE74DF6C8180EE71DF6D8181EE6EDF4E
:1019800060E071E080E176DF8FE13BDF40EC6BE10E
:1019900080E8FEDE44E06FE180E8FADEDF91CF917F
:1019A00008950F931F93CF93DF93EC018B016FEF9B
:1019B00082E054DF69E183E051DF6C2F615086E003
:1019C0004DDFCE018150964E692F87E047DF40E022
:1019D00060E08AE7DDDEB801CE01FDDE48E06FE1C0
:1019E00080E8D6DE8CE132DF81FF04C048E06FE1A1
:1019F00080EACEDEDF91CF911F910F9108959F92E3
:101A0000AF92BF92CF92DF92EF92FF920F931F930C
:101A1000CF93DF935C017B0189E318DF882309F40E
:101A200045C06091E001C091E10180E017DF6C2FBB
:101A300081E014DF60E08AE399DEC82F60E08AE38A
:101A400095DED0E0D82BD093E101C093E00160E0B7
:101A50008AE38CDE082F60E08AE388DE982E60E05F
:101A60008AE384DEC82E60E08AE380DEC7FE0FC012
:101A700081E0A81AB10810E0192904501109A01634
:101A8000B10608F48501B701C8018DDE02C000E08F
:101A900010E06C2F8CE0E2DE6D2F8DE0DFDE40E4A5
:101AA0006EE180E875DE802F912F02C080E090E02B
:101AB000DF91CF911F910F91FF90EF90DF90CF902A
:101AC000BF90AF909F900895CF92DF92EF92FF92D8
:101AD000CF93DF93EC01DB01413061F46B0188E0CF
:101AE000C81AD108E12CF12C81E1C80ED11CE11CEF
:101AF000F11C11C0423061F46B0188E0C81AD108B2
:101B0000E12CF12C86E0C80ED11CE11CF11C03C0B5
:101B1000C12CD12C7601A230B105F0F09D01FE015F
:101B2000408150E060E070E0762F652F542F44270D
:101B30008181482BC40ED51EE61EF71E3296225018
:101B400031092230310560F7CD0102978E7F029670
:101B5000C80FD91FA170BB27AB2B61F0888190E023
:101B6000A0E0B0E0BA2FA92F982F8827C80ED91E61
:101B7000EA1EFB1EA701662777274115510561055F
:101B8000710571F0EE24FF24C40ED51EE61EF71E6B
:101B9000A70166277727411551056105710591F762
:101BA000C60180959095DF91CF91FF90EF90DF90E7
:101BB000CF90089540930001A62FB72FE3EEF1E0F8
:101BC00047EE51E02D912193E417F507D9F7A82F9F
:101BD000B92FE7EEF1E02DEE31E08D918193E21720
:101BE000F307D9F7089569327105C8F0FC0124851F
:101BF0002830B9F425852630B1F436A12091E301CF
:101C0000321313C0B796A4EEB1E08A9631912D91AC
:101C100032130DC0E817F907C9F781E0089580E095
:101C2000089580E0089580E0089580E0089580E0C0
:101C30000895CF93DF93FC016A327105E0F084854B
:101C40008830D9F4858581111AC096859534C1F400
:101C5000268D9091E301291313C0DF015F96C4EE36
:101C6000D1E0B2962D91999129130AC0AE17BF0702
:101C7000C9F781E005C080E003C080E001C080E0DA
:101C8000DF91CF910895FC01A7EEB1E09C012A5F9E
:101C90003F4F868181938D918583E217F307C9F7C2
:101CA0000895CF93DF93EC01188E198E80E48C8B0E
:101CB0001D8A8E8B40E064E170E0CE010E9604DF59
:101CC000988F898FDF91CF910895AC01A3EEB1E099
:101CD000FC017A9627EE31E0908194839D91919357
:101CE000A217B307C9F7CA01DCCF0895CF93DF93DA
:101CF000EC01C9DF1C8A82E08D8BA7EEB1E0FE010A
:101D000076962DEE31E0808182878D918193A217A6
:101D1000B307C9F7A3EEB1E0FE017C9627EE31E0F0
:101D2000808182878D918193A217B307C9F7BE0185
:101D30008AE290E036DEDF91CF9108950F931F93F2
:101D4000CF93DF93EC018B019EDFCE01BEDF1AA2A1
:101D50008CA1883F18F09DA19F5F9DA3885F8CA3F5
:101D6000BE01C8011EDEDF91CF911F910F91089532
:101D7000DF92EF92FF920F931F93CF93DF93EC01CB
:101D8000D62EE72E042F122FF32E7DDF0D3D08F007
:101D90000CED188A8CE1800F898BCE0196DF8AA129
:101DA0008CA38BA18DA3FAA21BA31EA288E0800F97
:101DB0008FA318A619A6002381F0AD2DBE2DFE011C
:101DC000BA962FEF200F30E0255D3F4F2C0F3D1FBF
:101DD0009D919193E217F307D9F710E0B801605F86
:101DE0007F4F41E0CE014A966FDE98A789A7BE01DA
:101DF000C8018A96D6DDDF91CF911F910F91FF9098
:101E0000EF90DF90089587B3866087BBBB98C29838
:101E1000C19880E58DB9709A0895009741F0EFEB75
:101E2000F0E03197F1F700C000000197C1F7089585
:101E3000E4ECF2E08485958501969587848780910E
:101E4000AB028F5F8093AB02C598C69880913C032C
:101E500090913D03A0913E03B0913F030196A11DD7
:101E6000B11D80933C0390933D03A0933E03B09338
:101E70003F03089508958091AA02811103C081E073
:101E80008093AA020895CF93DF93CDB7DEB764970E
:101E90000FB6F894DEBF0FBECDBF0F2EFCEA4F2E5B
:101EA000F2E05F2EF02D0F2EF4E08F2EF3E09F2E48
:101EB000F02D0F2EF6E0AF2EF3E0BF2EF02D0F2EFB
:101EC000F8E06F2EF3E07F2EF02DCE0101969A8B75
:101ED000898B33243394F20180819181A281B38173
:101EE0008093A4029093A502A093A602B093A702A8
:101EF0008FEF87BB88BB81E091E0D9DC82E0D2DC48
:101F00008AE090E00E94831E66E774E084E1B2DC20
:101F100084E190E00E94831E40E564EA72E081E083
:101F200091E048DE212C0F2EFAE0CF2EF3E0DF2ED9
:101F3000F02D0DEE11E00F2EF4ECEF2EF2E0FF2E5F
:101F4000F02DD2018C9190E0F401608171811196A5
:101F50004C9150E0332DD501ED91FC914E175F0768
:101F600009F430E0232D8617970709F420E0322B7F
:101F7000F201428150E0232DD301ED91FC914E17E7
:101F80005F0709F420E0232B71F4F201238130E094
:101F9000432DD601ED91FC912E173F0709F440E047
:101FA000442309F447C08617970741F080E090E08A
:101FB0000E94DE22F4018081D2018C93F5016081C0
:101FC0007181D20111968C9190E08617970749F0A4
:101FD00081E090E00E94DE22F5018081D20111961D
:101FE0008C93F30160817181D20112968C9190E003
:101FF0008617970749F082E090E00E94DE22F30105
:102000008081D20112968C9360910A0370910B0328
:10201000F201838190E08617970749F083E090E012
:102020000E94DE2280910A03D20113968C93309293
:10203000A80251CF63E172E080E890E0E0DC9C8B85
:102040008B8B009709F477C0BC0183E192E0CBDD74
:10205000882321F083E192E049DE73CF6B897C898C
:1020600083E192E0E6DD882309F46BCF80912A02B8
:10207000813051F480913502883031F46B897C894C
:1020800083E192E05BDE5DCF80913D02813009F01B
:1020900052C080E1E989FA8911928A95E9F7409165
:1020A0003E024D3008F047C050E04F5F5F4F423076
:1020B00051050CF0CEC022C0FC01ED5EFD4F63A5C2
:1020C000FE01E80FF91F608320FD12C0E32FF0E04E
:1020D000EE0FFF1FE852FD4FAFEFBFEFAC0FBD1F7C
:1020E000A80FB91F8C9190E0962B918380833F5F5E
:1020F0002F5F822F90E084179507F4F2E3E1F2E07E
:1021000080AD90E0982F882721AD822BD701519682
:102110009C938E935097DD969C938E93DC97D996E3
:102120009C938E93D897D7969C938E93D697DF9651
:102130009C938E93DE97209429F088B3806188BBAE
:1021400088BB04C088B38F7E88BB88BBF7018281BF
:102150009381D80111969C938E93868197811396D3
:102160009C938E9312978481958115969C938E9360
:1021700014978089918917969C938E9316978289DC
:10218000938919969C938E931897848595851B96B1
:102190009C938E931A97828593851D969C938E931C
:1021A0001C97808591851F969C938E931E97E8E1DE
:1021B000F3E08081918151969C938E935097A6E194
:1021C000B3E08D919C91F801938B828B80911003E9
:1021D00090911103958B848B80911403909115033A
:1021E000978B868B81E090EF918F808FD7015496EB
:1021F0008D919C915597938F828F56968D919C913E
:102200005797958F848F58968D919C915997978F5A
:10221000868F5A968D919C915B9791A380A35C9633
:102220008D919C915D9793A382A35E968D919C91D5
:102230005F9795A384A32FE037E246E2B80183E1DC
:1022400092E096DD8091A9028F5F8093A90250D71A
:1022500078CE80913F02898321E030E049CFCF934F
:10226000DF93CDB7DEB72F970FB6F894DEBF0FBE62
:10227000CDBF6C01FE0131968FE0DF011D928A9582
:10228000E9F704EC12E05E01B0E1AB0EB11C0F2ED9
:10229000FAE98F2E912CF02D0F2EFCE06F2EF3E03B
:1022A0007F2EF02D0F2EF3E02F2E312CF02D0F2E40
:1022B000F0E14F2EF3E05F2EF02DF8018089918937
:1022C00026AD37AD2817390741F095AF84AF91AFF0
:1022D00080AF97AB86AB97AF86AFC6010E94C706AB
:1022E0008F3058F3CE0101967C01C6010E949B06F7
:1022F000D7018D937D01AA15BB05B9F7898182307D
:1023000009F074C0888590E0982F88272985822B52
:1023100090934F0380934E038A8590E0982F8827EF
:102320002B85822B90934D0380934C032C8530E0BA
:10233000322F22274D85242B30934B0320934A03C1
:10234000F80193838283D301ED90FC90E114F104B2
:1023500019F00E94250833C00E942108F2018081F3
:102360009181019761F5A0E4B3E08C91813059F03F
:10237000A1E4B3E0E1E0CD01805493407C018D9174
:10238000813071F401C0E0E0D701AA0FBB1FA05556
:10239000BD4F80914E0390914F038D939C9303C04A
:1023A000EF5FEA3041F7F0E0EE0FFF1FE055FD4F21
:1023B00080819181D80117969C938E931697809176
:1023C0004A0390914B03F8019583848320893189D6
:1023D000868197812817390709F06FCF8289938901
:1023E000892B09F06ACF338A228A67CFC79846E0E3
:1023F00061E088E593E00E94020645E050E068E570
:1024000073E0C6010E945F06D4018C918F778C9394
:10241000C6010E94D206F401808180688083C79A39
:102420004CCFCF93DF93CDB7DEB72A970FB6F89492
:10243000DEBF0FBECDBF7C01B12C0F2EF0E16F2EA1
:10244000F3E07F2EF02D6894332431F804EC12E091
:102450000F2EF4E1CF2EF3E0DF2EF02D2E018CE0D5
:10246000480E511C6894222424F84E0199E0890EEC
:10247000911C1AC0AA24A394BB24B39415C0AA2407
:10248000A394BB24B39410C06894AA24A2F8BB24DC
:10249000B3940AC00F2EF5E0AF2EF02DBB24B394F9
:1024A00003C0A22CBB24B39480B38E3FF9F4809177
:1024B000AA028130D9F480C1A8E1B3E08D919C914A
:1024C000FC01E05CFC4F2081213051F4880F991F02
:1024D000FC01E055FD4F80819181019691838083BD
:1024E0003092AA0280B38F3F49F46DC180B38F3F11
:1024F00029F48091AA02823009F465C1F80184852B
:102500009585CC9794F015861486828593850196DF
:102510008C3391051CF49387828707C0138612863B
:1025200080859185019691878087D601ED91FC91F8
:10253000EE0FFF1FE055FD4F80819181F8019783D9
:102540008683B11059C0C7010E94C706823008F4C3
:1025500041C1C7010E949B068983C7010E949B0657
:102560008A8399819130B1F4813009F44AC0843072
:1025700009F45EC0853009F489C0803159F4B4C0D3
:102580006894AA24A2F806C00F2EF5E0AF2EF02D15
:1025900001C0A22C41E061E088E593E00E940206C0
:1025A000C798579860E080918303909184030E94BC
:1025B0002F09DC01ED91FC910084F185E02D099556
:1025C000C7010E94D20660E080918303909184034A
:1025D0000E942F09DC01ED91FC910284F385E02D2E
:1025E00060E00995579A45E050E068E573E0C7015F
:1025F0000E945F06C79AEEC0B1E0BB1255CFAB1286
:1026000014C0C7010E94C706863008F433CF5E01AC
:10261000E3E0AE0EB11CC7010E949B06D5018D936D
:102620005D018A169B06B9F72ACFB4E0AB122BC026
:10263000C7010E94C706863008F426CF5E01E3E09A
:10264000AE0EB11CC7010E949B06D5018D935D01A2
:10265000A815B905B9F78C8190E0CC970CF090CF14
:10266000A80168E673E0CE0101960E94850547E067
:1026700050E068E673E0C7010E945F066894AA24F0
:10268000A2F8B12C11CFB5E0AB122BC0C7010E944C
:10269000C706863008F4FECE5E01E3E0AE0EB11C44
:1026A000C7010E949B06D5018D935D01A815B90550
:1026B000B9F78C8190E0CC970CF066CF6FE673E0B1
:1026C000CE0101960E94A60548E050E06FE673E057
:1026D000C7010E945F060F2EF5E0AF2EF02DB12C42
:1026E000E3CEB0E1AB12E0CEC7010E94C70689304D
:1026F00008F4D7CE5E01E3E0AE0EB11CC7010E9424
:102700009B06D5018D935D01A415B505B9F7A80108
:102710006DE573E0CE0101960E94BF058C8190E0CB
:10272000CC970CF036CF809160038632E9F4F60145
:1027300020813181F901E05CFC4F808181112CC046
:10274000E1E0F0E0D301ED93FC93A6E1B3E0ED937B
:10275000FC93E0E4F3E081918130F1F08AE493E0CE
:102760008E179F07C1F738C08732B1F4D6018D911B
:102770009C91FC01E05CFC4F2081213069F4FC015C
:10278000E05CFC4F108282E090E0F3019183808353
:10279000A6E1B3E01D921C9260E573E0CE010196C4
:1027A0000E94E90548E050E060E573E0C7010E943F
:1027B0005F06A22CB12C78CEF30180819181019724
:1027C00009F08ECE79CE8AE090E00E94831E1092AE
:1027D000AA0294CEB12C68CEF901E05CFC4F81E0F6
:1027E0008083A8E1B3E02D933C93D6CF809177030B
:1027F000909178030E943A06C59A089580917903D2
:1028000090917A030E943A06C69A08954BE35FE0DE
:1028100060E570E080E00C9429080895CF93DF9381
:1028200084E190E00E94D808EC010E94A508D093B2
:102830008403C093830384E090E00E941608FC01A7
:10284000128213828BE091E091838083F093820364
:10285000E093810344E0BF0180918303909184035E
:102860000E94CF0888E090E00E941F0BEC010E94BC
:102870000B0B40E0BE0180918303909184030E9482
:10288000CF0888E090E00E947C0AEC010E94680A70
:1028900041E0BE0180918303909184030E94CF08A0
:1028A00082E090E00E94440AEC010E943E0A42E06D
:1028B000BE0180918303909184030E94CF0882E03F
:1028C00090E00E94A2082BE131E0FC0131832083DB
:1028D00043E0BC0180918303909184030E94CF0860
:1028E00060E080918303909184030E94030961E07A
:1028F00080918303909184030E94030962E0809198
:102900008303909184030E94030963E08091830311
:10291000909184030E94030964E080918303909165
:1029200084030E94030947E551E060E0809183033E
:10293000909184030E94EF084DE751E061E080919F
:102940008303909184030E94EF08DF91CF91089553
:10295000CF92DF92EF92FF920F93CF93DF9310927B
:1029600015031092140380E090E00E94D622D82E26
:1029700090E0909305038093040381E090E00E942F
:10298000D622D82F90E0909307038093060382E02D
:1029900090E00E94D622C82F90E090930903809384
:1029A000080383E090E00E94D622282F30E0309385
:1029B0000B0320930A03ECEAF2E0D082D183C283B6
:1029C0008383F8942BDF46EF53E160E0809183032B
:1029D000909184030E9415094EEF53E161E08091CC
:1029E0008303909184030E94150948E15FE062E04F
:1029F00080918303909184030E94150946E054E17D
:102A000063E080918303909184030E9415094AE357
:102A10005FE064E080918303909184030E94150934
:102A200088E890E00E9437066C0160918303709102
:102A3000840340E00E941206C114D10421F481E015
:102A400090E00E94EF2288E890E00E943706EC01B7
:102A5000609183037091840341E00E9412062097E5
:102A600021F481E090E00E94EF22E7E7F3E0D182D9
:102A7000C082D383C2830E9419087894E12CF12C80
:102A800002E0960146E950E064EA71E081E192E1FA
:102A9000DED69E0146E950E06AEA71E08FE291E1FC
:102AA000D6D620E030E04CE251E060EB71E083E408
:102AB0009FE0CDD620E030E046E950E060EB71E0E9
:102AC0008EE196E1C4D6C1D780E090E0DF91CF914E
:102AD0000F91FF90EF90DF90CF9008954F925F920B
:102AE0006F927F928F929F92AF92BF92CF92DF921E
:102AF000EF92FF920F931F93CF93DF93CDB7DEB783
:102B000028970FB6F894DEBF0FBECDBF6B017C01D6
:102B1000EEE0F8E025913591459154910E94E62030
:102B20008823C4F002E118E021E02983F8016591CF
:102B3000759185919491A70196010E9435221816EE
:102B400054F039813F5F39830C5F1F4F313A71F781
:102B5000198201C019824981A42FB0E09D01215042
:102B60003109F901EE0FFF1FE453F94F45915591DB
:102B700065917491FD01EE0FFF1FE453F94F6591CC
:102B8000759185919491AD01440F551F440F551FC8
:102B9000425F574FFA014590559065907490FA0145
:102BA00085909590A590B490F901EE0FFF1FEE0F60
:102BB000FF1FE25FF74F259135914591549129838D
:102BC0003A834B835C830E9483216D837E838F8352
:102BD0009887A7019601C301B2010E9481206B0171
:102BE0007C0129813A814B815C81C501B4010E943D
:102BF00081209B01AC01C701B6010E94EA209B0124
:102C0000AC016D817E818F8198850E9481202896FC
:102C10000FB6F894DEBF0FBECDBFDF91CF911F91ED
:102C20000F91FF90EF90DF90CF90BF90AF909F906B
:102C30008F907F906F905F904F900895CF93DF9328
:102C400000D000D0CDB7DEB740E050E060EA70E4DD
:102C5000CE0101960E94DD06312CC12C10E000E06F
:102C60000F2EFBEADF2EF02D0F2EF4E9EF2EF2E00F
:102C7000FF2EF02D0F2EF8E38F2EF3E09F2EF02D78
:102C80000F2EF6E3AF2EF3E0BF2EF02DA0918103BF
:102C9000B09182031D9D912D11249695892F880F47
:102CA000980F612F691BED91FC9111970284F385B8
:102CB000E02DCD01099587B18F71782E8AE090E0E3
:102CC0000E94831E71102DC084B165B170E0762F13
:102CD0006627680F711D80E090E00E94832120E04C
:102CE00030E44CE950E40E94392220E030E040E238
:102CF00051E40E94EA202B013C01F70160817181BF
:102D000080E090E00E9483219B01AC01C301B201ED
:102D10000E9482200E945721F701718360830F5F18
:102D20002AC0F1E07F1214C084B165B170E0762F43
:102D30006627680F711DCE0101960E944007F701BA
:102D400022813381820F931F93838283C39413C0A4
:102D5000F2E07F1210C084B195B1F7012481358172
:102D6000280F311D892F90E0982F8827820F931FFD
:102D70009583848333940E31A8F0F701208131814B
:102D8000A9E8B8E80E94BE22929582958F708927A3
:102D90009F708927F50191838083F701118210824A
:102DA00000E045C0FDE1FC15B0F4F701228133815C
:102DB000A9E8B8E80E94BE22929582958F70892773
:102DC0009F7089270597F40191838083F70113820F
:102DD0001282C12C2CC0FDE1F31548F5F7012481C6
:102DE0003581A9E8B8E80E94BE22929582958F703D
:102DF00089279F708927BC0180E090E00E94832191
:102E000021E233E240EA5BE30E94392267DE20E000
:102E100030E040E251E40E9439220E945221EAE36C
:102E2000F3E071836083F70115821482312C1F5FF8
:102E30002DCFCF93DF93EC0130D680918503909115
:102E40008603892B31F48AE893E09093860380937C
:102E500085032091870330918803C9018C0F9D1F42
:102E6000873B4BE0940770F42817390770F4C09142
:102E70008503D0918603C20FD31F9093880380935C
:102E8000870305C0C0E0D0E002C0C0E0D0E0C2D6F9
:102E9000CE01DF91CF9108950895FC0103969283AE
:102EA00081832FEF3FEF348323839683858390873D
:102EB000878310820895FC01118610860895CF93B0
:102EC000DF939C01FB01DC011196CD91DC911297FF
:102ED000D383C2838C819D81958384838C819D81E2
:102EE000DC0113967C936E9312977D836C833187FC
:102EF0002087F90180818F5F8083DF91CF910895D2
:102F0000CF93DF93EB01488159814F3F2FEF520759
:102F100021F4FC01A781B0850DC0DC01139601C02E
:102F2000DF011296ED91FC911397208131814217B8
:102F30005307B0F71296ED91FC911397FB83EA8348
:102F4000D583C483BD83AC831396DC93CE93129751
:102F500099878887FC0120812F5F2083DF91CF91A3
:102F60000895CF93DF93FC01A085B185C281D38101
:102F7000848195819D838C83C481D5818281938155
:102F80009B838A8311968D919C911297E817F9077C
:102F900031F48481958112969C938E9311971186BA
:102FA00010868C9181508C93DF91CF91089531E1FF
:102FB000FC013083319722E220833197A3E3A08381
:102FC000319760833197708331971082319760E831
:102FD000608331971082319762E06083319763E0BC
:102FE0006083319764E06083319765E06083319757
:102FF00066E06083319767E06083319768E06083C3
:10300000319769E06083319760E160833197308365
:10301000319732E13083319733E13083319734E1B6
:103020003083319735E13083319736E13083319702
:1030300037E13083319738E13083319739E130839C
:10304000319730E23083319731E2308331972083FA
:10305000319723E220833197408331975083319712
:1030600026E22083319727E22083319728E22083CC
:10307000319729E22083319720E32083319721E3A0
:103080002083869708951BBC89EF8ABD8BE08EBD97
:1030900087B7806187BFA091A50FB091A60FCD9192
:1030A000CDBFDD91DEBFFF91EF91DF91CF91BF9159
:1030B000AF919F918F917F916F915F914F913F91D0
:1030C0002F911F910F91FF90EF90DF90CF90BF90C5
:1030D000AF909F908F907F906F905F904F903F90B8
:1030E0002F901F900F900FBE0F90089581E00895CC
:1030F0000F920FB6F8940F921F9211242F923F92C5
:103100004F925F926F927F928F929F92AF92BF92F7
:10311000CF92DF92EF92FF920F931F932F933F93E3
:103120004F935F936F937F938F939F93AF93BF93CF
:10313000CF93DF93EF93FF93A091A50FB091A60FCC
:103140000DB60D920EB60D9225D6A091A50FB09199
:10315000A60FCD91CDBFDD91DEBFFF91EF91DF9145
:10316000CF91BF91AF919F918F917F916F915F911F
:103170004F913F912F911F910F91FF90EF90DF9012
:10318000CF90BF90AF909F908F907F906F905F9007
:103190004F903F902F901F900F900FBE0F9008956B
:1031A0000F920FB6F8940F921F9211242F923F9214
:1031B0004F925F926F927F928F929F92AF92BF9247
:1031C000CF92DF92EF92FF920F931F932F933F9333
:1031D0004F935F936F937F938F939F93AF93BF931F
:1031E000CF93DF93EF93FF93A091A50FB091A60F1C
:1031F0000DB60D920EB60D9256D48111CBD5A0917D
:10320000A50FB091A60FCD91CDBFDD91DEBFFF918F
:10321000EF91DF91CF91BF91AF919F918F917F916E
:103220006F915F914F913F912F911F910F91FF905F
:10323000EF90DF90CF90BF90AF909F908F907F9056
:103240006F905F904F903F902F901F900F900FBE08
:103250000F900895A5DF18950F931F93CF93DF93D9
:10326000EC01042F1A8D4C8D41110BC0888199817E
:10327000892B09F041C08A819B81F1D61B821A8279
:1032800042C0011117C050E08C819D810E94CD2267
:103290002C8D8C819D81820F911D9D838C832A8131
:1032A0003B818217930750F1888199819D838C839C
:1032B00080E029C050E08E819F810E94CD228C8DBC
:1032C00090E09195819591092E813F81280F391FBA
:1032D0003F832E83488159812417350730F42A8192
:1032E0003B81820F931F9F838E83023049F4112309
:1032F00049F0115080E007C080E005C080E003C0C5
:1033000080E001C080E01F5F1A8FDF91CF911F9195
:103310000F910895FC01448D4423A9F050E02681CB
:103320003781240F351F37832683828193812817A5
:10333000390720F08081918197838683CB01668154
:1033400077810C94CD220895EF92FF920F931F93F3
:10335000CF938C010FB6F8940F92FC01C68D1C160A
:103360009CF48189811106C00FC0F8018189811107
:1033700005C00AC07801F1E1EF0EF11CC70180D54C
:10338000811107D6C15089F78FEFF801868F0F9012
:103390000FBE0FB6F8940F92C58D1C169CF4808555
:1033A000811106C00FC0F8018085811105C00AC0D7
:1033B0007801F8E0EF0EF11CC70162D58111E9D563
:1033C000C15089F78FEFF801858F0F900FBECF9115
:1033D0001F910F91FF90EF900895CF93DF93EC0131
:1033E0000FB6F8940F92488159812C8D30E07B8D77
:1033F000729FC001739F900D1124FA01E80FF91F0D
:10340000FB83EA831A8E5D834C83821B930B840FAC
:10341000951F9F838E838FEF8D8F8E8F61110AC0D2
:103420008885882369F0CE0108962AD5882341F043
:103430005FDE06C0CE01089630DDCE0141962DDD5F
:103440000F900FBE81E0DF91CF9108950F931F93EE
:10345000CF93DF93082F162F6623B1F0869FC0010C
:1034600011244F96E6DCEC01009739F413C00B8F62
:103470001C8F61E0CE01B1DF0DC04F969983888328
:10348000F6CFD983C883F3CF8FE190E0D2DCEC0193
:10349000892BB9F7CE01DF91CF911F910F9108953C
:1034A0009F92AF92BF92CF92DF92EF92FF920F93D3
:1034B0001F93CF93DF9300D000D01F92CDB7DEB71C
:1034C0008C016B015D834C83A22EB12C99249394C3
:1034D0007C0188E0E80EF11C0FB6F8940F92F80119
:1034E000928D838D981718F0F2E0AF1215C04A2D17
:1034F000B601C801B1DEF8019189992339F0C801FC
:103500004196BED4882321F0F3DD02C08111F0DDA5
:103510000F900FBE81E045C08C819D81892B21F4E5
:103520000F900FBE80E03DC0B11004C0CE010196E7
:10353000EDD4B92C0F900FBEB0D20FB6F8940F9205
:10354000F801858D8F3F09F4158EF801868D8F3F28
:1035500009F4168E0F900FBEBE016C5F7F4FCE0137
:103560000196DFD4811119C00FB6F8940F92F801BB
:10357000928D0F900FBE838D98130BC06C817D814F
:10358000C7016ED4C801E0DE45D38111A5CFB0DDFF
:10359000A3CFC801D9DE3ED39FCFC801D5DE3AD331
:1035A00080E00F900F900F900F900F90DF91CF91D0
:1035B0001F910F91FF90EF90DF90CF90BF90AF9051
:1035C0009F900895CF93DF93482F60E081E03EDF26
:1035D000EC01009759F01B821A82198218821E8210
:1035E00020E040E050E060E070E05ADFCE01DF9183
:1035F000CF9108958F929F92AF92BF92CF92DF9218
:10360000EF92FF920F931F93CF93DF9300D000D0E0
:103610001F92CDB7DEB78C015B015D834C83822E98
:10362000E12C992493946C0181E1C80ED11C0FB652
:10363000F8940F92F801F28CFF2061F1C680D780D8
:10364000B501C80167DE811016C0FA94F801F28E48
:1036500080819181892B21F442D5F8019383828363
:10366000F8018085882391F0C801089609D4882341
:1036700069F03EDD0BC0F801D782C68281898823BC
:1036800029F0C8014196FCD3811132DD0F900FBEA5
:1036900081E058C08C819D81892B21F40F900FBE51
:1036A00080E050C0E11004C0CE0101962FD4E92C77
:1036B0000F900FBEF2D10FB6F8940F92F801858DDE
:1036C0008F3F09F4158EF801868D8F3F09F4168E11
:1036D0000F900FBEBE016C5F7F4FCE01019621D4CB
:1036E000811124C00FB6F8940F92F801828D0F90CB
:1036F0000FBE811117C080819181892B41F40FB6D3
:10370000F8940F928281938148D40F900FBE6C8100
:103710007D81C601A5D3C80117DE7CD2811187CF78
:10372000E7DC85CFC80110DE75D281CFC8010CDE81
:1037300071D20FB6F8940F92F801828D0F900FBEE0
:10374000811175CF0F900F900F900F900F90DF9118
:10375000CF911F910F91FF90EF90DF90CF90BF908E
:10376000AF909F908F900895E0916D0FF0916E0F44
:103770008081811107C08FEF9FEF9093450F809359
:10378000440F0895E0916D0FF0916E0F0580F68162
:10379000E02D0680F781E02D828193819093450F83
:1037A0008093440F0895FF920F931F93CF93DF935D
:1037B000EC01F62E00914C0F10914D0F8091A50F4A
:1037C0009091A60F0296CDDBCF3F8FEFD80761F423
:1037D000FF2051F06091A50F7091A60F6E5F7F4F93
:1037E0008FE49FE06CDB2DC0C00FD11FE091A50FCF
:1037F000F091A60FD383C283C017D10760F4609104
:10380000A50F7091A60F80916B0F90916C0F6E5F5A
:103810007F4F76DB16C06091A50F7091A60F809147
:103820006D0F90916E0F6E5F7F4F6ADB8091440F3A
:103830009091450FC817D90720F4D093450FC09336
:10384000440FDF91CF911F910F91FF9008954F92F8
:103850005F926F927F928F929F92AF92BF92CF9220
:10386000DF92EF92FF920F93CF93DF934C016B01A6
:103870005A012901CA01DDDA3C01892B09F4D4C0BF
:1038800088E290E0D6DAEC01892B71F0788E6F8AAD
:1038900081E0A81AB1086A0C7B1CD6018C91898F33
:1038A0008C91811104C017C0C301F6DABDC0AE010E
:1038B000465E5F4FF6013196B8E0CB0ED11CCF01CA
:1038C0002191DA012D93AD01DC018C91882319F04F
:1038D000EC15FD05A1F718A2043008F003E00E8BEB
:1038E00009A31AA26E01B2E0CB0ED11CC601E3DA25
:1038F000CE010C96E0DAD987C88784E090E0801B7F
:1039000091099D878C87DB8BCA8B1BA21CA21DA2F1
:103910001EA21FA2A201B401C30149DB99838883BF
:10392000E114F10419F0F701D183C0830FB6F894C4
:103930000F9280914E0F8F5F80934E0F8091A50F55
:103940009091A60F892B89F5D093A60FC093A50F50
:1039500080914E0F813009F038C081E89FE09DDAF8
:103960008AE89FE09ADA83E99FE097DA8CE99FE0A2
:1039700094DA88E79FE091DA8FE69FE08EDA82E6BC
:103980009FE08BDA89E59FE088DA8FE49FE085DAB3
:1039900088E79FE090936E0F80936D0F8FE69FE016
:1039A00090936C0F80936B0F10C080914A0F811120
:1039B0000CC0E091A50FF091A60F96898E8989170A
:1039C00020F0D093A60FC093A50F8091460F8F5F74
:1039D0008093460F8E8990914B0F981710F4809327
:1039E0004B0F90E09C01220F331F220F331F220F39
:1039F000331F820F931FB6018F57904F60DA0F90DD
:103A00000FBE80914A0F882359F0E091A50FF091E5
:103A1000A60F96898E89981728F46ADB81E005C085
:103A200081E003C081E001C08FEFDF91CF910F9162
:103A3000FF90EF90DF90CF90BF90AF909F908F90CE
:103A40007F906F905F904F900895EF92FF920F9349
:103A50000F2EF2E4EF2EFFE0FF2EF02D00E020E02D
:103A600030E045E550E066EB71E083E99EE1EFDE92
:103A7000813079F4F8948FEF9FEF9093450F809306
:103A8000440F81E080934A0F10924D0F10924C0F1B
:103A9000FADA0F91FF90EF9008958091410F8F5FB8
:103AA0008093410F0895CF92DF92EF92FF920F9390
:103AB0001F93CF93DF938091410F811195C0E090C8
:103AC0004C0FF0904D0F8FEFE81AF80AF0924D0F5F
:103AD000E0924C0FE114F104B1F480916D0F9091DC
:103AE0006E0F20916B0F30916C0F30936E0F2093FF
:103AF0006D0F90936C0F80936B0F8091470F8F5FCA
:103B00008093470F31DE8091440F9091450FE81666
:103B1000F90610F4D12C50C0D12CCC24C394E091E0
:103B20006D0FF0916E0F8081811107C08FEF9FEFB5
:103B30009093450F8093440F3FC0E0916D0FF0913B
:103B40006E0F0580F681E02DC681D7818A819B8129
:103B5000E816F90628F49093450F8093440F2CC083
:103B60008E010E5F1F4FC801FCD98C899D89892B5E
:103B700019F0CE010C96F5D98E8990914B0F9817BC
:103B800010F480934B0F90E09C01220F331F220F03
:103B9000331F220F331F820F931FB8018F57904F8F
:103BA0008ED9E091A50FF091A60F9E89868998176E
:103BB00008F4B5CFDC2CB3CFE091A50FF091A60FA0
:103BC000868990E0FC01EE0FFF1FEE0FFF1FEE0F46
:103BD000FF1F8E0F9F1FFC01EF57F04F8081823037
:103BE00048F0DD24D39406C08091490F8F5F809305
:103BF000490FD12C8091480F882311F0DD24D394F4
:103C00008D2DDF91CF911F910F91FF90EF90DF905D
:103C1000CF900895DF92EF92FF920F931F93CF936F
:103C2000DF930FB6F8940F928091410F81508093EB
:103C3000410F8091410F811159C080914E0F811128
:103C400030C057C0D7011596ED91FC911697C681EB
:103C5000D781CE010C9685D98E010E5F1F4FC8010A
:103C600080D98E8990914B0F981710F480934B0F49
:103C700090E09C01220F331F220F331F220F331FAE
:103C8000820F931FB8018F57904F19D9E091A50F5C
:103C9000F091A60F9E898689981768F0D092480FF8
:103CA0000AC0C0E0D0E00F2EF2E6EF2EFFE0FF2EBC
:103CB000F02DDD24D394F70180818111C3CFCD2B6A
:103CC00009F052DDC091490FCC2349F0D1E0EBDE81
:103CD0008111D093480FC150D1F71092490F8091B4
:103CE000480F882329F004DA81E003C080E001C096
:103CF00080E00F900FBEDF91CF911F910F91FF9049
:103D0000EF90DF900895CF93DF93EC01892B39F08A
:103D1000C4DE60E0CE0147DD7DDF811101C0E8D95E
:103D2000DF91CF91089509E51FE00F2EF1E8EF2E06
:103D3000FFE0FF2EF02D24C0B0DED801CC916ADF69
:103D4000CC23F1F00FB6F8940F92D8011596ED91AF
:103D5000FC911697C681D781CE01029602D9809137
:103D60004E0F815080934E0F8091580F8150809359
:103D7000580F0F900FBE8F89988D8ED8CE018CD89A
:103D80008091580F8111D8CFF70180818230C0F324
:103D9000AFD9F6CF8091410F882321F081E0809345
:103DA000480F08951092480F20914B0F822F90E0FA
:103DB000FC01EE0FFF1FEE0FFF1FEE0FFF1FE80FBE
:103DC000F91FEF57F04F3081311111C02150822F70
:103DD00090E0FC01EE0FFF1FEE0FFF1FEE0FFF1F25
:103DE000E80FF91FEF57F04F3081332379F3AC011F
:103DF000440F551F440F551F440F551F480F591F9F
:103E0000DA01AF57B04F1196ED91FC9112970280F5
:103E1000F381E02D1296FC93EE9311974C57504F7F
:103E2000E417F50729F442815381FD015283418350
:103E3000FC01EE0FFF1FEE0FFF1FEE0FFF1F8E0F97
:103E40009F1FFC01EF57F04F0180F281E02D86812A
:103E500097819093A60F8093A50F20934B0F089501
:103E6000CF93DF93EB016091A50F7091A60F645F74
:103E70007F4F46D861E0CE0196DCDF91CF91089567
:103E80000F931F93CF93DF93DC011596ED91FC9177
:103E90001697C681D7818E01045F1F4FC80161D874
:103EA0008091410F81111BC00A501109C80159D8D6
:103EB0008E8990914B0F981710F480934B0F90E0E0
:103EC0009C01220F331F220F331F220F331F820F3B
:103ED000931FB8018F57904F0E945F1705C0B8011C
:103EE00082E69FE00E945F17E091A50FF091A60F78
:103EF0009E898689891720F481E08093480F01C04C
:103F000080E0DF91CF911F910F9108952091470F8D
:103F1000FC01208320914C0F30914D0F328321837F
:103F200008950FB6F8940F9240914C0F50914D0F99
:103F3000DB012D913C912F3FBFEF3B0711F1E09149
:103F4000470FDC01FC91FE1739F01196ED91FC91C1
:103F500012974E175F07B8F4DC011196ED91FC91B2
:103F60001297DA01AE1BBF0BA217B30770F4DB0187
:103F7000E41BF50B2E0F3F1F2D933C93C7DF80E012
:103F800005C080E003C081E001C081E00F900FBE5A
:103F9000089581E08093480F08950F931F93CF9366
:103FA000DF93FC01892B09F455C02689A091A50F48
:103FB000B091A60F56968C91281708F04BC08485B7
:103FC0009585992364F0A091A50FB091A60F569600
:103FD0003C9184E090E0831B91099587848730E0D1
:103FE000C901880F991F880F991F880F991F280FE3
:103FF000391F2F57304F828593858217930719F504
:104000008F01EF012296CE010E94B117E091A50F1A
:10401000F091A60F8689F801868B90914B0F981727
:1040200010F480934B0F90E09C01220F331F220F5E
:10403000331F220F331F820F931FBE018F57904FE4
:104040000E945F1707C0A091A50FB091A60F5696CA
:104050008C91868BDF91CF911F910F9108950F93D3
:104060001F93CF93DF93FC01892B79F182A18150BB
:1040700082A3268991A1291751F181112AC0EF014C
:104080008F010E5F1F4FC8010E94B11789A18E8B4F
:1040900024E030E0281B31093D872C8790914B0F9D
:1040A000981710F480934B0F90E09C01220F331F60
:1040B000220F331F220F331F820F931FB8018F5718
:1040C000904F0E945F1781E005C080E003C080E050
:1040D00001C080E0DF91CF911F910F9108958091F1
:1040E000A50F9091A60F892B39F0E091A50FF091C3
:1040F000A60F82A18F5F82A38091A50F9091A60F3A
:1041000008955058BB27AA270ED075C166D130F04C
:104110006BD120F031F49F3F11F41EF45BC10EF41B
:10412000E095E7FB51C1E92F77D180F3BA17620719
:1041300073078407950718F071F49EF58FC10EF48C
:10414000E0950B2EBA2FA02D0B01B90190010C01A7
:10415000CA01A0011124FF27591B99F0593F50F4BF
:10416000503E68F11A16F040A22F232F342F442717
:10417000585FF3CF469537952795A795F04053950F
:10418000C9F77EF41F16BA0B620B730B840BBAF0DF
:104190009150A1F0FF0FBB1F661F771F881FC2F74A
:1041A0000EC0BA0F621F731F841F48F4879577955E
:1041B0006795B795F7959E3F08F0B3CF9395880F15
:1041C00008F09927EE0F979587950895D9D008F4B0
:1041D00081E008950CD00FC107D140F0FED030F03F
:1041E00021F45F3F19F0F0C0511139C1F3C014D16F
:1041F00098F39923C9F35523B1F3951B550BBB27AE
:10420000AA2762177307840738F09F5F5F4F220F5A
:10421000331F441FAA1FA9F333D00E2E3AF0E0E853
:1042200030D091505040E695001CCAF729D0FE2F9F
:1042300027D0660F771F881FBB1F26173707480731
:10424000AB07B0E809F0BB0B802DBF01FF279358E7
:104250005F4F2AF09E3F510568F0B6C000C15F3F36
:10426000ECF3983EDCF3869577956795B795F795CF
:104270009F5FC9F7880F911D9695879597F90895C7
:10428000E1E0660F771F881FBB1F62177307840763
:10429000BA0720F0621B730B840BBA0BEE1F88F772
:1042A000E095089504D06894B111D9C00895BCD0A8
:1042B00088F09F5790F0B92F9927B751A0F0D1F00F
:1042C000660F771F881F991F1AF0BA95C9F712C099
:1042D000B13081F0C3D0B1E00895C0C0672F782F0E
:1042E0008827B85F39F0B93FCCF386957795679505
:1042F000B395D9F73EF490958095709561957F4F71
:104300008F4F9F4F0895E89409C097FB3EF4909516
:104310008095709561957F4F8F4F9F4F9923A9F09E
:10432000F92F96E9BB279395F6958795779567952D
:10433000B795F111F8CFFAF4BB0F11F460FF1BC071
:104340006F5F7F4F8F4F9F4F16C0882311F096E904
:1043500011C0772321F09EE8872F762F05C06623B2
:1043600071F096E8862F70E060E02AF09A95660F6B
:10437000771F881FDAF7880F9695879597F9089524
:10438000990F0008550FAA0BE0E8FEEF1616170666
:10439000E807F907C0F012161306E407F50798F0CE
:1043A000621B730B840B950B39F40A2661F0232BE7
:1043B000242B252B21F408950A2609F4A140A69563
:1043C0008FEF811D811D089597F99F6780E870E048
:1043D00060E008959FEF80EC089500240A9416167B
:1043E000170618060906089500240A9412161306E3
:1043F000140605060895092E0394000C11F4882371
:1044000052F0BB0F40F4BF2B11F460FF04C06F5F8C
:104410007F4F8F4F9F4F089557FD9058440F551F62
:1044200059F05F3F71F04795880F97FB991F61F036
:104430009F3F79F087950895121613061406551FAD
:10444000F2CF4695F1DF08C0161617061806991F19
:10445000F1CF86957105610508940895E894BB270E
:1044600066277727CB0197F908958ADF08F48FEF45
:1044700008950BD0C0CFB1DF28F0B6DF18F0952338
:1044800009F0A2CFA7CF1124EACFC6DFA0F3959FF2
:10449000D1F3950F50E0551F629FF001729FBB272B
:1044A000F00DB11D639FAA27F00DB11DAA1F649FD7
:1044B0006627B00DA11D661F829F2227B00DA11D8A
:1044C000621F739FB00DA11D621F839FA00D611D10
:1044D000221F749F3327A00D611D231F849F600D31
:1044E000211D822F762F6A2F11249F5750408AF06A
:1044F000E1F088234AF0EE0FFF1FBB1F661F771FF6
:10450000881F91505040A9F79E3F510570F05CCF35
:10451000A6CF5F3FECF3983EDCF3869577956795E1
:10452000B795F795E7959F5FC1F7FE2B880F911D13
:104530009695879597F90895A1E21A2EAA1BBB1BA1
:10454000FD010DC0AA1FBB1FEE1FFF1FA217B3075F
:10455000E407F50720F0A21BB30BE40BF50B661F75
:10456000771F881F991F1A9469F760957095809539
:1045700090959B01AC01BD01CF010895A29FB001B0
:10458000B39FC001A39F700D811D1124911DB29F87
:10459000700D811D1124911D0895FB01DC0102C0E5
:1045A00001900D9241505040D8F70895E199FECF07
:1045B0009FBB8EBBE09A99278DB30895262FE19972
:1045C000FECF9FBB8EBBE09A01970DB2021631F071
:1045D0002DBB0FB6F894E29AE19A0FBE0895F894B5
:0245E000FFCF0B
:1045E2005054555810002400000000060813080318
:1045F20008040805080B080000000093089008034F
:1046020008040805089208000000002E0A9008031A
:104612000804080508920800000000470A9008CF25
:104622000AA30A0508920800000000EE0A90086E2C
:104632000B420B050892085561727420496E697429
:10464200205355434345535320626F616472617432
:10465200652039363030627073200D0A00525334AF
:10466200383520496E6974205355434345535320CE
:10467200626F6164726174652039363030627073C2
:10468200200D0A005461736B31005461736B320068
:0C4692005461736B330049444C45000038
:00000001FF
