S00C000052544F532E73726563D0
S113000028C2000053C5000043C2000041C20000E2
S11300103FC200003DC200003BC2000039C20000E4
S113002037C2000051C6000033C2000031C20000D4
S11300300C94A0132DC200002BC20000C5C3000005
S113004027C2000025C20000A0C4000021C2000095
S11300501FC200005BC500001BC2000019C20000E3
S113006017C2000015C2000013C2000011C2000034
S1130070EDC400000DC20000B8C4000009C20000B5
S113008007C2000005C2000003C20000D8FFD9FF68
S1130090DAFFDBFFDCFFDDFFDEFFDFFFE0FFE1FF78
S11300A0E2FFE3FFE4FFE5FFE6FFE7FFE8FFE9FF28
S11300B0EAFFEBFFECFFEDFFEEFFEFFFF0FFF1FFD8
S11300C0F2FFF3FFF4FFF5FFF6FFF7FFF8FFF9FF88
S11300D0FAFFFBFFFCFFFDFFFEFFFFFF0000010036
S11300E002000300040005000600070008000900E0
S11300F00A000B000C000D000E000F001000110090
S1130100120013001400150016001700180019003F
S11301101A001B001C001D001E001F0020002100EF
S1130120220023002400250026002700280029009F
S11301302A002B002C002D002E002F00300031004F
S113014032003300340035003600370038003900FF
S11301503A003B003C003D003E003F0040004100AF
S1130160420043004400450046004700480049005F
S11301704A004B004C004D004E004F00500051000F
S113018052005300540055005600570058005900BF
S11301905A005B005C005D005E005F00600061006F
S11301A0620063006400650066006700680069001F
S11301B06A006B006C006D006E006F0070007100CF
S11301C07200730074007500760077007800A184D3
S11301D0893ECD92903E60EA973E97909F3E73850C
S11301E0A73E92CBAF3E9565B83ECA54C13E809AB5
S11301F0CA3E0938D43E5131DE3E5986E83EC13903
S1130200F33E884BFE3E7FDE043F08C90A3F11E4FB
S1130210103F9031173F85B11D3FF163243F7B4967
S11302202B3F2462323F92AE393FC72E413F19E241
S1130230483F32C9503FC1E2583F1630613F3AAFA0
S1130240693F2D60723FEE427B3F172B823FA3CC68
S1130250863FC6858B3FDA55903F363C953F323812
S11302609A3FCF499F3F696FA43F00A9A93F99F5E1
S1130270AE3FE353B43FDFC3B93FE943BF3F07D3C6
S1130280C43FE370CA3FDA1BD03F46D3D53FD59570
S1130290DB3F8D62E13F7138E73F3316ED3F83FA70
S11302A0F23FB8E4F83F84D3FE3FCC620240FB5CEB
S11302B00540A85708407E520B40AD4C0E40B74550
S11302C011401D3D144061321740DD241A403C1496
S11302D01D400000204082E7224097CA25406DA8B7
S11302E02840DC802B408F532E40DE1F31409FE599
S11302F033407FA43640FF5B3940F60B3C40E5B306
S11303003E40CE53414085EB4340637A46409300E0
S11303104940BF7D4B40BFF14D40925C5040E4BD2D
S113032052408C155540B26357402FA85940D6E22D
S11303305B40A9135E40A83A6040D1576240FD6A11
S113034064405474664000746840AD696A40B055B6
S11303506C40DF376E408C1070408FDF714012A507
S113036073403D61754012147740BABD78400B5E0E
S11303707A40AEF57B4023847D40130A7F40964348
S11303808040F4FD80400FB48140276682401214FF
S113039083400EBE83401B6484404F068540D3A433
S11303A085407D3F8640A1D686402B6A87402FFA40
S11303B08740C28688400E108940FF958940D21834
S11303C08A405F988A40F9148B40758E8B401405DF
S11303D08C40C0788C40A3E98C40D1578D404CC3ED
S11303E08D40282C8E4064928E402BF68E4093577D
S11303F08F4085B68F402B139040876D9040ACC5DD
S11304009040B01B9140936F91406AC19140491153
S113041092401C5F924022AB924045F59240863D4B
S113042093400E849340F3C893400B0C9440944D36
S113043094407A8D9440E6CB9440C4089540284477
S11304409540137E9540AEB69540D0ED9540B823C7
S1130450964011241FBECFEFD0E1DEBFCDBF11E027
S1130460A0E0B1E0E2E9F9E300E00BBF02C00790CD
S11304700D92AC3BB107D9F72FE0ACEBB1E001C072
S11304801D92A23AB207E1F70E94BE0F0C94C71C5A
S1130490B7CDFC01680F791F8FEF9FEFE617F707C1
S11304A099F02191822728E030E0AC014170552772
S11304B096958795452B21F041E0842740EA9427BF
S11304C02150310991F7EACF0895CF93DF93FC01CE
S11304D0EB018081888381818983838192E09A837F
S11304E0FA01E80FF11DE80FF11D81818B838081F2
S11304F08C8365E070E0CE01CCDF9E838D83DF9139
S1130500CF910895CF93DF93FC01EB018081888321
S11305108181898382818A8383818B8384818C8393
S113052085818D8366E070E0CE01B3DF9F838E8387
S1130530DF91CF910895CF93DF93FC01EB0180818C
S113054088838181898382818A8393819B83848147
S11305508C8385818D8386818E8327812F838085FB
S11305608887FA01E90FF11DE90FF11D90E0922B44
S11305709183808369E070E0CE018BDF9A8789875D
S1130580DF91CF910895CF93DF93FC01EB0180813C
S113059088838181898382818A8383818B83848117
S11305A08C8385818D8366E070E0CE0172DF9F834A
S11305B08E83DF91CF910895CF93DF93EC0168830D
S11305C081E889834A8363E070E0CE0162DF9C8323
S11305D08B83DF91CF910895FF920F931F93CF9355
S11305E0DF93EC01CB01F42E8E010A571F4FF80163
S11305F071836083642FB5D1882371F0FE01EB57BA
S1130600FF4FF08231971082349711821082CE57B7
S1130610DF4F1982188203C0F80111821082DF9122
S1130620CF911F910F91FF9008950C948E11FC01AE
S1130630E058FF4F20812F5F2F7719F41182108229
S113064021E030E0DC01AE57BF4F4D915C9124179F
S1130650350771F0A081B181A80FB91F11966C9371
S113066031832083FC01EC57FF4F80818F5F8083AF
S11306700895BF92CF92DF92EF92FF920F931F9350
S1130680CF93DF937B016A018C010B571F4FEC0161
S1130690CA57DF4FF8016081888199816ED1892B17
S11306A089F0B12C8B2D90E08C159D055CF4F7013D
S11306B0E80FF91F4081F80160818881998110D188
S11306C0B394F0CFDF91CF911F910F91FF90EF90F2
S11306D0DF90CF90BF900895CF93DF93DC01AE57A6
S11306E0BF4F2D913C911197EC01C058DF4F4881C9
S11306F0598142175307C9F02F5F3F4FFC01E20FA6
S1130700F31F40812F77332711963C932E93FC01DE
S1130710EC57FF4F808190E02817390741F41D9270
S11307201C9219821882108202C08FEF01C0842F9C
S1130730DF91CF910895DC01A058BF4FFC01EE5723
S1130740FF4F8C919081891B8F770895FC01EE57A0
S1130750FF4F1182108232971182108234961082D8
S1130760089508950895089580E487B987E886B9BF
S113077008953699FECF87B1807E682B67B9369A83
S11307800895FC01828108950C948E118CE083BF3E
S11307908CE781BF87B7826087BF089587B78D7F55
S11307A087BF089587B7826087BF089526E0829F38
S11307B0C0011124FC01E454FE4F71836083138251
S11307C012825583448308951F920F920FB60F929D
S11307D011240BB60F922F933F934F935F936F9314
S11307E07F938F939F93AF93BF93CF93DF93EF93B5
S11307F0FF93CCEBD1E0EC81FD81309779F08A81D5
S11308009B8101969B838A83288139818217930770
S113081029F41B821A8209951D821C82269681E086
S1130820CA3DD80741F7FF91EF91DF91CF91BF9176
S1130830AF919F918F917F916F915F914F913F9174
S11308402F910F900BBE0F900FBE0F901F90189515
S113085080E00895089511BA8FEF82BBEAE6F0E0D4
S113086080818260808380818E7F808389B781606C
S113087089BF08950C948E112AE0DC01E22F1D92A9
S1130880EA95E9F7FC013A96DF011D922A95E9F70A
S11308909093DB018093DA010895CF93DF938091E5
S11308A0DA019091DB01892B51F484E190E00E94FC
S11308B08E11EC01E1DFD093DB01C093DA0180916A
S11308C0DA019091DB01DF91CF910895840F911D9E
S11308D0840F911DFC017183608308950C948E1123
S11308E0860F911D860F911DDC018D919C910097BF
S11308F041F0DC01ED91FC910680F781E02D642F3D
S113090009940895860F911D860F911DDC018D9128
S11309109C91009741F0DC01ED91FC910480F581FC
S1130920E02DBA0109940895860F911D860F911D3B
S1130930DC018D919C91009739F0DC01ED91FC91E3
S11309400190F081E02D09940895860F911D860F82
S1130950911DFC0120813181232B11F053874287A3
S11309600895FC01E60FF11DE60FF11D81E02081E1
S11309703181232B09F480E00895860F911D860FA1
S1130980911DFC018081918108951F920F920FB6F1
S11309900F9211240BB60F922F933F934F935F93B3
S11309A06F937F938F939F93AF93BF93EF93FF9333
S11309B074DF6CB170E0DC011A96ED91FC911B9729
S11309C080E00995FF91EF91BF91AF919F918F9135
S11309D07F916F915F914F913F912F910F900BBE3B
S11309E00F900FBE0F901F9018951F920F920FB685
S11309F00F9211240BB60F922F933F934F935F9353
S1130A006F937F938F939F93AF93BF93EF93FF93D2
S1130A1044DF60919C0070E0DC011C96ED91FC9138
S1130A201D9781E00995FF91EF91BF91AF919F913F
S1130A308F917F916F915F914F913F912F910F9083
S1130A400BBE0F900FBE0F901F9018951F920F9220
S1130A500FB60F9211240BB60F922F933F934F931F
S1130A605F936F937F938F939F93AF93BF93EF9312
S1130A70FF9313DFDC011E96ED91FC911F9760E05C
S1130A8070E082E00995FF91EF91BF91AF919F9142
S1130A908F917F916F915F914F913F912F910F9023
S1130AA00BBE0F900FBE0F901F9018951F920F92C0
S1130AB00FB60F9211240BB60F922F933F934F93BF
S1130AC05F936F937F938F939F93AF93BF93EF93B2
S1130AD0FF93E3DEDC015096ED91FC91519760E0C9
S1130AE070E083E00995FF91EF91BF91AF919F91E1
S1130AF08F917F916F915F914F913F912F910F90C3
S1130B000BBE0F900FBE0F901F9018951F920F925F
S1130B100FB60F9211240BB60F922F933F934F935E
S1130B205F936F937F938F939F93AF93BF93EF9351
S1130B30FF93B3DE24B165B170E0762F6627620FB0
S1130B40711DDC015296ED91FC91539784E0099557
S1130B50FF91EF91BF91AF919F918F917F916F9191
S1130B605F914F913F912F910F900BBE0F900FBE4D
S1130B700F901F90189580E480938B0084E08093FD
S1130B808A0088E09DE3909387008093860082E04A
S1130B9080937D0008952BE231E0FC0131832083B2
S1130BA008950C948E11CF93DF93EC0110929B0067
S1130BB088E980939A0086E080939D00BE016E5F71
S1130BC07F4FCE0128D1109298009093990081E034
S1130BD00E942C159F838E8381E00E942C159D8397
S1130BE08C83DF91CF9108952BE331E0FC013183B5
S1130BF0208320E835E2338322832091DC01309185
S1130C00DD01232B21F49093DD018093DC01089511
S1130C100C948E111F93CF93DF93EC01162F20E0D9
S1130C2044E650E060E070E08C819D810E944415B0
S1130C30813091F480919B0085FFFCCF10939C0040
S1130C4020E040E050E060E070E08C819D81DF9125
S1130C50CF911F910C94A414DF91CF911F9108950B
S1130C60D9CFEF92FF920F931F93CF93DF938C0111
S1130C707B0120E044E650E060E070E0FC01868106
S1130C8097810E9444158130B9F4E7016991662384
S1130C9019F0C801BFDFFACF20E040E050E060E087
S1130CA070E0F80186819781DF91CF911F910F91B8
S1130CB0FF90EF900C94A414DF91CF911F910F91AA
S1130CC0FF90EF900895CDCF1F920F920FB60F9221
S1130CD011240BB60F928F939F93EF93FF93E4EC41
S1130CE0F2E086819781019697838683FF91EF9145
S1130CF09F918F910F900BBE0F900FBE0F901F907E
S1130D001895CF93DF93EC0188E98AB986E0809344
S1130D109500BE016E5F7F4FCE017DD01092900092
S1130D2099B981E00E942C159F838E8381E00E94F3
S1130D302C159D838C83DF91CF9108952BE431E0B2
S1130D40FC013183208320E438E333832283209120
S1130D50DE013091DF01232B21F49093DF01809396
S1130D60DE0108950C948E111F93CF93DF93EC0151
S1130D70162F20E044E650E060E070E08C819D8115
S1130D800E944415813079F45D9BFECF1CB920E0AC
S1130D9040E050E060E070E08C819D81DF91CF9174
S1130DA01F910C94A414DF91CF911F910895DCCF6F
S1130DB0EF92FF920F931F93CF93DF938C017B01EC
S1130DC020E044E650E060E070E0FC018681978119
S1130DD00E9444158130B9F4E7016991662319F042
S1130DE0C801C2DFFACF20E040E050E060E070E0EC
S1130DF0F80186819781DF91CF911F910F91FF9028
S1130E00EF900C94A414DF91CF911F910F91FF9058
S1130E10EF900895CDCFCF92DF92EF92FF92CF93D0
S1130E20DF93FB0120813181C901A0E0B0E09C0186
S1130E30AD0184E0220F331F441F551F8A95D1F75B
S1130E4060E074E284EF90E00E94831CCA01B9015F
S1130E5061507109810991090E944A1B20E030E028
S1130E6040E05FE30E944D1A6B017C010E941E1B4F
S1130E70D62FF0E0CF2FC701B6010E941E1BCE0172
S1130E80862BDF91CF91FF90EF90DF90CF90089564
S1130E90C098962F9F71892B8FB9779BFECF1FB86F
S1130EA0779BFECF67FD03C0C09A8FB108951FB82A
S1130EB0779BFECFF9CFC0986F71862B8FB9779B44
S1130EC0FECF4FB9779BFECFC09A0895FB01C0981F
S1130ED02AE32FB9779BFECF8E0F9F1FE817F907E0
S1130EE031F01FB8779BFECF2FB12193F7CF10823B
S1130EF0C09A0895C0982AE72FB9779BFECF860F32
S1130F00971F6817790739F0FB012191BF012FB9A9
S1130F10779BFECFF6CFC09A08951F93CF93DF93AC
S1130F20182F1076C12FD0E08091E20190E0C8170D
S1130F30D90779F043E06FE180EABDDFAE0185E0D7
S1130F40559547958A95E1F76FE180E8B4DF1093F2
S1130F50E201DF91CF911F910895CF93C82FDDDF78
S1130F606C2F80E0CF9194CFCF93DF93C82FD62FEF
S1130F70D4DF4D2F6C2F80E4DF91CF919CCFCF93A2
S1130F80DF93D62FC72F682F84EDEEDF6D2F86ED0C
S1130F90EBDF6C2F87EDE8DF8AEEDFDF80FF04C034
S1130FA085E08A95F1F7F8CFDF91CF910895682F06
S1130FB0677085E7D9CFCF93DF93EC01B89AC09AD5
S1130FC069D24FEF60E08FEF76DF82E390E06CD27E
S1130FD01092E1011092E00160E088E0C5DF60E07A
S1130FE089E0C2DF60E08CE0BFDF60E08DE0BCDF61
S1130FF06EEF8AE0B9DF69E18BE0B6DF6FEF84E082
S1131000B3DF69E185E0B0DF6FEF86E0ADDF6FE16C
S113101087E0AADF60EB88E3A7DF6FE388E2A4DF61
S113102060E389E2A1DF69EF80E39EDF67EF81E39C
S11310309BDF6DE080EC98DF60E081EC95DF42E3BC
S113104062EC80E838DF62E186EC8EDF6CE087ECEE
S11310508BDF62E184EC88DF6CED8AEC85DF65E090
S11310608BEC82DF688184EE7FDF698185EE7CDF33
S11310706A8182EE79DF6B8183EE76DF6C8180EEAC
S113108073DF6D8181EE70DF60E071E080E177DF16
S11310908FE143DF40EC6BE180E80DDF44E06FE17A
S11310A080E8DF91CF9107CF0F931F93CF93DF9306
S11310B0EC018B016FEF82E057DF69E183E054DFDD
S11310C06C2F615086E050DFCE018150964E692F1F
S11310D087E04ADF40E060E08AE7EDDEB801CE0158
S11310E009DF48E06FE180E8E6DE8CE136DF81FF6E
S11310F008C048E06FE180EADF91CF911F910F9122
S1131100DACEDF91CF911F910F9108959F92AF9204
S1131110BF92CF92DF92EF92FF920F931F93CF93E0
S1131120DF936C017B0189E318DF882309F442C053
S11311306091E001C091E10180E016DF6C2F81E055
S113114013DF60E08AE3A4DE082F60E08AE3A0DE18
S113115010E0182B1093E1010093E00160E08AE3B2
S113116097DEC82F60E08AE393DE982E60E08AE37E
S11311708FDEA82E60E08AE38BDEA7FE0DC0C601D9
S11311800197D0E0D92924978C179D0708F4EC0126
S1131190B701CE019BDE02C0C0E0D0E0602F8CE03E
S11311A0E3DE612F8DE0E0DE40E46EE180E883DE83
S11311B0CE0102C080E090E0DF91CF911F910F91AA
S11311C0FF90EF90DF90CF90BF90AF909F900895E5
S11311D00F931F93CF93DF93FC019B01413051F494
S11311E0AB014850510960E070E04F5E5F4F6F4FB4
S11311F07F4F0FC0423051F4AB014850510960E0B9
S113120070E04A5F5F4F6F4F7F4F03C040E050E094
S1131210BA01C901EF018230910558F0A991B99141
S1131220BA27AB27BA274A0F5B1F611D711D0297AE
S1131230F2CFC9018E7FE80FF91F2817390761F033
S1131240808190E0A0E0B0E0BA2FA92F982F8827E2
S1131250480F591F6A1F7B1F8B0122273327011553
S113126011052105310539F066277727400F511FF5
S1131270621F731FF1CFCA0180959095DF91CF91C2
S11312801F910F91089540930001FB01A3EEB1E07B
S113129021912D9321E0A73EB207D1F7FC01A7EEDF
S11312A0B1E081918D9381E0AD3EB807D1F7089507
S11312B069327105A0F0FC012485283081F425856C
S11312C0263069F4B696A3EEB1E08A9631912D9159
S11312D0321305C0E817F907C9F781E0089580E0E3
S11312E00895CF93DF93FC016A327105B8F08485C9
S11312F08830A1F48585811111C09685953479F4DF
S1131300DF015E96C3EED1E0B2962D919991291337
S113131006C0AE17BF07C9F781E001C080E0DF91C6
S1131320CF910895FC01A7EEB1E0069626812193A2
S11313302D912583E817F907C9F70895CF93DF9313
S1131340EC01188E198E80E48C8B1D8A8E8B40E004
S113135064E170E0CE010E963BDF988F898FDF91B8
S1131360CF910895A3EEB1E0FC017A969C01225E30
S11313703F4F408144834D914193E217F307C9F7EE
S1131380DDCFCF93DF93EC01CDDF1C8A82E08D8B20
S113139087EE91E0AE014A5E5F4FFE017C96DA0172
S11313A02C911A962C93DC012D91CD01DA012D9309
S11313B0AD01AE17BF0799F7A3EEB1E0CE01809659
S11313C0208122872D912193E817F907C9F7BE01DF
S11313D08AE290E0DF91CF9167CE0F931F93CF9372
S11313E0DF93EC018B019EDFCE01BCDF1AA28CA13E
S11313F0883F18F09DA19F5F9DA3885F8CA3BE01C9
S1131400C801DF91CF911F910F914ECEDF92EF92E1
S1131410FF920F931F93CF93DF93EC01162FF72EB8
S1131420042FE22ED32E7EDF0D3D08F00CED188A3A
S11314308CE1800F898BCE0195DF8AA18CA38BA1CF
S11314408DA3DAA2EBA21EA288E0800F8FA318A6B8
S113145019A6912FDE019A96E12FFF2D8E2F891B5D
S1131460801718F481918D93F9CF10E0B801605F73
S11314707F4F41E0CE014A96ABDE98A789A7BE0113
S1131480C8018A96DF91CF911F910F91FF90EF9041
S1131490DF900ACE87B3866087BBBB98C298C19899
S11314A080E58DB9709A0895009741F0EFEBF0E074
S11314B03197F1F700C000000197F6CF0895E4ECEE
S11314C0F2E0848595850196958784878091AB02A7
S11314D08F5F8093AB02C598C69880913603909134
S11314E03703A0913803B09139030196A11DB11DB2
S11314F08093360390933703A0933803B093390352
S113150080917F03809580937F030895089580914F
S1131510AA02811103C081E08093AA020895CF93A7
S1131520DF93CDB7DEB760970FB6F894DEBF0FBE7A
S1131530CDBFDD24DA94E0E1CE2ECE0101967C010C
S1131540BB24B39401E010EF8091AC029091AD0202
S1131550A091AE02B091AF028093A4029093A50231
S1131560A093A602B093A702D7BAD8BA81E091E0BB
S113157022DD82E01CDD8AE090E00E949B1866E791
S113158074E084E1FCDC84E190E00E949B1840E577
S113159064EA72E081E091E076DE8091AC0290E052
S11315A060910403709105034091AD0250E031E075
S11315B0E0910603F09107034E175F0709F430E04A
S11315C021E08617970709F420E0322B4091AE0200
S11315D050E021E0E0910803F09109034E175F0702
S11315E009F420E0232B59F42091AF0230E040911C
S11315F00A0350910B032417350709F444C08617D6
S1131600970741F080E090E00E94B61C80910403AB
S11316108093AC0260910603709107038091AD0240
S113162090E08617970741F081E090E00E94B61C95
S1131630809106038093AD026091080370910903C1
S11316408091AE0290E08617970741F082E090E027
S11316500E94B61C809108038093AE0260910A0335
S113166070910B038091AF0290E08617970741F0C9
S113167083E090E00E94B61C80910A038093AF023D
S1131680B092A80261CF63E172E080E890E03EDDB1
S11316904C01009709F46FC0BC0183E192E008DEBD
S11316A0882321F083E192E06CDE77CFB40183E1FB
S11316B092E017DE882309F470CF80912A028130EA
S11316C049F480913502883029F4B40183E192E031
S11316D084DE63CF80913D02813009F04CC0F70174
S11316E08C2D11928A95E9F720913E022D3008F055
S11316F042C041E050E030E0842F90E028173907E1
S1131700F4F0FC01ED5EFD4F63A5FE01E80FF91F47
S1131710608340FD12C0E52FF0E0EE0FFF1FE8529A
S1131720FD4FAFEFBFEFAC0FBD1FA80FB91F8C91DA
S113173090E0962B918380835F5F4F5FDDCF809134
S11317404B0290E0982F882720914C02822B909393
S1131750D5028093D4029093010380930003909365
S1131760FD028093FC029093FB028093FA02909313
S113177003038093020380917F03882319F088B3C5
S1131780806102C088B38F7E88BB88BB8091C6020B
S11317909091C7029093EE018093ED018091CA026B
S11317A09091CB029093F0018093EF018091C80255
S11317B09091C9029093F2018093F1018091D40237
S11317C09091D5029093F4018093F3018091D60215
S11317D09091D7029093F6018093F5018091D00205
S11317E09091D1029093F8018093F7018091CE02F9
S11317F09091CF029093FA018093F9018091CC02E9
S11318009091CD029093FC018093FB018091180389
S1131810909119039093FE018093FD01809116032A
S113182090911703909300028093FF01809110031D
S1131830909111039093020280930102809114030A
S1131840909115039093040280930302109306026F
S1131850009305028091D8029091D90290930802D6
S1131860809307028091DA029091DB0290930A023E
S1131870809309028091DC029091DD0290930C0226
S113188080930B028091DE029091DF0290930E020E
S113189080930D028091E0029091E10290931002F6
S11318A080930F028091E2029091E30290931202DE
S11318B0809311022FE037E246E26DEE71E083E19E
S11318C092E0A4DD8091A9028F5F8093A90286D65D
S11318D064CECF93DF93CDB7DEB72F970FB6F894CE
S11318E0DEBF0FBECDBF8C01CE0101967C018FE01F
S11318F0F70111928A95E9F76E01F0E1CF0ED11C40
S113190043E0A42EB12C8091D4029091D502209171
S11319100203309103032817390781F090930103E0
S1131920809300039093FD028093FC029093FB024A
S11319308093FA029093030380930203C8010E94E8
S11319409B038F3000F34701C8010E946C03F4012C
S113195081934F01CE16DF06B9F78981823009F0F1
S11319607CC088859985982789279827909349036F
S1131970809348038A859B85982789279827909385
S11319804703809346032C853D853227232732273E
S1131990309345032093440320910E0330910F03A9
S11319A02130310521F09093C7028093C6028091C3
S11319B00C0390910D03892B19F00E94D2032DC0C2
S11319C00E94CE038091100390911103019729F591
S11319D0EAE3F3E080E090E0282F3191313061F4C4
S11319E0880F991FFC01E055FD4F809148039091A9
S11319F049039183808305C001968A30910561F77C
S1131A002AE0E22FF0E0EE0FFF1FE055FD4F80814A
S1131A1091819093CB028093CA0280914403909168
S1131A2045039093C9028093C8022091D402309157
S1131A30D5028091CA029091CB022817390709F088
S1131A4062CF8091D6029091D702892B09F05BCFA7
S1131A50B092D702A092D60256CFC79846E061E072
S1131A6082E593E00E94DC0245E050E062E573E029
S1131A70C8010E94390380919A008F7780939A005D
S1131A80C8010E94A60380919A00806880939A00FE
S1131A90C79A39CFCF93DF93CDB7DEB72A970FB666
S1131AA0F894DEBF0FBECDBF8C01C12C82E0382E6E
S1131AB0222423947E0189E0E80EF11C2E01ACE07F
S1131AC04A0E511C92E0692E712CAA24A394B12CC5
S1131AD034E4832E33E0932E80B38E3FF9F4809167
S1131AE0AA028130D9F480911003909111030197D7
S1131AF099F4E0911803F0911903DF01A65CBC4F3F
S1131B008C91813049F4EE0FFF1FE055FD4F808129
S1131B1091810196918380833092AA0280B38F3F92
S1131B2029F48091AA02823009F463C18091D00221
S1131B309091D102CC97F4F01092D1021092D0027D
S1131B408091CE029091CF0201968C3391052CF4B2
S1131B509093CF028093CE020DC01092CF021092C8
S1131B60CE028091CC029091CD0201969093CD0249
S1131B708093CC02E0911403F0911503EE0FFF1F44
S1131B80E055FD4F808191819093CB028093CA02EE
S1131B90C1107CC0C8010E949B03823008F43CC180
S1131BA0C8010E946C038983C8010E946C038A8364
S1131BB099819130C9F5813009F46BC0843051F4B6
S1131BC0C8010E949B038630D8F4E4E0DE2ECC24C6
S1131BD0C39482CF853049F4C8010E949B038630A8
S1131BE008F07FC075E0D72EF2CF8031E9F4C80148
S1131BF00E949B03893008F098C060E1D62EE7CF9D
S1131C006E0183E0C80ED11CC8010E946C03D6018A
S1131C108D936D01EA16FB06B9F78C8190E0C997A4
S1131C200CF44DC054E0D52E41E061E082E593E030
S1131C300E94DC02C798579860E080917D039091E0
S1131C407E030E94BD04DC01ED91FC910084F185CA
S1131C50E02D0995C8010E94A60360E080917D03F0
S1131C6090917E030E94BD04DC01ED91FC910284FD
S1131C70F385E02D60E00995579A45E050E062E570
S1131C8073E0C8010E943903C79AC6C0B1E0DB12F1
S1131C90B7C0C8010E949B03863018F4DD24D39496
S1131CA096CF6E01B3E0CB0ED11CC8010E946C0329
S1131CB0F60181936F01EE15FF05B9F7EFCF44EC00
S1131CC052E062E673E0CE0101960E94650247E0AD
S1131CD050E062E673E0C8010E94390324E0D22E8A
S1131CE09BC06E01E3E0CE0ED11CC8010E946C03C0
S1131CF0D6018D936D01EA16FB06B9F78C8190E04D
S1131D00C9971CF045E0D42E8FCF69E673E0CE016D
S1131D1001960E94820248E050E069E673E0C8013F
S1131D200E94390395E0D92E77C06E01E3E0CE0E10
S1131D30D11CC8010E946C03D6018D936D014A1613
S1131D405B06B9F744EC52E067E573E0CE01019617
S1131D500E949B028C8190E0C9971CF030E1D32E45
S1131D6063CF80915A03863201F5809114039091D8
S1131D701503DC01A65CBC4F2C9121112AC0B09242
S1131D801103A0921003B0921703A0921603EAE382
S1131D90F3E021912130E9F08E169F06D1F72C92C1
S1131DA0909319038093180314C0873291F4E0913F
S1131DB01403F0911503E65CFC4F8081813049F4F3
S1131DC01082709211036092100310921703109204
S1131DD016036AE473E0CE0101960E94C30248E050
S1131DE050E06AE473E0C8010E94390380E1D82E10
S1131DF013C08AE090E00E949B181092AA0296CE2B
S1131E00F4E0DF1609F4DCCEB5E0DB1609F4E4CE29
S1131E10B0E1DB12DCCEEBCEC12C5ECE809171033F
S1131E20909172030E941703C59A089580917303D9
S1131E30909174030E941703C69A089547E85AE0E4
S1131E4060E570E080E00C94D603CF93DF9384E1E7
S1131E5090E00E946E04EC010E943C04D0937E0347
S1131E60C0937D0384E090E00E94C403FC011282CD
S1131E7013828BE091E091838083F0937C03E09361
S1131E807B0344E0BF0180917D0390917E030E9417
S1131E90660488E090E00E94B206EC010E949E066F
S1131EA040E0BE0180917D0390917E030E94660410
S1131EB088E090E00E940806EC010E94F40541E0ED
S1131EC0BE0180917D0390917E030E94660482E0AE
S1131ED090E00E94D105EC010E94CB0542E0BE01D6
S1131EE080917D0390917E030E94660482E090E0DD
S1131EF00E943A042BE131E0FC013183208343E06A
S1131F00BC0180917D0390917E030E94660460E091
S1131F1080917D0390917E030E94940461E08091FE
S1131F207D0390917E030E94940462E080917D037E
S1131F3090917E030E94940463E080917D039091CC
S1131F407E030E94940464E080917D0390917E035B
S1131F500E94940447E551E060E080917D039091F4
S1131F607E030E9482044DE751E061E080917D038D
S1131F7090917E03DF91CF910C948204CF92DF92F3
S1131F80EF92FF920F93CF93DF9310921503109269
S1131F90140380E090E00E94AE1CD82E90E0909351
S1131FA005038093040381E090E00E94AE1CD82FC7
S1131FB090E0909307038093060382E090E00E94F0
S1131FC0AE1CC82F90E0909309038093080383E02C
S1131FD090E00E94AE1C282F30E030930B03209336
S1131FE00A03D092AC02D093AD02C093AE028093A8
S1131FF0AF02F8942ADF4EE05FE060E080917D0359
S113200090917E030E94A50446E15FE061E0809127
S11320107D0390917E030E94A5044FE55AE062E09F
S113202080917D0390917E030E94A5044EE15FE0C0
S113203063E080917D0390917E030E94A50446E8AD
S11320405AE064E080917D0390917E030E94A50490
S113205088E890E00E9415036C0160917D03709103
S11320607E0340E00E94EC02C114D10421F481E01B
S113207090E00E94C71C88E890E00E941503EC01E0
S113208060917D0370917E0341E00E94EC022097F1
S113209071F3D0927203C0927103D0937403C0930E
S11320A073030E94C6037894E12CF12C02E096019C
S11320B045E651E064EA71E08AE49DE00BD69E01B6
S11320C048EC50E06AEA71E089E69CE003D620E03F
S11320D030E04AE852E060EB71E08FE89AE0FAD52C
S11320E020E030E048EC50E060EB71E089E291E1FF
S11320F0F1D5E2D680E090E0DF91CF910F91FF908F
S1132100EF90DF90CF9008954F925F926F927F92FD
S11321108F929F92AF92BF92CF92DF92EF92FF92F3
S11321200F931F93CF93DF93CDB7DEB728970FB6E6
S1132130F894DEBF0FBECDBF6B017C010EEC11E045
S11321401982F8016591759185919491A701960181
S11321500E94FC1B181644F029812F5F29830C5F11
S11321601F4F213A71F719828980A82DB0E09D0193
S113217021503109F901EE0FFF1FE457FF4F45913C
S1132180559165917491FD01EE0FFF1FE457FF4FC8
S11321906591759185919491AD01440F551F440F3C
S11321A0551F42535E4FFA014590559065907490C7
S11321B0FA0185909590A590B49089829A82AB8219
S11321C0BC82F901EE0FFF1FEE0FFF1FE253FE4F1B
S11321D085909590A590B4908D829E82AF82B886AA
S11321E00E944A1B4B015C01A7019601C301B20185
S11321F00E944C1A6B017C012D813E814F815885D0
S113220069817A818B819C810E944C1A9B01AC016B
S1132210C701B6010E94B11A9B01AC01C501B4010A
S11322200E944C1A28960FB6F894DEBF0FBECDBF9D
S1132230DF91CF911F910F91FF90EF90DF90CF909E
S1132240BF90AF909F908F907F906F905F904F90D2
S11322500895C0E0D0E053E0F52E0EE110E0809147
S11322600E0390910F03019789F4A0917B03B09121
S11322707C038D2F6F2D0E94631CED91FC911197AF
S11322800284F385E02D692FCD010995E7B08AE03A
S113229090E051D78E2D8F71823099F484B195B12D
S11322A02091980230919902280F311D892F90E0D6
S11322B0982F8827820F931F9093990280939802F6
S11322C0CF5FCE3148F180910E0390910F030197B7
S11322D019F58091980290919902B8010E946F1C9F
S11322E080E090E00E944A1B21E233E240EA5BE393
S11322F00E94001C09DF20E030E040E251E40E942B
S1132300001C0E94191B7093C7026093C6021092AE
S1132310990210929802C0E0DF5FA1CFCF93DF93C0
S1132320EC01F2D58091800390918103892B31F4E3
S113233085E893E090938103809380032091820346
S113234030918303C9018C0F9D1F873B4BE0940799
S113235070F42817390758F4C0918003D091810391
S1132360C20FD31F909383038093820302C0C0E003
S1132370D0E078D6CE01DF91CF9108950895FC0185
S11323800396928381832FEF3FEF348323839683D5
S113239085839087878310820895FC0111861086B7
S11323A00895CF93DF939C01FB01DC011196CD913D
S11323B0DC911297D383C2838C819D81958384831E
S11323C08C819D81DC0113967C936E9312977D839F
S11323D06C8331872087F90180818F5F8083DF914F
S11323E0CF9108950F931F93CF93DF938C01FB013B
S11323F0808191818F3F2FEF920721F4E801AF8113
S1132400B8850EC0D801139612962D913C9113975E
S1132410E901488159818417950710F0D901F4CF57
S113242012968D919C91139793838283EC01FD8383
S1132430EC83B583A4831396FC93EE9312971187D0
S11324400087F80180818F5F8083DF91CF911F9196
S11324500F910895CF93DF93FC01A085B18582810C
S1132460938124813581EC013D832C83C481D58102
S11324709B838A8311968D919C911297E817F90793
S113248021F41296DC93CE931197118610868C91C9
S113249081508C93DF91CF91089531E1FC01308319
S11324A0319722E220833197A3E3A083319760839D
S11324B03197708331971082319760E86083319748
S11324C01082319762E06083319763E060833197D3
S11324D064E06083319765E06083319766E06083F0
S11324E0319767E06083319768E06083319769E0F2
S11324F06083319760E1608331973083319732E1B3
S11325003083319733E13083319734E1308331972D
S113251035E13083319736E13083319737E13083C9
S1132520319738E13083319739E13083319730E2A4
S11325303083319731E2308331972083319723E21E
S113254020833197408331975083319726E220834B
S1132550319727E22083319728E22083319729E2BB
S11325602083319720E32083319721E320838697CA
S113257008951BBC89EF8ABD8BE08EBD87B780614F
S113258087BFA091A00FB091A10FCD91CDBFDD91D8
S1132590DEBFFF91EF91DF91CF91BF91AF919F91FA
S11325A08F917F916F915F914F913F912F911F91E7
S11325B00F91FF90EF90DF90CF90BF90AF909F90DE
S11325C08F907F906F905F904F903F902F901F90CF
S11325D00F900FBE0F90089581E008950F920FB6EB
S11325E0F8940F921F9211242F923F924F925F9270
S11325F06F927F928F929F92AF92BF92CF92DF920F
S1132600EF92FF920F931F932F933F934F935F93F8
S11326106F937F938F939F93AF93BF93CF93DF93E6
S1132620EF93FF93A091A00FB091A10F0DB60D925F
S11326300EB60D92BFD5A091A00FB091A10FCD9170
S1132640CDBFDD91DEBFFF91EF91DF91CF91BF91BF
S1132650AF919F918F917F916F915F914F913F9136
S11326602F911F910F91FF90EF90DF90CF90BF902B
S1132670AF909F908F907F906F905F904F903F901E
S11326802F901F900F900FBE0F9008950F920FB6CA
S1132690F8940F921F9211242F923F924F925F92BF
S11326A06F927F928F929F92AF92BF92CF92DF925E
S11326B0EF92FF920F931F932F933F934F935F9348
S11326C06F937F938F939F93AF93BF93CF93DF9336
S11326D0EF93FF93A091A00FB091A10F0DB60D92AF
S11326E00EB60D9217D4811165D5A091A00FB091AB
S11326F0A10FCD91CDBFDD91DEBFFF91EF91DF91B1
S1132700CF91BF91AF919F918F917F916F915F9185
S11327104F913F912F911F910F91FF90EF90DF9078
S1132720CF90BF90AF909F908F907F906F905F906D
S11327304F903F902F901F900F900FBE0F900895D1
S1132740A5DF18950F931F93CF93DF93EC01042F0C
S11327501A8D4C8D41110AC088819981892BE1F52C
S11327608A819B814ED61B821A8237C050E00111A8
S113277015C08C819D810E94A51C2C8D8C819D810E
S1132780820F911D9D838C832A813B81821793073D
S113279018F1888199819D838C831EC08E819F81CD
S11327A00E94A51C8C8D90E09195819591092E81B4
S11327B03F81280F391F3F832E8348815981241775
S11327C0350730F42A813B81820F931F9F838E83C8
S11327D0023011F41111115080E01F5F1A8FDF9144
S11327E0CF911F910F910895FC01CB01448D442397
S11327F0A1F050E026813781240F351F37832683CB
S1132800628173812617370720F020813181378355
S11328102683668177810C94A51C0895EF92FF921C
S11328201F93CF93DF93EC010FB6F8940F921E8D94
S11328307C0181E1E80EF11C11164CF4898988238E
S113284031F0C70109D5811180D51150F5CF8FEF33
S11328508E8F0F900FBE0FB6F8940F921D8D7E01D0
S113286088E0E80EF11C11164CF48885882331F0B9
S1132870C701F2D4811169D51150F5CF8FEF8D8F37
S11328800F900FBEDF91CF911F91FF90EF900895AD
S1132890CF93DF93EC010FB6F8940F92288139811E
S11328A09B8D4C8D949FC0011124F901E80FF91FF1
S11328B0FB83EA831A8E3D832C83841B9109820F48
S11328C0931F9F838E838FEF8D8F8E8F61110AC02C
S11328D08885882369F0CE010896BED4882341F008
S11328E07DDE06C0CE0108964ADDCE01419647DD65
S11328F00F900FBE81E0DF91CF9108950F931F9346
S1132900CF93DF93082F162F662321F0869FC001F3
S1132910112402C080E090E04F9600DDEC010097A6
S113292069F0111103C09983888303C04F9699837A
S113293088830B8F1C8F61E0CE01AADFCE01DF916B
S1132940CF911F910F910895AF92BF92CF92DF92D2
S1132950FF920F931F93CF93DF9300D000D01F9269
S1132960CDB7DEB78C016B015D834C83F22E80E022
S1132970580198E0A90EB11C0FB6F8940F92F80113
S1132980228D938D291718F0F2E0FF1211C04F2DFC
S1132990B601C801D7DEF8019189992319F0C8015D
S11329A041965AD481111ADE0F900FBE81E045C0C2
S11329B02C813D81232B19F40F900FBE3DC0811152
S11329C003C0CE01019685D40F900FBE9DD20FB6E1
S11329D0F8940F92F801858D8F3F09F4158EF80154
S11329E0868D8F3F09F4168E0F900FBEBE016C5F6B
S11329F07F4FCE01019678D481111BC00FB6F89495
S1132A000F92F801928D0F900FBE838D98130DC015
S1132A106C817D81C50111D4C80100DF23D38823D3
S1132A2011F081E0A9CFDADDFCCFC801F7DE1AD3BB
S1132A30F8CFC801F3DE16D380E00F900F900F900B
S1132A400F900F90DF91CF911F910F91FF90DF9026
S1132A50CF90BF90AF900895CF93DF93482F60E05D
S1132A6081E04CDFEC01009759F01B821A82198235
S1132A7018821E8220E040E050E060E070E064DFF5
S1132A80CE01DF91CF910895AF92BF92CF92DF92A2
S1132A90EF92FF920F931F93CF93DF9300D000D058
S1132AA01F92CDB7DEB78C016B015D834C83E22EA0
S1132AB080E0580191E1A90EB11C0FB6F8940F9271
S1132AC0F801F28CFF2051F1A680B780B601C8014D
S1132AD08BDEE11016C0FA94F801F28E80819181A8
S1132AE0892B21F4C7D4F80193838283F80180856C
S1132AF0882381F0C8010896AFD3882359F06EDD8E
S1132B0009C0F801B782A6828189882319F0C80117
S1132B104196F2CF0F900FBE81E059C02C813D81C8
S1132B20232B21F40F900FBE80E051C0811103C00C
S1132B30CE010196CED30F900FBEE6D10FB6F89416
S1132B400F92F801858D8F3F09F4158EF801868D5B
S1132B508F3F09F4168E0F900FBEBE016C5F7F4F3E
S1132B60CE010196C1D3811126C00FB6F8940F92FD
S1132B70F801828D0F900FBE811119C0808191815F
S1132B80892B41F40FB6F8940F9282819381E1D39B
S1132B900F900FBE6C817D81C5014FD3C8013EDE0D
S1132BA061D2882311F081E088CF18DDFCCFC80101
S1132BB035DE58D2F8CFC80131DE54D20FB6F894BE
S1132BC00F92F801828D0F900FBE8111ECCF0F9000
S1132BD00F900F900F900F90DF91CF911F910F9155
S1132BE0FF90EF90DF90CF90BF90AF900895E09169
S1132BF0680FF091690F8081811103C08FEF9FEFFF
S1132C000CC0E091680FF091690F0580F681E02D0A
S1132C100680F781E02D828193819093400F809309
S1132C203F0F0895FF920F931F93CF93DF93EC010F
S1132C30F62E0091470F1091480F8091A00F9091AC
S1132C40A10F029607DCCF3F8FEFD80781F4FF2056
S1132C5071F06091A00F7091A10F6E5F7F4F8AE4B5
S1132C609FE0DF91CF911F910F91FF909ACBC00FFE
S1132C70D11FE091A00FF091A10FD383C283609183
S1132C80A00F7091A10FC017D10760F48091660F57
S1132C909091670F6E5F7F4FDF91CF911F910F91DE
S1132CA0FF90A0CB8091680F9091690F6E5F7F4F6A
S1132CB099DB80913F0F9091400FC817D90720F4FA
S1132CC0D093400FC0933F0FDF91CF911F910F918D
S1132CD0FF9008953F924F925F926F927F928F92EE
S1132CE09F92AF92BF92CF92DF92EF92FF920F9397
S1132CF01F93CF93DF934C01162F372E6A0159018E
S1132D00CA010CDB2C01892B09F4C3C088E290E0D2
S1132D1005DBEC01892B79F0588E4F8AC6010197A7
S1132D203201680E791EBE01675E7F4FE12FF32DDD
S1132D30CF01089606C0C20121DBABC0E817F90732
S1132D4049F09F014191DB014D93BD01D9012C91C3
S1132D502111F4CF18A2043008F003E00E8B09A36C
S1132D601AA26E01B2E0CB0ED11CC60116DBCE0155
S1132D700C9613DBD987C88784E090E0801B910907
S1132D809D878C87DB8BCA8B1BA21CA21DA21EA253
S1132D901FA2A501B401C30180DB99838883E114D8
S1132DA0F10419F0F701D183C0830FB6F8940F92A0
S1132DB08091490F8F5F8093490F8091A00F90916C
S1132DC0A10F892B89F5D093A10FC093A00F8091F7
S1132DD0490F813009F038C08CE79FE0D0DA85E8EC
S1132DE09FE0CDDA8EE89FE0CADA87E99FE0C7DA90
S1132DF083E79FE0C4DA8AE69FE0C1DA8DE59FE0CD
S1132E00BEDA84E59FE0BBDA8AE49FE0B8DA83E7C0
S1132E109FE09093690F8093680F8AE69FE09093F8
S1132E20670F8093660F10C08091450F81110CC00D
S1132E30E091A00FF091A10F96898E89891720F057
S1132E40D093A10FC093A00F8091410F8F5F809307
S1132E50410F8E899091460F981710F48093460F76
S1132E60F9E08F9FC0011124B6018458904F99DA7C
S1132E700F900FBE8091450F882349F0E091A00F79
S1132E80F091A10F96898E89981708F4A7DB81E049
S1132E9001C08FEFDF91CF911F910F91FF90EF90C1
S1132EA0DF90CF90BF90AF909F908F907F906F9066
S1132EB05F904F903F900895EF92FF920F938DE3B0
S1132EC0E82E8FE0F82E00E020E030E045E550E009
S1132ED066EB71E08CEA98E1FDDE813089F4F894C8
S1132EE02FEF3FEF3093400F20933F0F8093450F18
S1132EF01092480F1092470F0F91FF90EF9039CB2B
S1132F000F91FF90EF90089580913C0F8F5F809315
S1132F103C0F0895CF92DF92EF92FF920F931F938D
S1132F20CF93DF9380913C0F811188C00091470FAC
S1132F301091480F0F5F1F4F1093480F0093470FD6
S1132F4001151105B1F48091680F9091690F2091DA
S1132F50660F3091670F3093690F2093680F909339
S1132F60670F8093660F8091420F8F5F8093420FAB
S1132F703EDE80913F0F9091400FC0E00817190783
S1132F8008F44CC0D9E0E091680FF091690F80819A
S1132F90811103C08FEF9FEF11C0E091680FF09192
S1132FA0690F0580F681E02DE680F780D70112963F
S1132FB08D919C9113970817190728F49093400F4B
S1132FC080933F0F2BC06701B2E0CB0ED11CC6012A
S1132FD041DAF70184899589892B19F0C7010C9688
S1132FE039DAD70156968C919091460F981710F4C0
S1132FF08093460FD89FC0011124B6018458904F86
S1133000D0D9E091A00FF091A10FD70156969C91D1
S11330108689981708F4B7CFC1E0B5CFE091A00F27
S1133020F091A10FE689B9E0EB9FF0011124E45877
S1133030F04F8081823040F0C1E006C08091440F9F
S11330408F5F8093440FC0E08091430F8111C1E0F2
S11330508C2FDF91CF911F910F91FF90EF90DF9014
S1133060CF900895EF92FF920F931F93CF93DF9326
S11330700FB6F8940F9280913C0F815080933C0FCF
S113308080913C0F882311F080E04CC08091490F5F
S11330908823D1F3C0E0D0E089E0F82EEE24E39455
S11330A080915D0F882339F1E091620FF091630FF5
S11330B0C681D781CE010C96CDD98E010E5F1F4FEC
S11330C0C801C8D98E899091460F981710F480933F
S11330D0460FF89EC0011124B8018458904F61D95D
S11330E0E091A00FF091A10F9E8986899817C0F2F4
S11330F0E092430FD5CFCD2B09F079DDC091440F79
S1133100CC2349F0D1E006DF8111D093430FC150A5
S1133110D1F71092440F8091430F882309F4B4CF60
S11331205DDA81E00F900FBEDF91CF911F910F9177
S1133130FF90EF900895CF93DF93EC01892B11F466
S11331404DDA07C0E1DE60E0CE016CDD8BDF882361
S1133150B9F3DF91CF9108958091530F882321F122
S1133160D3DEC091540F7EDFCC23B1F30FB6F894B5
S11331700F92E091590FF0915A0FC681D781CE0179
S1133180029668D98091490F81508093490F8091AC
S1133190530F81508093530F0F900FBE8F89988DDA
S11331A0EDD8CE01EBD8D8CF80917C0F8230A0F23D
S11331B015DAD2CF80913C0F882321F081E08093EF
S11331C0430F08951092430F8091460F69E0482FF2
S11331D050E0649F9001659F300D1124F901E4587B
S11331E0F04F9081911102C08150F1CFA181B28141
S11331F012960D90BC91A02DB283A1832158304F1B
S1133200A217B30731F412962D913C911397328390
S1133210218399E0949FF001959FF00D1124E458C7
S1133220F04F0180F281E02D268137813093A10F88
S11332302093A00F8093460F0895CF93DF93EB0163
S11332406091A00F7091A10F645F7F4FCBD861E0B4
S1133250CE01DF91CF91E6CC0F931F93CF93DF93F1
S1133260DC011596ED91FC911697C681D7818E01EC
S1133270045F1F4FC801EED880913C0F811113C029
S11332800A501109C801E6D88E899091460F981703
S113329010F48093460FB9E08B9FC0011124B8014C
S11332A08458904F03C0B8018DE59FE07AD8E0912F
S11332B0A00FF091A10F9E898689891720F481E0DF
S11332C08093430F01C080E0DF91CF911F910F9154
S11332D008952091420FFC0120832091470F3091E3
S11332E0480F328321830895CF93DF930FB6F89468
S11332F00F92E091470FF091480FDB012D913C9123
S11333002F3FBFEF3B07C9F0A091420FEC01B881FA
S113331049815A81BA1719F0E417F50780F4DF01DF
S1133320A41BB50BA217B30750F4DB014E1B5F0BB4
S1133330240F351F2D933C93CCDF80E001C081E046
S11333400F900FBEDF91CF91089581E08093430FDA
S113335008950F931F93CF93DF93FC01892B09F4F6
S11333604BC08689A091A00FB091A10F56969C9155
S1133370891708F041C02485358537FD0CC0A0911C
S1133380A00FB091A10F56969C9124E030E0291B28
S113339031093587248729E0829FC001112484588C
S11333A0904F2285338528173907F9F48F01EF01EF
S11333B02296CE014FD8E091A00FF091A10F8689FB
S11333C0F801868B9091460F981710F48093460F5E
S11333D0F9E08F9FC0011124BE018458904FDF9102
S11333E0CF911F910F910C94D111A091A00FB09186
S11333F0A10F56968C91868BDF91CF911F910F91DF
S113340008950F931F93CF93DF93FC01892B11F43D
S113341080E02BC082A1815082A3268991A1291723
S1133420B9F38111F5CFEF018F010E5F1F4FC80172
S113343011D889A18E8B482F50E024E030E0241B62
S1133440350B3D872C879091460F981710F4809385
S1133450460F29E0249FC001259F900D1124B80137
S11334608458904F0E94D11181E0DF91CF911F9138
S11334700F9108958091A00F9091A10F892B39F09D
S1133480E091A00FF091A10F82A18F5F82A38091A0
S1133490A00F9091A10F08955058BB27AA270ED0D2
S11334A071C162D130F067D120F031F49F3F11F443
S11334B01EF457C10EF4E095E7FB4DC1E92F73D11B
S11334C080F3BA17620773078407950718F071F43D
S11334D09EF58BC10EF4E0950B2EBA2FA02D0B0197
S11334E0B90190010C01CA01A0011124FF27591B45
S11334F099F0593F50F4503E68F11A16F040A22F4B
S1133500232F342F4427585FF3CF469537952795BB
S1133510A795F0405395C9F77EF41F16BA0B620BBA
S1133520730B840BBAF09150A1F0FF0FBB1F661F01
S1133530771F881FC2F70EC0BA0F621F731F841F44
S113354048F4879577956795B795F7959E3F08F06A
S1133550B3CF9395880F08F09927EE0F9795879529
S113356008950CD00FC107D140F0FED030F021F403
S11335705F3F19F0F0C0511139C1F3C014D198F371
S11335809923C9F35523B1F3951B550BBB27AA27E0
S113359062177307840738F09F5F5F4F220F331F52
S11335A0441FAA1FA9F333D00E2E3AF0E0E830D01E
S11335B091505040E695001CCAF729D0FE2F27D021
S11335C0660F771F881FBB1F261737074807AB07EF
S11335D0B0E809F0BB0B802DBF01FF2793585F4F64
S11335E02AF09E3F510568F0B6C000C15F3FECF37E
S11335F0983EDCF3869577956795B795F7959F5F29
S1133600C9F7880F911D9695879597F90895E1E07C
S1133610660F771F881FBB1F621773078407BA07DB
S113362020F0621B730B840BBA0BEE1F88F7E09536
S1133630089504D06894B111D9C00895BCD088F01D
S11336409F5790F0B92F9927B751A0F0D1F0660F8A
S1133650771F881F991F1AF0BA95C9F712C0B130A5
S113366081F0C3D0B1E00895C0C0672F782F8827B8
S1133670B85F39F0B93FCCF3869577956795B395E4
S1133680D9F73EF490958095709561957F4F8F4F53
S11336909F4F0895E89409C097FB3EF49095809558
S11336A0709561957F4F8F4F9F4F9923A9F0F92F04
S11336B096E9BB279395F695879577956795B79582
S11336C0F111F8CFFAF4BB0F11F460FF1BC06F5F68
S11336D07F4F8F4F9F4F16C0882311F096E911C07A
S11336E0772321F09EE8872F762F05C0662371F09B
S11336F096E8862F70E060E02AF09A95660F771FAF
S1133700881FDAF7880F9695879597F90895990F8A
S11337100008550FAA0BE0E8FEEF16161706E80797
S1133720F907C0F012161306E407F50798F0621BB8
S1133730730B840B950B39F40A2661F0232B242B8D
S1133740252B21F408950A2609F4A140A6958FEFAC
S1133750811D811D089597F99F6780E870E060E0FE
S113376008959FEF80EC089500240A941616170616
S113377018060906089500240A941216130614065E
S113378005060895092E0394000C11F4882352F0C1
S1133790BB0F40F4BF2B11F460FF04C06F5F7F4F79
S11337A08F4F9F4F089557FD9058440F551F59F060
S11337B05F3F71F04795880F97FB991F61F09F3F1A
S11337C079F087950895121613061406551FF2CF43
S11337D04695F1DF08C0161617061806991FF1CF93
S11337E086957105610508940895E894BB276627BA
S11337F07727CB0197F908958ADF08F48FEF0895AE
S11338000BD0C0CFB1DF28F0B6DF18F0952309F054
S1133810A2CFA7CF1124EACFC6DFA0F3959FD1F39F
S1133820950F50E0551F629FF001729FBB27F00D6A
S1133830B11D639FAA27F00DB11DAA1F649F6627BF
S1133840B00DA11D661F829F2227B00DA11D621F0E
S1133850739FB00DA11D621F839FA00D611D221FC8
S1133860749F3327A00D611D231F849F600D211DAC
S1133870822F762F6A2F11249F5750408AF0E1F04F
S113388088234AF0EE0FFF1FBB1F661F771F881F98
S113389091505040A9F79E3F510570F05CCFA6CFE0
S11338A05F3FECF3983EDCF3869577956795B79583
S11338B0F795E7959F5FC1F7FE2B880F911D9695AD
S11338C0879597F90895991B79E004C0991F961775
S11338D008F0961B881F7A95C9F780950895AA1B4E
S11338E0BB1B51E107C0AA1FBB1FA617B70710F0E7
S11338F0A61BB70B881F991F5A95A9F78095909519
S1133900BC01CD010895A1E21A2EAA1BBB1BFD0127
S11339100DC0AA1FBB1FEE1FFF1FA217B307E407AA
S1133920F50720F0A21BB30BE40BF50B661F771F02
S1133930881F991F1A9469F76095709580959095E2
S11339409B01AC01BD01CF010895FB01DC0102C064
S113395001900D9241505040D8F70895E199FECF5F
S11339609FBB8EBBE09A99278DB30895262FE199CA
S1133970FECF9FBB8EBBE09A01970DB2021631F0C9
S11339802DBB0FB6F894E29AE19A0FBE0895F8940D
S1053990FFCF63
S11339925054555810002400000000B403C103B170
S11339A203B203B303B903000000002B042804B1DB
S11339B203B203B3032A0400000000BB052804B1C8
S11339C203B203B3032A0400000000D305280463EE
S11339D2063006B3032A0400000000810628040A04
S11339E207D706B3032A045561727420496E6974B9
S11339F2205355434345535320626F61647261748B
S1133A02652039363030627073200D0A0052533407
S1133A12383520496E697420535543434553532026
S1133A22626F61647261746520393630306270731A
S1133A32200D0A005461736B31005461736B3200C0
S10F3A425461736B330049444C45000090
S9030000FC
